:0400000007EF00F016
:0A0008005B82B5ED16F09EEF16F0D6
:1008000000A20838087E085C0805010905A1011549
:100810000025017501951A05091901291A8102950A
:10082000068101050126FF0046FF00093309300952
:1008300031750895038102C02403520075006200DF
:100840006200650072002000480065006C006900CD
:10085000780020004C006100620073000902220051
:10086000010100C032090400000103000000092159
:1008700011010001222F000705810340000112032E
:100880005400680072006F00740074006C00650012
:100890001201000200000008D804700301000102E8
:0708A000000104030904003C
:1008A800200E34605AEF04F05CEF04F05EEF04F0C1
:1008B80053EF06F06DA263EF04F065EF04F067EF05
:1008C80004F053EF06F01B501C10D8B46EEF04F080
:1008D80070EF04F07BEF04F01BC0D9FF1CC0DAFFF7
:1008E800DFBE79EF04F07BEF04F053EF06F0070E5C
:1008F800D3EC0EF041044210D8B485EF04F089EF30
:1009080004F0466A462A8AEF04F0466A464605011C
:1009180000514618FD0B4618006F070ED3EC0EF079
:10092800020E41184210D8B49CEF04F0A0EF04F076
:10093800466A462AA1EF04F0466A4646464605013D
:1009480000514618FB0B4618006F070ED3EC0EF04B
:10095800030E41184210D8B4B4EF04F0B8EF04F015
:10096800466A462AB9EF04F0466A4646464646466F
:10097800050100514618F70B4618006F070ED3EC17
:100988000EF0040E41184210D8B4CDEF04F0D1EFA8
:1009980004F0466A462AD2EF04F0466A463A050150
:1009A80000514618EF0B4618006F070ED3EC0EF0F7
:1009B800050E41184210D8B4E4EF04F0E8EF04F053
:1009C800466A462AE9EF04F0466A463A4646050171
:1009D80000514618DF0B4618006F030ED3EC0EF0DB
:1009E80041044210D8B4FBEF04F0FFEF04F0466A6C
:1009F800462A00EF05F0466A463A46460501015187
:100A08004618DF0B4618016F030ED3EC0EF0020EEA
:100A180041184210D8B413EF05F017EF05F0466AF5
:100A2800462A18EF05F0466A463A46464646050104
:100A380001514618BF0B4618016F030ED3EC0EF098
:100A4800030E41184210D8B42CEF05F030EF05F032
:100A5800466A462A31EF05F0466A463246320501B3
:100A6800015146187F0B4618016F030ED3EC0EF0A8
:100A7800040E41184210D8B444EF05F048EF05F0D1
:100A8800466A462A49EF05F0466A050102514618AA
:100A9800FE0B4618026F030ED3EC0EF0050E41183C
:100AA8004210D8B45AEF05F05EEF05F0466A462AC0
:100AB8005FEF05F0466A4646050102514618FD0BF0
:100AC8004618026F010E2BEC09F0466E0501005125
:100AD8004618FE0B4618006F070E2BEC09F0466E01
:100AE800463A46464646050100514618BF0B461889
:100AF800006F080E2BEC09F0466E463246320501AF
:100B0800005146187F0B4618006F090E2BEC09F0B0
:100B1800466E050101514618FE0B4618016F0A0E74
:100B28002BEC09F0466E4646050101514618FD0BAF
:100B38004618016F0B0E2BEC09F0466E46464646EA
:100B4800050101514618FB0B4618016F0C0E2BECE2
:100B580009F0466E46464646464605010151461886
:100B6800F70B4618016F0D0E2BEC09F0466E463A4E
:100B7800050101514618EF0B4618016F130E2BECB7
:100B880009F0466E46464646050102514618FB0BDB
:100B98004618026F140E2BEC09F0466E4646464680
:100BA8004646050102514618F70B4618026F150E06
:100BB8002BEC09F0466E463A050102514618EF0B38
:100BC8004618026F160E2BEC09F0466E463A46465A
:100BD800050102514618DF0B4618026F170E2BEC61
:100BE80009F0466E463A4646464605010251461801
:100BF800BF0B4618026F180E2BEC09F0466E4632F2
:100C080046320501025146187F0B4618026F190E2D
:100C18002BEC09F0466E050103514618FE0B4618E9
:100C2800036F1A0E2BEC09F0466E46460501035178
:100C38004618FD0B4618036F000EEBEC14F0D89025
:100C48003B323A32D8903B323A323A500501046F7F
:100C5800010EEBEC14F0D8903B323A32D8903B328C
:100C68003A323A500501056F020EEBEC14F0D890B9
:100C78003B323A32D8903B323A323A500501066F4D
:100C8800010E3A6E000E3B6E050E3C6E070E3D6E71
:100C9800010E34EC0EF03AC01BF03BC01CF0120001
:100CA80004012205D8A45BEF06F05DEF06F077EFAC
:100CB80006F020511F0B0009D8A465EF06F067EF76
:100CC80006F077EF06F00C8E030E2119D8A46FEF0B
:100CD80006F071EF06F075EF06F0010E316E77EF52
:100CE80006F0000E316E2251D8A47DEF06F07FEF9A
:100CF80006F0F9EF07F020511F0B020AD8A487EF7E
:100D080006F089EF06F0F9EF07F024510F0B000900
:100D1800D8B491EF06F093EF06F0F9EF07F02451FD
:100D28000F0B506E020E50609CEF06F09EEF06F01F
:100D3800F9EF07F0200E3418D8A4A5EF06F0A7EFB6
:100D480006F0F9EF07F00C8E24BFADEF06F0AFEF19
:100D580006F0CCEF06F024510F0B506E5050020DE8
:100D6800170EF324D96E000EF420DA6EDECF55F09C
:100D7800DDCF56F024510F0B506E516A1D0E5024D2
:100D8800D96E000E5120DA6EDF50546EE7EF06F090
:100D980024510F0B506E5050020D130EF324D96ED0
:100DA800000EF420DA6EDECF55F0DDCF56F0245178
:100DB8000F0B506E516A1F0E5024D96E000E512031
:100DC800DA6EDF50546E54B0ECEF06F0EEEF06F03A
:100DD800F6EF06F0FB0E5514556EFF0E5614566EC0
:100DE800FBEF06F0040E5510556E5650566E24BF94
:100DF80000EF07F002EF07F013EF07F024510F0B95
:100E0800506E5050020D170EF324D96E000EF420C8
:100E1800DA6E55C0DEFF56C0DDFF22EF07F0245121
:100E28000F0B506E5050020D130EF324D96E000EA6
:100E3800F420DA6E55C0DEFF56C0DDFF030E21191F
:100E4800D8A429EF07F02BEF07F063EF07F055C0A0
:100E5800D9FF56C0DAFFDFAE34EF07F036EF07F000
:100E680055EF07F024BF3BEF07F03DEF07F04AEFDF
:100E780007F024510F0B506E516A1D0E5024D96E85
:100E8800000E5120DA6EDF8255EF07F024510F0B68
:100E9800506E516A1F0E5024D96E000E5120DA6E22
:100EA800DF8255C0D9FF56C0DAFF000EDB8455C07B
:100EB800D9FF56C0DAFF000EDB8EF9EF07F0040EFB
:100EC8005518556E5650566E55C0D9FF56C0DAFFA4
:100ED800DFAE71EF07F073EF07F08FEF07F055C043
:100EE800D9FF56C0DAFF7F0EDF1655C0D9FF56C0AE
:100EF800DAFF000EDB8C000E496E050E486E55C0F9
:100F08004AF056C04BF0000E4D6E020E4C6E56EC79
:100F180014F095EF07F055C0D9FF56C0DAFF000E60
:100F2800DB8C040E5518556E5650566E54B29FEF12
:100F380007F0A1EF07F0ACEF07F055C0D9FF56C096
:100F4800DAFFDFAEAAEF07F0ACEF07F0E2EF07F049
:100F5800040124BFB2EF07F0B4EF07F0C1EF07F0C8
:100F680024510F0B506E516A1D0E5024D96E000E7D
:100F78005120DA6EDF92CCEF07F024510F0B506E40
:100F8800516A1F0E5024D96E000E5120DA6EDF927E
:100F980055C0D9FF56C0DAFF3B0EDF16000E496E6A
:100FA800050E486E55C04AF056C04BF0000E4D6E07
:100FB800020E4C6E56EC14F0E8EF07F055C0D9FF5E
:100FC80056C0DAFF3B0EDF16040124510F0B506E9A
:100FD800516A700E5024526E0F0E5120536E52C03B
:100FE800D9FF53C0DAFFFE0EDF1612003450D8A422
:100FF80000EF08F002EF08F018EF08F0000E6D6E31
:10100800000E696E160E6F6E9F0E6B6E7B0E696E0C
:101018000FEF08F06D866DA614EF08F016EF08F0D4
:101028000EEF08F0010E346E3404D8A41EEF08F059
:1010380020EF08F02FEF08F06DBA25EF08F027EF42
:1010480008F02FEF08F0000E686E000E696E6980D8
:101058006988020E346E68A434EF08F036EF08F0A1
:1010680040EF08F069A43BEF08F03DEF08F040EFCF
:1010780008F068943DEC16F06DA245EF08F047EFD4
:1010880008F04AEF08F0A19A2AEF09F068A04FEF9C
:1010980008F051EF08F05DEF08F069A056EF08F08E
:1010A80058EF08F05DEF08F050EC0CF0040E346EC9
:1010B800689068A862EF08F064EF08F06DEF08F038
:1010C80069A869EF08F06BEF08F06DEF08F075ECB0
:1010D80016F068AC72EF08F074EF08F09FEF08F0B4
:1010E80069AC79EF08F07BEF08F089EF08F0000EA3
:1010F800496E730E486E000E4A6E000E4B6E000E5F
:101108004D6E010E4C6E56EC14F0689C5CEC16F0BB
:101118002D50D8B492EF08F094EF08F095EF08F04E
:101128002D062D50D8A49BEF08F09DEF08F09FEFF7
:1011380008F003EC12F068AAA4EF08F0A6EF08F094
:10114800AFEF08F069AAABEF08F0ADEF08F0AFEF2A
:1011580008F09FEC15F068A2B4EF08F0B6EF08F0BD
:10116800CCEF08F069A2BBEF08F0BDEF08F0CCEFB8
:1011780008F07F0E496E4868000E4A6E000E4B6EEE
:10118800000E4D6E010E4C6E56EC14F0000E6A6E99
:10119800040E3460D2EF08F0D4EF08F0D7EF08F06F
:1011A800A19A2AEF09F069A6DCEF08F0DEEF08F053
:1011B80029EF09F0000E5A6E68A6E5EF08F0E7EF90
:1011C80008F029EF09F06CCF37F03730E832E83211
:1011D8000F0B2F6E689637B4F4EF08F0F6EF08F0AF
:1011E800FFEF08F01D0E2F24D96EDA6A000EDA22FE
:1011F800DF7006EF09F01F0E2F24D96EDA6A000E91
:10120800DA22DF702F50D8A40CEF09F00EEF09F0A6
:1012180012EF09F04CEC13F020EF09F0000E496EC4
:10122800720E486E370E4A6E000E4B6E000E4D6EF3
:10123800000E4C6E56EC14F05A2A030E5A6427EF2F
:1012480009F029EF09F0E0EF08F0A19A12003C6ECE
:10125800EBEF09F082AC33EF09F036EF09F0010E3D
:1012680037EF09F0000E3CEF0AF080A83EEF09F0D6
:1012780041EF09F0010E42EF09F0000E3CEF0AF0D1
:1012880082AE49EF09F04CEF09F0010E4DEF09F07D
:10129800000E3CEF0AF083A854EF09F057EF09F06D
:1012A800010E58EF09F0000E3CEF0AF083AA5FEF39
:1012B80009F062EF09F0010E63EF09F0000E3CEF50
:1012C8000AF083AC6AEF09F06DEF09F0010E6EEFDA
:1012D80009F0000E3CEF0AF083AE75EF09F078EFE5
:1012E80009F0010E79EF09F0000E3CEF0AF081AA2F
:1012F80080EF09F083EF09F0010E84EF09F0000E8A
:101308003CEF0AF083A08BEF09F08EEF09F0010E95
:101318008FEF09F0000E3CEF0AF083A296EF09F078
:1013280099EF09F0010E9AEF09F0000E3CEF0AF070
:1013380083A4A1EF09F0A4EF09F0010EA5EF09F0CD
:10134800000E3CEF0AF081A0ACEF09F0AFEF09F016
:10135800010EB0EF09F0000E3CEF0AF081A2B7EFE2
:1013680009F0BAEF09F0010EBBEF09F0000E3CEFEF
:101378000AF0000E3D6E81A2C4EF09F0C6EF09F035
:10138800CFEF09F082A0CBEF09F0CDEF09F0CFEF56
:1013980009F0010E3D6E3D503CEF0AF082A0D7EFF8
:1013A80009F0DAEF09F0010EDBEF09F0000E3CEF6F
:1013B8000AF081A8E2EF09F0E5EF09F0010EE6EF87
:1013C80009F0000E3CEF0AF0000E3CEF0AF03C502A
:1013D8003A6E3B6A3B50000AD8B4F5EF09F0E8EFE3
:1013E80009F03A50000AD8B4E8EF09F0010AD8B475
:1013F8002EEF09F0060AD8B439EF09F00F0AD8B46D
:1014080044EF09F0010AD8B44FEF09F0030AD8B441
:101418005AEF09F0010AD8B465EF09F0070AD8B401
:1014280070EF09F0010AD8B47BEF09F01E0AD8B4AE
:1014380086EF09F0070AD8B491EF09F0010AD8B489
:101448009CEF09F0030AD8B4A7EF09F0010AD8B451
:10145800B2EF09F00F0AD8B4BDEF09F0010AD8B409
:10146800D2EF09F0030AD8B4DDEF09F0E8EF09F08C
:1014780012003AC044F03BC045F03E503F10D8A49B
:1014880048EF0AF04AEF0AF04CEF0AF0F7EF0AF0DB
:1014980044C0D9FF45C0DAFF3CC0DFFF3E504424BA
:1014A800406E3F504520416EFF0E4024D96EFF0E1E
:1014B8004120DA6E3CC0DFFF3F5007E1030E3E5C7F
:1014C800D8B069EF0AF06BEF0AF06DEF0AF0F7EFAA
:1014D8000AF020EE01F04450D9264550DA223CC0EB
:1014E800DFFF20EE02F04450D9264550DA223CC0F6
:1014F800DFFF3E504424406E3F504520416EFE0EB3
:101508004024D96EFF0E4120DA6E3CC0DFFF3E500A
:101518004424406E3F504520416EFD0E4024D96E54
:10152800FF0E4120DA6E3CC0DFFF3F5007E1070E97
:101538003E5CD8B0A2EF0AF0A4EF0AF0A6EF0AF0DA
:10154800F7EF0AF020EE03F04450D9264550DA228E
:101558003CC0DFFF3E504424406E3F504520416E62
:10156800FC0E4024D96EFF0E4120DA6E3CC0DFFF2E
:101578003F5007E1090E3E5CD8B0C5EF0AF0C7EF4F
:101588000AF0C9EF0AF0F7EF0AF044C040F045C08E
:1015980041F0401E411E404A412A030E4014426E4B
:1015A800436A425044264350452242503E5E4350CF
:1015B8003F5AFC0E3E16FF0E3F16EEEF0AF044C0EF
:1015C800D9FF45C0DAFF3CC0DFFF3E06D8A03F0682
:1015D800444A452A3E503F10D8A4F5EF0AF0F7EFE9
:1015E8000AF0E3EF0AF01200040120511F0BE8068D
:1015F800D8B401EF0BF003EF0BF005EF0BF0A7EFFA
:101608000BF02451D8B40BEF0BF00DEF0BF00FEFEC
:101618000BF0A7EF0BF0060E2119D8A416EF0BF06C
:1016280018EF0BF051EF0BF038EF0BF03904D8A49A
:1016380020EF0BF022EF0BF051EF0BF06E0E096E5E
:10164800080E0A6E000E0E6E090E0D6EC00E0C6EA0
:1016580051EF0BF0090E096E080E0A6E000E0E6EA1
:101668002F0E0D6E2AEF0BF023513A6E3B6A3B505A
:10167800000AD8B442EF0BF051EF0BF03A50210AB0
:10168800D8B41AEF0BF0030AD8B42EEF0BF0010A06
:10169800D8B451EF0BF051EF0BF02039E832030BBF
:1016A800E806D8B45AEF0BF05CEF0BF082EF0BF0C2
:1016B800A7EF0BF0360E096E000E0A6E000E0E6EC6
:1016C800010E0D6EC10E0C6EA7EF0BF0800E0C6EA6
:1016D80023C436F0A7EF0BF0350E096E000E0A6E24
:1016E800000E0E6E010E0D6E810E0C6EA7EF0BF044
:1016F800800E0C6E22C435F0A7EF0BF021513A6E24
:101708003B6A3B50000AD8B48CEF0BF0A7EF0BF004
:101718003A50010AD8B4A7EF0BF0030AD8B45EEF29
:101728000BF0010AD8B470EF0BF00A0AD8B4A7EF8F
:101738000BF0030AD8B46AEF0BF0010AD8B47CEFB7
:101748000BF0A7EF0BF01200800E04012019D8A4AB
:10175800B0EF0BF0B2EF0BF04FEF0CF0C00E0C6EC9
:1017680036EF0CF0900E096E080E0A6E000E0E6E23
:10177800120E0D6E4FEF0CF02251D8A4C6EF0BF0ED
:10178800C8EF0BF006EF0CF02251020D070EF32400
:10179800F66E080EF420F76E0900F5CF09F00A007E
:1017A800F5CF0AF0020E09243A6E000E0A203B6EAD
:1017B8003AC0F6FF3BC0F7FFF86A070EF76403D09C
:1017C8000800F55005D0F6CFE1FFF7CFE2FFE7506C
:1017D8000D6E030E09243A6E000E0A203B6E3AC0C5
:1017E800F6FF3BC0F7FFF86A070EF76403D008005E
:1017F800F55005D0F6CFE1FFF7CFE2FFE7500E6EC8
:101808004FEF0CF0000E0C6E4FEF0CF0030E226140
:1018180010EF0CF012EF0CF006EF0CF02251020D55
:10182800010EF324F66E080EF420F76E0900F5CFCA
:1018380009F00A00F5CF0AF009C0F6FF0AC0F7FF61
:10184800F86A070EF76403D00800F55005D0F6CF04
:10185800E1FFF7CFE2FFE7503A6E3A500D6E0E6A9D
:101868004FEF0CF023513A6E3B6A3B50000AD8B454
:1018780040EF0CF006EF0CF03A50010AD8B4B6EF7E
:101888000BF0030AD8B4C0EF0BF0010AD8B40AEF82
:101898000CF006EF0CF01200A09A000E6A6E000E13
:1018A800686E000E706E710E3A6E0F0E3B6E000E73
:1018B8003D6E000E3C6E000E3F6E010E3E6E3DEC1E
:1018C8000AF0160E6F6E9F0E6B6E7B0E696E000E21
:1018D800466E4650040D000EF324D96E040EF42013
:1018E800DA6EDE6ADE6ADE6ADD6A462A070E46645A
:1018F80080EF0CF082EF0CF06DEF0CF06D8C000EA9
:101908006E6E6D986D9C6896000E0C6E000E046EDF
:10191800000E066E000E056E68B695EF0CF097EF98
:101928000CF087EF0CF0010E2B6E010E2A6E000EE4
:10193800296E000E286E000E306E000E466E465060
:10194800020D130EF324D96E000EF420DA6E000E89
:10195800DE6E000EDD6E4650020D170EF324D96EB2
:10196800000EF420DA6E000EDE6E000EDD6E1F0E25
:101978004624D96EDA6A000EDA22000EDF6E1D0EDA
:101988004624D96EDA6A000EDA22000EDF6E462A85
:10199800010E4664D2EF0CF0D4EF0CF0A3EF0CF07C
:1019A800080E136E040E146E160E706E040E0401EB
:1019B800036F200E026F080E016F040E006F008F78
:1019C800000E396E000E0F6E000E106E000E116EB6
:1019D800000E126E000E276E000E346E120020EEFE
:1019E80001F02550D9262650DA22DF503B6E3B50B5
:1019F800055C000E0658D8B004EF0DF006EF0DF0A8
:101A080008EF0DF005C03BF03B50055E000E065A8E
:101A1800000E3A6E1FEF0DF0280E3A24D96EDA6ADE
:101A2800040EDA2201C0E1FF02C0E2FFDFCFE7FFC8
:101A3800014A022A3A2A3B503A5CD8A026EF0DF018
:101A480028EF0DF010EF0DF005500610D8B42FEF69
:101A58000DF031EF0DF06AEF0DF020EE01F023509C
:101A6800D9262450DA22080EDF6E20EE02F0235029
:101A7800D9262450DA22280EDE6E040EDD6E25C02B
:101A8800D9FF26C0DAFFDFBC4CEF0DF04EEF0DF0AA
:101A98005CEF0DF023C0D9FF24C0DAFF480EDF6EDB
:101AA80023C0D9FF24C0DAFF000EDB8E93EF0DF0C0
:101AB80023C0D9FF24C0DAFF080EDF6E23C0D9FF88
:101AC80024C0DAFF000EDB8E93EF0DF020EE01F05C
:101AD8002350D9262450DA22080EDF6E20EE02F0B9
:101AE8002350D9262450DA22200EDE6E040EDD6E35
:101AF80023C0D9FF24C0DAFF040EDF6E23C0D9FF4C
:101B080024C0DAFF000EDB8E049E2C50D8A48FEF81
:101B18000DF091EF0DF093EF0DF003EC12F01200C1
:101B28006D980CBE9AEF0DF09CEF0DF0E1EF0DF003
:101B380004AEA1EF0DF0A3EF0DF0B5EF0DF0020E1E
:101B4800326E2850D8A4ABEF0DF0ADEF0DF0AFEF2B
:101B58000DF000EC14F0000E2A6E000E2B6E33EF21
:101B68000EF020EE01F02350D9262450DA22080E78
:101B7800DF6E20EE02F02350D9262450DA22200E00
:101B8800DE6E040EDD6E23C0D9FF24C0DAFF0C0E12
:101B9800DF6E23C0D9FF24C0DAFF000EDB8E13C02E
:101BA800D9FF14C0DAFF040EDF6E13C0D9FF14C0CA
:101BB800DAFF000EDB8E33EF0EF0040120AFE7EF03
:101BC8000DF0E9EF0DF005EF0EF0010E326E295021
:101BD800D8A4F1EF0DF0F3EF0DF0F5EF0DF000ECF8
:101BE80014F0000E2A6E000E2B6E2C50D8A4FFEFB6
:101BF8000DF001EF0EF033EF0EF003EC12F033EFBF
:101C08000EF0020E326E20EE01F02350D926245039
:101C1800DA22080EDF6E20EE02F02350D926245077
:101C2800DA22200EDE6E040EDD6E23C0D9FF24C03A
:101C3800DAFF040EDF6E23C0D9FF24C0DAFF000EDE
:101C4800DB8E000E2A6E000E2B6E2C50D8A42FEFC0
:101C58000EF031EF0EF033EF0EF001EF0EF0120040
:101C6800426E3A50D8B43BEF0EF03DEF0EF04BEF1A
:101C78000EF04250020D130EF324D96E000EF4201C
:101C8800DA6EDECF43F0DDCF44F057EF0EF042506E
:101C9800020D170EF324D96E000EF420DA6EDECF93
:101CA80043F0DDCF44F043504410D8A45EEF0EF06B
:101CB80060EF0EF066EF0EF0000E3A6E000E3B6E0F
:101CC800D2EF0EF020EE02F04350D9264450DA222B
:101CD8003BC0DEFF3CC0DDFF20EE01F04350D926BB
:101CE8004450DA223DC0DFFF43C0D9FF44C0DAFFC9
:101CF800400EDF1643C0D9FF44C0DAFF000EDB8672
:101D080043C0D9FF44C0DAFF000EDB8E3A50D8B486
:101D180090EF0EF092EF0EF0B1EF0EF04250020D80
:101D2800130EF324D96E000EF420DA6EDECF3EF0E7
:101D3800DDCF3FF0040E3E18406E3F50416E4250DA
:101D4800020D130EF324D96E000EF420DA6E40C093
:101D5800DEFF41C0DDFFCEEF0EF04250020D170E40
:101D6800F324D96E000EF420DA6EDECF3EF0DDCF1C
:101D78003FF0040E3E18406E3F50416E4250020D37
:101D8800170EF324D96E000EF420DA6E40C0DEFF81
:101D980041C0DDFF43C03AF044C03BF01200436E3F
:101DA8004350EBEC14F03AC044F03BC045F0440417
:101DB800040E4558D8B0E3EF0EF0E5EF0EF0F6EF5D
:101DC8000EF0550E445C030E4558D8A0EEEF0EF009
:101DD800F0EF0EF0F6EF0EF0000E426E050E416EBB
:101DE80068EF0FF0550E445C030E4558D8B0FFEF6E
:101DF8000EF001EF0FF012EF0FF0AA0E445C020E86
:101E08004558D8A00AEF0FF00CEF0FF012EF0FF0C3
:101E1800000E426E040E416E68EF0FF0AA0E445C8D
:101E2800020E4558D8B01BEF0FF01DEF0FF02DEF45
:101E38000FF04428010E4558D8A025EF0FF027EFE2
:101E48000FF02DEF0FF0000E426E030E416E68EF9B
:101E58000FF04428010E4558D8B035EF0FF037EF92
:101E68000FF048EF0FF0540E445C010E4558D8A00F
:101E780040EF0FF042EF0FF048EF0FF0000E426E08
:101E8800020E416E68EF0FF0540E445C010E455887
:101E9800D8B051EF0FF053EF0FF064EF0FF045504B
:101EA80009E1A90E445CD8A05CEF0FF05EEF0FF0DB
:101EB80064EF0FF0000E426E010E416E68EF0FF0F6
:101EC800000E426E000E416E1200000E0401286FD3
:101ED800000E296FCBEF0FF00C8E3104D8A477EFEA
:101EE8000FF079EF0FF0E5EF0FF02883E5EF0FF033
:101EF8000C8EE5EF0FF00C8E24510F0B0009D8B4AF
:101F080088EF0FF08AEF0FF0E5EF0FF024BF8FEFA7
:101F18000FF091EF0FF0A2EF0FF024510F0B3A6E74
:101F28003A50020D170EF324D96E000EF420DA6E23
:101F3800DECF3CF0DDCF3DF0B1EF0FF024510F0BB9
:101F48003A6E3A50020D130EF324D96E000EF420A7
:101F5800DA6EDECF3CF0DDCF3DF03CC0D9FF3DC0AE
:101F6800DAFFDFAEBAEF0FF0BCEF0FF0E5EF0FF0DE
:101F78003CC0D9FF3DC0DAFFDFA4C5EF0FF0C7EFC3
:101F88000FF0E5EF0FF0010E286FE5EF0FF020518D
:101F98001F0B3A6E3B6A3B50000AD8B4D6EF0FF0DD
:101FA800E5EF0FF03A50000AD8B470EF0FF0010ACD
:101FB800D8B47CEF0FF0030AD8B47FEF0FF0E5EF49
:101FC8000FF00CAEEAEF0FF0ECEF0FF0F3EF0FF0BD
:101FD800280E096E040E0A6E0C80020E0D6E120099
:101FE80004012039E832030B0009D8B4FEEF0FF0E2
:101FF80000EF10F044EF10F07DEF10F00C8E080E9B
:10200800346E7DEF10F0A8EC0BF07DEF10F07BEC58
:1020180012F07DEF10F0390E096E000E0A6E0C807A
:10202800010E0D6E0C8E7DEF10F069EC0FF07DEF58
:1020380010F054EC06F07DEF10F0380E2425096EF0
:102048000A6A000E0A2213EF10F00C8E380E2425AF
:10205800D96EDA6A000EDA2222C4DFFF7DEF10F0B3
:10206800000E496E020E486E000E4A6E000E4B6E50
:10207800000E4D6E000E4C6E56EC14F07DEF10F015
:102088002151576E586A5850000AD8B44EEF10F0D4
:102098007DEF10F05750000AD8B419EF10F0010A7C
:1020A800D8B41DEF10F0020AD8B41DEF10F0060ADC
:1020B800D8B402EF10F0030AD8B407EF10F0010A01
:1020C800D8B434EF10F00F0AD8B40FEF10F0010AAB
:1020D800D8B40BEF10F0030AD8B421EF10F0010ABE
:1020E800D8B429EF10F0070AD8B47DEF10F07DEFCF
:1020F80010F01200080E3A6E0E5007E1080E0D5C43
:10210800D8B089EF10F08BEF10F0A3EF10F00DC0EE
:102118003AF03350D8A493EF10F095EF10F099EF00
:1021280010F0010E336EA3EF10F03304D8A49FEF24
:1021380010F0A1EF10F0A3EF10F0020E336E3A503A
:102148000D5E000E0E5A20EE01F01350D9261450E1
:10215800DA223AC0DFFF280E216E040E226E0CB080
:10216800B8EF10F0BAEF10F0FAEF10F0D6EF10F069
:1021780009C0F6FF0AC0F7FFF86A21C0E1FF22C0D4
:10218800E2FF070EF76403D00800F55005D0F6CF3C
:10219800D9FFF7CFDAFFDF50E76E094A0A2A214A4A
:1021A800222A3A063A50D8A4DCEF10F0DEEF10F0FD
:1021B800BCEF10F002EF11F009C0F6FF0AC0F7FFFC
:1021C800F86A21C0E1FF22C0E2FF070EF76403D0DE
:1021D8000800F55005D0F6CFD9FFF7CFDAFFDF506A
:1021E800E76E094A0A2A214A222A3A063A50D8A40E
:1021F80000EF11F002EF11F0E0EF10F0120013C041
:10220800D9FF14C0DAFF000EDFBC010E3B6E040ECE
:102218001318136E1450146E080E3418D8A417EF40
:1022280011F019EF11F02BEF11F0040122517F0B7F
:102238006E6E6E50D8B423EF11F025EF11F029EF30
:1022480011F0100E346E2BEF11F0040E346E3204C0
:10225800D8A431EF11F033EF11F07AEF11F020EE3E
:1022680002F01350D9261450DA22280EDE6E040E1E
:10227800DD6E7EEC10F0020E3318D8A446EF11F094
:1022880048EF11F056EF11F013C0D9FF14C0DAFF70
:10229800040EDF6E13C0D9FF14C0DAFF000EDB8E08
:1022A80084EF11F03B50D8A45CEF11F05EEF11F011
:1022B8006CEF11F013C0D9FF14C0DAFF480EDF6EBF
:1022C80013C0D9FF14C0DAFF000EDB8E84EF11F0C3
:1022D80013C0D9FF14C0DAFF080EDF6E13C0D9FF90
:1022E80014C0DAFF000EDB8E84EF11F004AE7FEF2E
:1022F80011F081EF11F082EF11F0049E000E326EA2
:1023080012003C6EB5EF11F0948C02EF12F0928837
:1023180002EF12F0948E02EF12F0958802EF12F09D
:10232800958A02EF12F0958C02EF12F0958E02EF6B
:1023380012F0938A02EF12F0958002EF12F0958264
:1023480002EF12F0958402EF12F0938002EF12F080
:10235800938202EF12F0948002EF12F0938802EF5A
:1023680012F03C503A6E3B6A3B50000AD8B4BFEFBB
:1023780011F002EF12F03A50000AD8B402EF12F04E
:10238800010AD8B488EF11F0060AD8B48BEF11F01F
:102398000F0AD8B48EEF11F0010AD8B491EF11F0FA
:1023A800030AD8B494EF11F0010AD8B497EF11F0EA
:1023B800070AD8B49AEF11F0010AD8B49DEF11F0CA
:1023C8001E0AD8B4A0EF11F0070AD8B4A3EF11F091
:1023D800010AD8B4A6EF11F0030AD8B4A9EF11F096
:1023E800010AD8B4ACEF11F00E0AD8B4AFEF11F06F
:1023F800030AD8B4B2EF11F002EF12F012002B501A
:10240800D8A409EF12F00BEF12F07AEF12F0010ED8
:102418002B6E2A50D8A413EF12F015EF12F07AEFB2
:1024280012F0010E2A6E020E3218D8A41EEF12F016
:1024380020EF12F036EF12F020EE01F01350D926FB
:102448001450DA22000EDF6E13C0D9FF14C0DAFF71
:10245800480EDF6E13C0D9FF14C0DAFF000EDB8E02
:102468007AEF12F03204D8A43CEF12F03EEF12F0EB
:102478007AEF12F0000E2E6E20EE01F02550D926CC
:102488002650DA22080EDF6E20EE02F02550D926FB
:102498002650DA22200EDE6E040EDD6E25C0D9FF2E
:1024A80026C0DAFF040EDF6E25C0D9FF26C0DAFF8A
:1024B800000EDB8E010E2E6E20EE01F02350D92681
:1024C8002450DA22080EDF6E20EE02F02350D926BF
:1024D8002450DA22200EDE6E040EDD6E23C0D9FFF2
:1024E80024C0DAFF800EDF6E7AEF12F012000C8E35
:1024F800710E3A6E0F0E3B6E000E3D6E000E3C6E76
:10250800000E3F6E010E3E6E3DEC0AF0000E3A6E74
:10251800040E3B6E000E3D6E000E3C6E000E3F6ECC
:10252800200E3E6E3DEC0AF06D8C000E506E1F0EB4
:102538005024D96EDA6A000EDA22000EDF6E1D0E04
:102548005024D96EDA6A000EDA22000EDF6E502AA5
:10255800010E5064B2EF12F0B4EF12F09BEF12F0DC
:10256800380E3A6E000E3B6E000E3D6E000E3C6E4D
:10257800000E3F6E010E3E6E3DEC0AF06D9C080E9B
:10258800136E040E146E000E256E040E266E25C002
:1025980023F026C024F022C439F03950D8A4D7EF4C
:1025A80012F0D9EF12F0DDEF12F0100E346EEDEFED
:1025B80012F0000E496E010E486E390E4A6E000E7A
:1025C8004B6E000E4D6E010E4C6E56EC14F0200E44
:1025D800346E12003F6E32EF13F0010E85EC11F0ED
:1025E800070E85EC11F0080E85EC11F0090E85EC4C
:1025F80011F00A0E85EC11F00B0E85EC11F00C0EA3
:1026080085EC11F00D0E85EC11F0130E85EC11F030
:10261800140E85EC11F0150E85EC11F0160E85ECF4
:1026280011F0170E85EC11F0190E85EC11F01A0E49
:1026380085EC11F0000E8BEC16F0000E6BEC15F02B
:10264800010E6BEC15F0020E6BEC15F0030E6BEC43
:1026580015F0070E6BEC15F04BEF13F03F503D6E85
:102668003E6A3E50000AD8B43CEF13F04BEF13F02B
:102678003D50000AD8B4F1EF12F0010AD8B44BEF7C
:1026880013F0030AD8B44BEF13F04BEF13F012001A
:102698002D0E2D6E37C059F0FD0E5916D8A457EFE0
:1026A80013F059EF13F09BEF13F037C059F0D8909F
:1026B80059323F0E59165950040D000EF324256E59
:1026C800040EF420266E25C023F026C024F0040E44
:1026D8002318236E2450246E25C0D9FF26C0DAFFA4
:1026E800DF30E8320F0B0D0AD8A47DEF13F07FEF2F
:1026F80013F097EF13F0200E3A6E040E3B6E20EEA7
:1027080002F02550D9262650DA22DECF3CF0DDCF64
:102718003DF0000E3F6E080E3E6ECFEC15F0A4ECB7
:1027280014F0A7EF13F031EC15F0A7EF13F03750C2
:10273800FD0B040AD8A4A3EF13F0A5EF13F0A7EF3D
:1027480013F003EC11F01200416E000E426E040EFD
:10275800436E3A503B6E3C6AD8903B363C3641500B
:102768003D6E3E6AD8903D363E36D8903D363E3670
:102778003B503D243F6E3C503E20406ED8903F3643
:102788004036D8903F3640363F504226405043228C
:1027980042C0D9FF43C0DAFFDF9E3A50D8A4D7EF32
:1027A80013F0D9EF13F0E7EF13F04150020D170EB5
:1027B800F324D96E000EF420DA6E42C0DEFF43C067
:1027C800DDFFF3EF13F04150020D130EF324D96E21
:1027D800000EF420DA6E42C0DEFF43C0DDFF42C0C7
:1027E800D9FF43C0DAFFDF9C20EE04F04250D9261F
:1027F8004350DA22DF8C1200000E296E000E286E7C
:10280800020E3218D8A40BEF14F00DEF14F02DEFD0
:1028180014F020EE01F02350D9262450DA22080EB5
:10282800DF6E20EE02F02350D9262450DA22280E3B
:10283800DE6E040EDD6E23C0D9FF24C0DAFF480E19
:10284800DF6E23C0D9FF24C0DAFF000EDB8E55EF00
:1028580014F00D500401265D0E502759D8B037EFFB
:1028680014F039EF14F03DEF14F026C40DF027C42E
:102878000EF07EEC10F020EE02F01350D926145022
:10288800DA22280EDE6E040EDD6E13C0D9FF14C0E6
:10289800DAFF480EDF6E13C0D9FF14C0DAFF000E4E
:1028A800DB8E12006AEF14F0010EEEEC12F0A3EFCB
:1028B80014F0020EEEEC12F0A3EF14F0ABEC16F0ED
:1028C800A3EF14F0F8EC0AF0A3EF14F048C04EF0B0
:1028D80049C04FF04F50000AD8B479EF14F07F0A7E
:1028E800D8B49CEF14F0A3EF14F04E50010AD8B4FA
:1028F80062EF14F0030AD8B4A3EF14F0010AD8B4B5
:1029080066EF14F0060AD8B4A3EF14F0770AD8B427
:10291800A3EF14F0010AD8B4A3EF14F0070AD8B44F
:102928005DEF14F0010AD8B458EF14F0A3EF14F0D7
:102938004E50FF0AD8B4A3EF14F0A3EF14F012001E
:10294800000E336E000E2C6E000E296E000E286EDF
:10295800000E2E6E000E326E13C0D9FF14C0DAFFBF
:102968007F0EDF16040E1318136E1450146E13C066
:10297800D9FF14C0DAFF7F0EDF16040E1318136E8A
:102988001450146E23C0D9FF24C0DAFF7F0EDF165F
:10299800000E0C6E000E0E6E000E0D6E000E046E14
:1029A800000E066E000E056EF4EC0FF0000E496E78
:1029B800030E486E000E4A6E000E4B6E000E4D6EF2
:1029C800000E4C6E56EC14F094EC0DF01200406EB4
:1029D800F2EF14F03A683B6830EF15F040503C6E67
:1029E8003D6A3D50000AD8B4FCEF14F0EEEF14F045
:1029F8003C50000AD8B413EF15F0010AD8B413EF0D
:102A080015F0030AD8B413EF15F0010AD8B413EF80
:102A180015F0040AD8B413EF15F0EEEF14F040C027
:102A28003CF03C463C46C2503C18C30B3C18C26EB6
:102A3800C282C2B222EF15F024EF15F01DEF15F097
:102A4800C4CF3EF03F6A3E503F6E3E6AC3503E12CE
:102A58003EC03AF03FC03BF01200020E3218D8A434
:102A680038EF15F03AEF15F03EEF15F0F3EC0CF0F7
:102A78006AEF15F0000E326E2E50D8A446EF15F00E
:102A880048EF15F068EF15F020EE01F02350D92635
:102A98002450DA22080EDF6E20EE02F02350D926E9
:102AA8002450DA22200EDE6E040EDD6E23C0D9FF1C
:102AB80024C0DAFF0C0EDF6E23C0D9FF24C0DAFF72
:102AC800000EDB8E6AEF15F0000E2E6E12003C6EC3
:102AD8007DEF15F092809EEF15F092829EEF15F033
:102AE80092849EEF15F092869EEF15F096849EEFE5
:102AF80015F03C503A6E3B6A3B50000AD8B487EF59
:102B080015F09EEF15F03A50000AD8B46EEF15F0A4
:102B1800010AD8B471EF15F0030AD8B474EF15F0B0
:102B2800010AD8B477EF15F0040AD8B47AEF15F093
:102B38009EEF15F0120070A0A4EF15F0A6EF15F0A7
:102B4800CDEF15F025C0D9FF26C0DAFF800EDE18BC
:102B5800D8A4B1EF15F0B3EF15F0CCEF15F013C012
:102B6800D9FF14C0DAFF840EDE18D8A4BEEF15F022
:102B7800C0EF15F0CCEF15F025C0D9FF26C0DAFF5D
:102B88000C0EDF6E25C0D9FF26C0DAFF000EDB8EE3
:102B98007090689A12003CC042F03DC043F03AC0C1
:102BA80040F03BC041F0E9EF15F042C0D9FF43C007
:102BB800DAFFDF50446E424A432A40C0D9FF41C081
:102BC800DAFF44C0DFFF404A412A3E06D8A03F064C
:102BD8003E2806E13F28D8A4F4EF15F0F6EF15F0EB
:102BE800D9EF15F01200476E44A4FDEF15F0FFEF82
:102BF80015F004EF16F0000E3A6E4750A8EC13F0EB
:102C080044A209EF16F00BEF16F010EF16F0010EC4
:102C18003A6E4750A8EC13F0700E4724456E466A8A
:102C28000F0E462245C0D9FF46C0DAFF44C0DFFF79
:102C38001200000EEEEC12F050EC0CF0FAEC07F07B
:102C4800200E34602AEF16F02CEF16F02EEF16F057
:102C580022EF16F06DA233EF16F035EF16F037EFCE
:102C680016F022EF16F054EC04F022EF16F007EFFE
:102C780000F0000E306E000E496E740E486E000EA5
:102C88004A6E000E4B6E000E4D6E000E4C6E56ECEA
:102C980014F06D92699452EF16F0689468B457EF87
:102CA80016F059EF16F051EF16F0000E276E1200CD
:102CB800010E0F26000E1022112212223050D8A425
:102CC80068EF16F06AEF16F074EF16F0272A27500F
:102CD800D8A471EF16F073EF16F074EF16F02768AA
:102CE8001200698468986D82010E306E000E276E9E
:102CF800000E496E750E486E000E4A6E000E4B6E41
:102D0800000E4D6E000E4C6E56EC14F012003A6E2A
:102D18003A50D8A492EF16F094EF16F09DEF16F003
:102D2800010EC26EC150F00B0509C16E3C0EC06E9B
:102D3800C08E120000EE01F0390EEE6AE806FDE1E1
:102D48005B905B92000EF86E00011DEF16F0000E0E
:102D58001B6E000E1C6E1A0E446E010EF7EC15F079
:082D6800120006005B9211004D
:020000040020DA
:08000000FFFFFFFFFFFFFFFF00
:020000040030CA
:0E000000240E3F1EFF8181FF0FC00FE00F4056
:00000001FF
