:0400000007EF00F016
:0A0008005F8244ED1DF013EF1DF0C0
:1008000000A00836087C085A0805010905A1011551
:100810000025017501951C05091901291C81029506
:10082000048101050126FF0046FF000930093175EA
:100830000895028102C02403520075006200620024
:10084000650072002000480065006C0069007800B7
:1008500020004C00610062007300090222000101C7
:1008600000C0320904000001030000000921110149
:100870000001222D000705810340000112034A00F8
:100880006F00790073007400690063006B0012014F
:10089000000200000008D804690201000102000102
:0508A00004030904003F
:1008A600200E5E6059EF04F05BEF04F05DEF04F09C
:1008B60083EF07F06DA262EF04F064EF04F066EFD9
:1008C60004F083EF07F0000176517711D8B46EEF8C
:1008D60004F070EF04F07BEF04F076C0D9FF77C028
:1008E600DAFFDFBE79EF04F07BEF04F083EF07F069
:1008F600020E64EC14F008040910D8B485EF04F075
:1009060089EF04F0516A512A8AEF04F0516A050111
:1009160000515118FE0B5118006F020E64EC14F0D2
:10092600020E08180910D8B49BEF04F09FEF04F0EC
:10093600516A512AA0EF04F0516A5146050100514F
:100946005118FD0B5118006F020E64EC14F0030EE3
:1009560008180910D8B4B2EF04F0B6EF04F0516AE3
:10096600512AB7EF04F0516A51465146050100512C
:100976005118FB0B5118006F020E64EC14F0040EB4
:1009860008180910D8B4CAEF04F0CEEF04F0516A83
:10099600512ACFEF04F0516A51465146514605019E
:1009A60000515118F70B5118006F030E64EC14F048
:1009B60008040910D8B4E2EF04F0E6EF04F0516A37
:1009C600512AE7EF04F0516A513A050100515118D6
:1009D600EF0B5118006F030E64EC14F0020E0818AA
:1009E6000910D8B4F9EF04F0FDEF04F0516A512A6A
:1009F600FEEF04F0516A513A514605010051511873
:100A0600DF0B5118006F030E64EC14F0030E081888
:100A16000910D8B411EF05F015EF05F0516A512A07
:100A260016EF05F0516A513A5146514605010051FB
:100A36005118BF0B5118006F030E64EC14F0040E2E
:100A460008180910D8B42AEF05F02EEF05F0516A00
:100A5600512A2FEF05F0516A5132513205010051EA
:100A660051187F0B5118006F030E64EC14F0050E3D
:100A760008180910D8B442EF05F046EF05F0516AA0
:100A8600512A47EF05F0516A050101515118FE0B35
:100A96005118016F040E64EC14F008040910D8B460
:100AA60057EF05F05BEF05F0516A512A5CEF05F050
:100AB600516A5146050101515118FD0B5118016F3C
:100AC600040E64EC14F0020E08180910D8B46EEF88
:100AD60005F072EF05F0516A512A73EF05F0516A7D
:100AE60051465146050101515118FB0B5118016F32
:100AF600040E64EC14F0030E08180910D8B486EF3F
:100B060005F08AEF05F0516A512A8BEF05F0516A1C
:100B1600514651465146050101515118F70B5118DE
:100B2600016F040E64EC14F0040E08180910D8B412
:100B36009FEF05F0A3EF05F0516A512AA4EF05F0E7
:100B4600516A513A050101515118EF0B5118016FC5
:100B5600050E64EC14F008040910D8B4B5EF05F0DE
:100B6600B9EF05F0516A512ABAEF05F0516A513AC8
:100B76005146050101515118DF0B5118016F050E41
:100B860064EC14F0020E08180910D8B4CDEF05F085
:100B9600D1EF05F0516A512AD2EF05F0516A513A68
:100BA60051465146050101515118BF0B5118016FAD
:100BB600050E64EC14F0030E08180910D8B4E6EF1D
:100BC60005F0EAEF05F0516A512AEBEF05F0516A9C
:100BD600513251320501015151187F0B5118016FE5
:100BE600050E64EC14F0040E08180910D8B4FEEFD4
:100BF60005F002EF06F0516A512A03EF06F0516A3A
:100C0600050102515118FE0B5118026F060E64ECD5
:100C160014F008040910D8B413EF06F017EF06F025
:100C2600516A512A18EF06F0516A514605010251E0
:100C36005118FD0B5118026F060E64EC14F0020EEB
:100C460008180910D8B42AEF06F02EEF06F0516AFC
:100C5600512A2FEF06F0516A5146514605010251BD
:100C66005118FB0B5118026F060E64EC14F0030EBC
:100C760008180910D8B442EF06F046EF06F0516A9C
:100C8600512A47EF06F0516A514651465146050131
:100C960002515118F70B5118026F060E64EC14F04E
:100CA600040E08180910D8B45BEF06F05FEF06F0E3
:100CB600516A512A60EF06F0516A513A0501025114
:100CC6005118EF0B5118026F060E64EC14F0050E66
:100CD60008180910D8B472EF06F076EF06F0516ADC
:100CE600512A77EF06F0516A513A514605010251F1
:100CF6005118DF0B5118026F170E97EC18F0516E52
:100D0600513A51465146050102515118BF0B51182F
:100D1600026F180E97EC18F0516E513251320501E0
:100D2600025151187F0B5118026F190E97EC18F0EB
:100D3600516E050103515118FE0B5118036F1A0E1F
:100D460097EC18F0516E5146050103515118FD0BF1
:100D56005118036F1B0E97EC18F0516E5146514611
:100D6600050103515118FB0B5118036F1C0E97EC2C
:100D760018F0516E5146514651460501035151181E
:100D8600F70B5118036F000E336E400E346E170EBC
:100D9600356EC40E366ECD0E1A6ECC0E1B6E8C0ED4
:100DA6001C6E3F0E1D6E010E65EC1AF001C008F0B8
:100DB60002C009F00A6A0B6A000EDDEC0EF008C0EC
:100DC60016F009C017F00AC018F00BC019F0E4ECD1
:100DD60009F016C02FF017C030F018C031F019C056
:100DE60032F084EC07F02FC052F030C053F031C01F
:100DF60054F032C055F052C043F053C044F054C0D2
:100E060045F055C046F0000E3F6E000E406E7F0E58
:100E1600416E430E426E7EEC1CF03FC047F040C070
:100E260048F041C049F042C04AF026EC17F047505E
:100E36000501046F000E336EC00E346E410E356E22
:100E4600C40E366E660E1A6E660E1B6EE60E1C6EAF
:100E56003F0E1D6E000E65EC1AF001C008F002C0D0
:100E660009F00A6A0B6A000EDDEC0EF008C016F0F7
:100E760009C017F00AC018F00BC019F0E4EC09F02D
:100E860016C02FF017C030F018C031F019C032F07C
:100E960084EC07F02FC052F030C053F031C054F04C
:100EA60032C055F052C043F053C044F054C045F030
:100EB60055C046F0000E3F6E000E406E7F0E416E2E
:100EC600430E426E7EEC1CF03FC047F040C048F037
:100ED60041C049F042C04AF026EC17F047500501E0
:100EE600056F010E016E000E026E050E036E060EF4
:100EF600046E010EC5EC13F001C076F002C077F067
:100F060012003250800B3B6E325032243D6E31AEB1
:100F16008FEF07F091EF07F092EF07F03D803D501D
:100F2600D8B498EF07F09AEF07F0AFEF07F03D2837
:100F3600D8A4A0EF07F0A2EF07F0AAEF07F0000E83
:100F46002F6E000E306E000E316E000E326E318E38
:100F5600000E326EB7EF07F0000E2F6E000E306EE9
:100F6600000E316E000E326E3650800B3C6E3B50DA
:100F76003C18D8B4C1EF07F0C3EF07F0C4EF07F091
:100F86003B8C365036243C6E35AECCEF07F0CEEFB8
:100F960007F0CFEF07F03C803C50D8B4D5EF07F010
:100FA600D7EF07F0ECEF07F03C28D8A4DDEF07F009
:100FB600DFEF07F0E7EF07F0000E336E000E346E3A
:100FC600000E356E000E366E358E000E366EF4EF60
:100FD60007F0000E336E000E346E000E356E000EF6
:100FE600366E3D503C5CD8B0FBEF07F0FDEF07F0E6
:100FF60024EF08F03BAC02EF08F004EF08F006EF30
:1010060008F0800E3B1A3DC03EF03CC03DF03EC0AD
:101016003CF02FC03EF033C02FF03EC033F030C05E
:101026003EF034C030F03EC034F031C03EF035C042
:1010360031F03EC035F032C03EF036C032F03EC030
:1010460036F0000E3E6E3D503CC037F0386A375ED3
:10105600000E385A38BE39EF08F0385009E11A0E3A
:10106600375CD8A039EF08F03BEF08F072EF08F0D4
:101076002F50301031103210D8A444EF08F047EF4B
:1010860008F0010E48EF08F0000E3E6E000E2F6EBF
:10109600000E306E000E316E000E326E3CC03DF01A
:1010A6007BEF08F03EA05AEF08F05CEF08F062EF25
:1010B60008F0D8903E3001093E6E64EF08F0D890F3
:1010C6003E322FA069EF08F06BEF08F06CEF08F0E6
:1010D6003E8E32343232313230322F323D2A3C505B
:1010E6003D5CD8A079EF08F07BEF08F055EF08F0EB
:1010F6003BBC80EF08F082EF08F0C2EF08F03D50ED
:10110600D8A488EF08F08AEF08F094EF08F0000EF4
:101116002F6E000E306E000E316E000E326EE3EF53
:1011260009F033502F2634503022355031223650B4
:10113600322232A0A1EF08F0A3EF08F04FEF09F03A
:101146003EA0A8EF08F0AAEF08F0B0EF08F0D8909C
:101156003E3001093E6EB2EF08F0D8903E322FA025
:10116600B7EF08F0B9EF08F0BAEF08F03E8E323468
:101176003232313230322F323D2A4FEF09F03350BE
:101186002F5C34503058355031583250800A376E03
:101196003650800A3758D8B0D3EF08F0D5EF08F0AC
:1011A60000EF09F02F50335C376E30503458386EEC
:1011B60031503558396E325036583A6EFF0E372454
:1011C6002F6EFF0E3820306EFF0E3920316EFF0E67
:1011D6003A20326E800E3B1A3E6C3E50D8A4F6EF93
:1011E60008F0F8EF08F008EF09F0010E2F26000EC0
:1011F60030223122322208EF09F033502F5E34506C
:10120600305A3550315A3650325A2F50301031102C
:101216003210D8A411EF09F013EF09F048EF09F0E6
:101226003E50D8A419EF09F01BEF09F048EF09F07A
:10123600000E2F6E000E306E000E316E000E326EF6
:10124600E3EF09F0D8902F363036313632363EAEDF
:101256002FEF09F031EF09F032EF09F02F803EA0B1
:1012660037EF09F039EF09F03DEF09F0D8803E3647
:101276003FEF09F0D8903E363D50D8B445EF09F01F
:1012860047EF09F048EF09F03D0631AE4DEF09F0A2
:101296004FEF09F025EF09F0000E3C6E3EAE56EF1B
:1012A60009F058EF09F070EF09F03EC037F07F0EF5
:1012B6003716D8B461EF09F063EF09F067EF09F06C
:1012C600010E3C6E70EF09F02FA06CEF09F06EEF87
:1012D60009F070EF09F063EF09F03C50D8B476EFEF
:1012E60009F078EF09F0A3EF09F0010E2F26000EA2
:1012F60030223122322232A083EF09F085EF09F045
:10130600A3EF09F02FC037F030C038F031C039F004
:1013160032C03AF03A343A3239323832373237C09C
:101326002FF038C030F039C031F03AC032F03D28E5
:10133600D8B4A0EF09F0A2EF09F0A3EF09F03D2A17
:101346003D28D8B4A9EF09F0ABEF09F0B3EF09F0E7
:101356003D50D8A4B1EF09F0B3EF09F0C5EF09F09D
:10136600000E2F6E000E306E000E316E000E326EC5
:101376003D50D8A4C1EF09F0C3EF09F0C5EF09F05D
:10138600000E3B6E3DA0CAEF09F0CCEF09F0CFEF9F
:1013960009F0318ED0EF09F0319ED8903D30326E93
:1013A6003BAED8EF09F0DAEF09F0DBEF09F0328E49
:1013B6002FC02FF030C030F031C031F032C032F0E3
:1013C60012001950800B226E19501924286E18AE7F
:1013D600EFEF09F0F1EF09F0F2EF09F0288028505D
:1013E600D8B4F8EF09F0FAEF09F00DEF0AF0282863
:1013F600D8A400EF0AF002EF0AF00AEF0AF0000E96
:10140600166E000E176E000E186E000E196E188EF0
:1014160015EF0AF0000E166E000E176E000E186E0F
:10142600000E196E1D50800B221A1D501D24276EAA
:101436001CAE20EF0AF022EF0AF023EF0AF0278015
:101446002750D8B429EF0AF02BEF0AF03EEF0AF046
:101456002728D8A431EF0AF033EF0AF03BEF0AF061
:10146600000E1A6E000E1B6E000E1C6E000E1D6E18
:101476001C8E46EF0AF0000E1A6E000E1B6E000E52
:101486001C6E000E1D6E2750D8B44CEF0AF04EEFBE
:101496000AF056EF0AF02850D8A454EF0AF056EF97
:1014A6000AF060EF0AF0000E166E000E176E000EC0
:1014B600186E000E196EF8EF0BF01C501602F3CFE3
:1014C6002DF0F4CF2EF02D50236E246A256A266A5D
:1014D6002E50296E2A6A2B6A2C6A1B501702F3CFEC
:1014E6002DF0F4CF2EF02D502326000E2422252297
:1014F60026222E502926000E2A222B222C221A5072
:101506001802F3CF2DF0F4CF2EF02D502326000E27
:101516002422252226222E502926000E2A222B227C
:101526002C2225C026F024C025F023C024F0236AEF
:101536001A501702F3CF2DF0F4CF2EF02D5023269C
:101546002E502422000E2522000E26221B501602A3
:10155600F3CF2DF0F4CF2EF02D5023262E5024223B
:10156600000E2522000E262225C026F024C025F0D6
:1015760023C024F0236A1A501602F3CF2DF0F4CFBD
:101586002EF02D5023262E502422000E2522000E4A
:1015960026221C501702F3CF2DF0F4CF2EF02D503B
:1015A60029262E502A22000E2B22000E2C221B50FA
:1015B6001802F3CF2DF0F4CF2EF02D5029262E5001
:1015C6002A22000E2B22000E2C221C501802F3CFCA
:1015D6002DF0F4CF2EF02D501E6E2E501F6E206A69
:1015E600216A20C021F01FC020F01EC01FF01E6A15
:1015F6001E5029261F502A2220502B2221502C22F1
:1016060023C01EF024C01FF025C020F026C021F004
:10161600190E13EF0BF0D890213220321F321E32F2
:10162600E82E0EEF0BF01E5029261F502A222050BE
:101636002B2221502C2225C026F024C025F023C0C1
:1016460024F0236A275028C01EF01F6A1E26000EAB
:101656001F22820E1E242D6EFF0E1F202E6E49EFB6
:101666000BF0D89029362A362B362C3626AE3EEF8E
:101676000BF040EF0BF041EF0BF02980D8902336AA
:101686002436253626362D06D8A02E062BAE4EEF4E
:101696000BF050EF0BF034EF0BF0000E276E26AE7A
:1016A60057EF0BF059EF0BF07DEF0BF0FF0E231405
:1016B6001E6EFF0E24141F6EFF0E2514206E7F0E65
:1016C6002614216E1E501F1020102110D8B46EEF64
:1016D6000BF070EF0BF074EF0BF0010E276E7DEF41
:1016E6000BF029A079EF0BF07BEF0BF07DEF0BF001
:1016F60070EF0BF02750D8B483EF0BF085EF0BF0AB
:10170600A9EF0BF0010E2926000E2A222B222C22ED
:101716002CA090EF0BF092EF0BF0A9EF0BF029C085
:101726001EF02AC01FF02BC020F02CC021F021345F
:10173600213220321F321E321EC029F01FC02AF06D
:1017460020C02BF021C02CF02D4A2E2A2EBEB4EF3D
:101756000BF02E5008E12D28D8A0B4EF0BF0B6EF11
:101766000BF0C0EF0BF0000E296E000E2A6E800EF5
:101776002B6E7F0E2C6EEEEF0BF02EBECDEF0BF028
:101786002E5006E12D04D8B0CBEF0BF0CDEF0BF0C9
:10179600D9EF0BF0000E296E000E2A6E000E2B6E8E
:1017A600000E2C6E000E226EEEEF0BF02DC028F010
:1017B600FF0E2916FF0E2A167F0E2B16000E2C166C
:1017C60028A0E8EF0BF0EAEF0BF0EBEF0BF02B8E17
:1017D600D89028302C6E22502C1229C016F02AC020
:1017E60017F02BC018F02CC019F0120004012205C6
:1017F600D8A400EF0CF002EF0CF020EF0CF0205113
:101806001F0B0009D8A40AEF0CF00CEF0CF020EF28
:101816000CF000016B8F030E04012119D8A416EFFA
:101826000CF018EF0CF01DEF0CF0010E0001886FA4
:1018360020EF0CF0000E0001886F04012251D8A49D
:1018460027EF0CF029EF0CF0A9EF0DF020511F0B3C
:10185600020AD8A431EF0CF033EF0CF0A9EF0DF02B
:1018660024510F0B0009D8B43BEF0CF03DEF0CF000
:10187600A9EF0DF024510F0B176E020E176046EFFD
:101886000CF048EF0CF0A9EF0DF0200E5E18D8A46E
:101896004FEF0CF051EF0CF0A9EF0DF000016B8F3C
:1018A600040124BF59EF0CF05BEF0CF078EF0CF05D
:1018B60024510F0B176E1750020D720EF324D96EBA
:1018C600000EF420DA6EDECF1CF0DDCF1DF02451C1
:1018D6000F0B176E186A780E1724D96E000E182093
:1018E600DA6EDF501B6E93EF0CF024510F0B176E60
:1018F6001750020D560EF324D96E000EF420DA6E40
:10190600DECF1CF0DDCF1DF024510F0B176E186AC9
:101916007A0E1724D96E000E1820DA6EDF501B6E71
:101926001BB098EF0CF09AEF0CF0A2EF0CF0FB0E48
:101936001C141C6EFF0E1D141D6EA7EF0CF0040E7A
:101946001C101C6E1D501D6E24BFACEF0CF0AEEFCC
:101956000CF0BFEF0CF024510F0B176E1750020D51
:10196600720EF324D96E000EF420DA6E1CC0DEFF70
:101976001DC0DDFFCEEF0CF024510F0B176E175074
:10198600020D560EF324D96E000EF420DA6E1CC03A
:10199600DEFF1DC0DDFF030E2119D8A4D5EF0CF024
:1019A600D7EF0CF011EF0DF01CC0D9FF1DC0DAFF08
:1019B600DFAEE0EF0CF0E2EF0CF003EF0DF024BF2A
:1019C600E7EF0CF0E9EF0CF0F7EF0CF024510F0BFA
:1019D600176E186A780E1724D96E000E1820DA6E64
:1019E6000001DF8203EF0DF024510F0B176E186A0A
:1019F6007A0E1724D96E000E1820DA6E0001DF82E7
:101A06001CC0D9FF1DC0DAFF000EDB841CC0D9FF45
:101A16001DC0DAFF000EDB8EA9EF0DF0040E1C18B8
:101A26001C6E1D501D6E1CC0D9FF1DC0DAFFDFAE37
:101A36001FEF0DF021EF0DF03DEF0DF01CC0D9FFAB
:101A46001DC0DAFF7F0EDF161CC0D9FF1DC0DAFFEE
:101A5600000EDB8C000E106E050E0F6E1CC011F012
:101A66001DC012F0000E146E020E136E17EC1AF063
:101A760043EF0DF01CC0D9FF1DC0DAFF000EDB8C52
:101A8600040E1C181C6E1D501D6E1BB24DEF0DF082
:101A96004FEF0DF05AEF0DF01CC0D9FF1DC0DAFF55
:101AA600DFAE58EF0DF05AEF0DF092EF0DF0040196
:101AB60024BF60EF0DF062EF0DF070EF0DF02451D2
:101AC6000F0B176E186A780E1724D96E000E1820A1
:101AD600DA6E0001DF927CEF0DF024510F0B176ECA
:101AE600186A7A0E1724D96E000E1820DA6E0001D5
:101AF600DF921CC0D9FF1DC0DAFF3B0EDF16000EB9
:101B0600106E050E0F6E1CC011F01DC012F0000EF7
:101B1600146E020E136E17EC1AF098EF0DF01CC03F
:101B2600D9FF1DC0DAFF3B0EDF16040124510F0B4F
:101B3600176E186A700E1724196E0F0E18201A6E7B
:101B460019C0D9FF1AC0DAFFFE0EDF1612005E506A
:101B5600D8A4B0EF0DF0B2EF0DF0C8EF0DF0000E07
:101B66006D6E000E696E160E6F6E9F0E6B6E7B0E9F
:101B7600696EBFEF0DF06D866DA6C4EF0DF0C6EF72
:101B86000DF0BEEF0DF0010E5E6E5E04D8A4CEEF32
:101B96000DF0D0EF0DF0DFEF0DF06DBAD5EF0DF0D3
:101BA600D7EF0DF0DFEF0DF0000E686E000E696ED8
:101BB60069806988020E5E6E68A4E4EF0DF0E6EFB8
:101BC6000DF0F0EF0DF069A4EBEF0DF0EDEF0DF079
:101BD600F0EF0DF06894A1EC1CF06DA2F5EF0DF09E
:101BE600F7EF0DF0FAEF0DF0A19ADCEF0EF068A01A
:101BF600FFEF0DF001EF0EF00DEF0EF069A006EF0E
:101C06000EF008EF0EF00DEF0EF0D9EC11F0040E09
:101C16005E6E689068A812EF0EF014EF0EF01DEFDE
:101C26000EF069A819EF0EF01BEF0EF01DEF0EF087
:101C3600FCEC1CF068AC22EF0EF024EF0EF050EF37
:101C46000EF069AC29EF0EF02BEF0EF039EF0EF027
:101C5600000E106E730E0F6E000E116E000E126ED9
:101C6600000E146E010E136E17EC1AF0689CE2EC6F
:101C76001CF000018451D8B443EF0EF045EF0EF08E
:101C860046EF0EF084078451D8A44CEF0EF04EEFC9
:101C96000EF050EF0EF0A9EC17F068AA55EF0EF013
:101CA60057EF0EF060EF0EF069AA5CEF0EF05EEFF4
:101CB6000EF060EF0EF000EC1CF068A265EF0EF07F
:101CC60067EF0EF07DEF0EF069A26CEF0EF06EEF8F
:101CD6000EF07DEF0EF07F0E106E0F68000E116E87
:101CE600000E126E000E146E010E136E17EC1AF033
:101CF600000E6A6E040E5E6083EF0EF085EF0EF046
:101D060088EF0EF0A19ADCEF0EF069A68DEF0EF0CB
:101D16008FEF0EF0DBEF0EF0000E216E68A696EF49
:101D26000EF098EF0EF0DBEF0EF06CCF8DF00001A9
:101D36008D31E832E8320F0B866F68968DB5A6EFC7
:101D46000EF0A8EF0EF0B1EF0EF0780E8625D96EE4
:101D5600DA6A000EDA22DF70B8EF0EF07A0E862508
:101D6600D96EDA6A000EDA22DF708651D8A4BEEF89
:101D76000EF0C0EF0EF0C4EF0EF009EC19F0D2EF42
:101D86000EF0000E106E720E0F6E8D0E116E000E9E
:101D9600126E000E146E000E136E17EC1AF0212A46
:101DA600030E2164D9EF0EF0DBEF0EF091EF0EF08B
:101DB600A19A1200106E1050D8B4E4EF0EF0E6EFC0
:101DC6000EF008EF0FF00BBEEDEF0EF0EBEF0EF09E
:101DD60008EF0FF008C00CF009C00DF00AC00EF0B5
:101DE6000BC00FF00C1E0D1E0E1E0F1E0C2A000E31
:101DF6000D220E220F220CC012F00DC013F00EC0E1
:101E060014F00FC015F010EF0FF008C012F009C063
:101E160013F00AC014F00BC015F0085009100A1090
:101E26000B10D8A419EF0FF01BEF0FF025EF0FF0F2
:101E3600000E086E000E096E000E0A6E000E0B6E86
:101E4600B6EF0FF0960E116E2FEF0FF0112AD89005
:101E56001532143213321232000E12140C6E000EAA
:101E660013140D6E000E14140E6EFE0E15140F6E66
:101E76000C500D100E100F10D8A444EF0FF046EFC3
:101E86000FF029EF0FF054EF0FF0112A010E122672
:101E9600000E132214221522D89015321432133252
:101EA6001232000E12140C6E000E13140D6E000E7C
:101EB60014140E6EFF0E15140F6E0C500D100E102E
:101EC6000F10D8A469EF0FF06BEF0FF048EF0FF08B
:101ED60073EF0FF01106D8901236133614361536F6
:101EE60014BE78EF0FF07AEF0FF082EF0FF0020ECC
:101EF600116080EF0FF082EF0FF06DEF0FF011B071
:101F060087EF0FF089EF0FF08AEF0FF0149ED8904D
:101F1600113211C00CF00D6A0E6A0F6A0CC00FF078
:101F26000E6A0D6A0C6A0C5012120D5013120E50E6
:101F360014120F5015121050D8B4A4EF0FF0A6EFDC
:101F46000FF0AEEF0FF00BBEADEF0FF0ABEF0FF0F3
:101F5600AEEF0FF0158E12C008F013C009F014C0D2
:101F66000AF015C00BF0120001C00BF002C00CF015
:101F760005500610D8A4C2EF0FF0C4EF0FF0C6EF5D
:101F86000FF071EF10F00BC0D9FF0CC0DAFF03C0E1
:101F9600DFFF05500B24076E06500C20086EFF0E5F
:101FA6000724D96EFF0E0820DA6E03C0DFFF065045
:101FB60007E1030E055CD8B0E3EF0FF0E5EF0FF095
:101FC600E7EF0FF071EF10F020EE01F00B50D9267D
:101FD6000C50DA2203C0DFFF20EE02F00B50D926A8
:101FE6000C50DA2203C0DFFF05500B24076E0650A3
:101FF6000C20086EFE0E0724D96EFF0E0820DA6E3E
:1020060003C0DFFF05500B24076E06500C20086E38
:10201600FD0E0724D96EFF0E0820DA6E03C0DFFF1F
:10202600065007E1070E055CD8B01CEF10F01EEF56
:1020360010F020EF10F071EF10F020EE03F00B50CF
:10204600D9260C50DA2203C0DFFF05500B24076E99
:1020560006500C20086EFC0E0724D96EFF0E0820D1
:10206600DA6E03C0DFFF065007E1090E055CD8B043
:102076003FEF10F041EF10F043EF10F071EF10F06A
:102086000BC007F00CC008F0071E081E074A082AF6
:10209600030E0714096E0A6A09500B260A500C2211
:1020A6000950055E0A50065AFC0E0516FF0E061666
:1020B60068EF10F00BC0D9FF0CC0DAFF03C0DFFFDA
:1020C6000506D8A006060B4A0C2A05500610D8A409
:1020D6006FEF10F071EF10F05DEF10F012000401D9
:1020E60020511F0BE806D8B47BEF10F07DEF10F0FF
:1020F6007FEF10F028EF11F02451D8B485EF10F0DF
:1021060087EF10F089EF10F028EF11F0060E211975
:10211600D8A490EF10F092EF10F0CDEF10F0B4EFDE
:1021260010F000018F05D8A49BEF10F09DEF10F082
:10213600CDEF10F06C0E686F080E696F000E6D6FB4
:10214600090E6C6FC00E6B6FCDEF10F0090E00011B
:10215600686F080E696F000E6D6F2D0E6C6FA5EF20
:1021660010F02351016E026A0250000AD8B4BEEF85
:1021760010F0CDEF10F00150210AD8B494EF10F012
:10218600030AD8B4A9EF10F0010AD8B4CDEF10F0C5
:10219600CDEF10F004012039E832030BE806D8B47D
:1021A600D7EF10F0D9EF10F003EF11F028EF11F090
:1021B6008C0E0001686F000E696F000E6D6F010EC8
:1021C6006C6FC10E6B6F28EF11F0800E00016B6F04
:1021D60023C48CF028EF11F08B0E0001686F000EFF
:1021E600696F000E6D6F010E6C6F810E6B6F28EFBD
:1021F60011F0800E00016B6F22C48BF028EF11F0F6
:102206002151016E026A0250000AD8B40DEF11F096
:1022160028EF11F00150010AD8B428EF11F0030A93
:10222600D8B4DBEF10F0010AD8B4EFEF10F00A0AC9
:10223600D8B428EF11F0030AD8B4E8EF10F0010A79
:10224600D8B4FCEF10F028EF11F01200800E040154
:102256002019D8A431EF11F033EF11F0D8EF11F0B7
:10226600C00E00016B6FBEEF11F08E0E0001686F9D
:10227600080E696F000E6D6F120E6C6FD8EF11F0BD
:102286002251D8A449EF11F04BEF11F08CEF11F069
:102296002251020D070EF324F66E080EF420F76E97
:1022A6000900F5CF68F00A00F5CF69F0020E0001CB
:1022B6006825016E000E6921026E01C0F6FF02C09C
:1022C600F7FFF86A070EF76403D00800F55005D04B
:1022D600F6CFE1FFF7CFE2FFE75000016C6F030E88
:1022E6006825016E000E6921026E01C0F6FF02C06C
:1022F600F7FFF86A070EF76403D00800F55005D01B
:10230600F6CFE1FFF7CFE2FFE75000016D6FD8EFA0
:1023160011F0000E00016B6FD8EF11F0030E226171
:1023260097EF11F099EF11F08CEF11F02251020D99
:10233600010EF324F66E080EF420F76E0900F5CFB1
:1023460068F00A00F5CF69F068C0F6FF69C0F7FFCC
:10235600F86A070EF76403D00800F55005D0F6CFEB
:10236600E1FFF7CFE2FFE750016E015000016C6F0D
:102376006D6BD8EF11F004012351016E026A025011
:10238600000AD8B4C9EF11F08CEF11F00150010A20
:10239600D8B438EF11F0030AD8B443EF11F0010AAC
:1023A600D8B491EF11F08CEF11F01200A09A000E44
:1023B6006A6E000E686E000E706E710E016E0F0E64
:1023C600026E000E046E000E036E000E066E010E07
:1023D600056EB7EC0FF0160E6F6E9F0E6B6E7B0ED2
:1023E600696E000E0D6E0D50040D000EF324D96EAD
:1023F600040EF420DA6EDE6ADE6ADE6ADD6A0D2A13
:10240600070E0D6409EF12F00BEF12F0F6EF11F064
:102416006D8C000E6E6E6D986D9C6896000E0001B8
:102426006B6F000E636F000E656F000E646F68B60B
:102436001FEF12F021EF12F010EF12F0010E826F73
:10244600010E816F000E806F000E7F6F000E876F8A
:10245600000E0D6E0D50020D560EF324D96E000EB1
:10246600F420DA6E000EDE6E000EDD6E0D50020DEB
:10247600720EF324D96E000EF420DA6E000EDE6EB4
:10248600000EDD6E7A0E0D24D96EDA6A000EDA229F
:10249600000EDF6E780E0D24D96EDA6A000EDA228F
:1024A600000EDF6E0D2A010E0D645CEF12F05EEF7A
:1024B60012F02DEF12F0080E566E040E576E160E21
:1024C600706E040E0401036F200E026F080E016F7A
:1024D600040E006F008F000E00018F6F000E6E6FEE
:1024E600000E6F6F000E706F000E716F000E7E6F24
:1024F600000E5E6E12006D9800016BBF85EF12F044
:1025060087EF12F0CDEF12F063AF8CEF12F08EEF83
:1025160012F0A1EF12F0020E896F7F51D8A496EF48
:1025260012F098EF12F09AEF12F066EC19F0000E26
:102536000001816F000E826F22EF13F020EE01F092
:102546005A50D9265B50DA22080EDF6E20EE02F0D2
:102556005A50D9265B50DA22200EDE6E040EDD6E4E
:102566005AC0D9FF5BC0DAFF0C0EDF6E5AC0D9FF26
:102576005BC0DAFF000EDB8E56C0D9FF57C0DAFF0C
:10258600040EDF6E56C0D9FF57C0DAFF000EDB8E91
:1025960022EF13F0040120AFD3EF12F0D5EF12F0C3
:1025A600F3EF12F0010E0001896F8051D8A4DEEF1F
:1025B60012F0E0EF12F0E2EF12F066EC19F0000E06
:1025C6000001816F000E826F8351D8A4EDEF12F0E7
:1025D600EFEF12F022EF13F0A9EC17F022EF13F051
:1025E600020E0001896F20EE01F05A50D9265B5089
:1025F600DA22080EDF6E20EE02F05A50D9265B5022
:10260600DA22200EDE6E040EDD6E5AC0D9FF5BC0E4
:10261600DAFF040EDF6E5AC0D9FF5BC0DAFF000E88
:10262600DB8E000E816F000E826F8351D8A41EEFE1
:1026360013F020EF13F022EF13F0EFEF12F0120079
:1026460020EE01F05C50D9265D50DA22DF50026E92
:1026560002500001645D000E6559D8B035EF13F0E5
:1026660037EF13F039EF13F064C002F00250645FE5
:10267600000E655B000E016E50EF13F0280E01246C
:10268600D96EDA6A040EDA2260C0E1FF61C0E2FFA9
:10269600DFCFE7FF604B612B012A0250015CD8A017
:1026A60057EF13F059EF13F041EF13F06451651132
:1026B600D8B460EF13F062EF13F09BEF13F020EE47
:1026C60001F05A50D9265B50DA22080EDF6E20EE52
:1026D60002F05A50D9265B50DA22280EDE6E040E1E
:1026E600DD6E5CC0D9FF5DC0DAFFDFBC7DEF13F0A5
:1026F6007FEF13F08DEF13F05AC0D9FF5BC0DAFFFE
:10270600480EDF6E5AC0D9FF5BC0DAFF000EDB8EC3
:10271600C4EF13F05AC0D9FF5BC0DAFF080EDF6EB4
:102726005AC0D9FF5BC0DAFF000EDB8EC4EF13F090
:1027360020EE01F05A50D9265B50DA22080EDF6EE1
:1027460020EE02F05A50D9265B50DA22200EDE6EB9
:10275600040EDD6E5AC0D9FF5BC0DAFF040EDF6ED1
:102766005AC0D9FF5BC0DAFF000EDB8E639F835130
:10277600D8A4C0EF13F0C2EF13F0C4EF13F0A9EC26
:1027860017F01200096E0150D8B4CCEF13F0CEEF5B
:1027960013F0DCEF13F00950020D560EF324D96E38
:1027A600000EF420DA6EDECF0AF0DDCF0BF0E8EF94
:1027B60013F00950020D720EF324D96E000EF420A8
:1027C600DA6EDECF0AF0DDCF0BF00A500B10D8A47C
:1027D600EFEF13F0F1EF13F0F7EF13F0000E016EC9
:1027E600000E026E63EF14F020EE02F00A50D926B6
:1027F6000B50DA2202C0DEFF03C0DDFF20EE01F03F
:102806000A50D9260B50DA2204C0DFFF0AC0D9FFCE
:102816000BC0DAFF400EDF160AC0D9FF0BC0DAFF85
:10282600000EDB860AC0D9FF0BC0DAFF000EDB8E76
:102836000150D8B421EF14F023EF14F042EF14F056
:102846000950020D560EF324D96E000EF420DA6EEE
:10285600DECF05F0DDCF06F0040E0518076E065034
:10286600086E0950020D560EF324D96E000EF420A0
:10287600DA6E07C0DEFF08C0DDFF5FEF14F0095017
:10288600020D720EF324D96E000EF420DA6EDECF3E
:1028960005F0DDCF06F0040E0518076E0650086E2B
:1028A6000950020D720EF324D96E000EF420DA6E72
:1028B60007C0DEFF08C0DDFF0AC001F00BC002F052
:1028C60012000A6E0A5065EC1AF001C00BF002C045
:1028D6000CF00B04040E0C58D8B074EF14F076EF1D
:1028E60014F087EF14F0550E0B5C030E0C58D8A0AD
:1028F6007FEF14F081EF14F087EF14F0000E096EED
:10290600050E086EF9EF14F0550E0B5C030E0C580D
:10291600D8B090EF14F092EF14F0A3EF14F0AA0ED3
:102926000B5C020E0C58D8A09BEF14F09DEF14F030
:10293600A3EF14F0000E096E040E086EF9EF14F002
:10294600AA0E0B5C020E0C58D8B0ACEF14F0AEEF2A
:1029560014F0BEEF14F00B28010E0C58D8A0B6EFF9
:1029660014F0B8EF14F0BEEF14F0000E096E030E6B
:10297600086EF9EF14F00B28010E0C58D8B0C6EF0C
:1029860014F0C8EF14F0D9EF14F0540E0B5C010EDE
:102996000C58D8A0D1EF14F0D3EF14F0D9EF14F0FF
:1029A600000E096E020E086EF9EF14F0540E0B5C61
:1029B600010E0C58D8B0E2EF14F0E4EF14F0F5EF86
:1029C60014F00C5009E1A90E0B5CD8A0EDEF14F041
:1029D600EFEF14F0F5EF14F0000E096E010E086E1D
:1029E600F9EF14F0000E096E000E086E1200000ECC
:1029F6000401286F000E296F61EF15F000016B8F3F
:102A06008805D8A409EF15F00BEF15F07BEF15F04C
:102A1600040128837BEF15F000016B8F7BEF15F027
:102A260000016B8F040124510F0B0009D8B41EEF6F
:102A360015F020EF15F07BEF15F024BF25EF15F00C
:102A460027EF15F038EF15F024510F0B016E0150EA
:102A5600020D720EF324D96E000EF420DA6EDECF6C
:102A660003F0DDCF04F047EF15F024510F0B016E94
:102A76000150020D560EF324D96E000EF420DA6EC4
:102A8600DECF03F0DDCF04F003C0D9FF04C0DAFFC8
:102A9600DFAE50EF15F052EF15F07BEF15F003C0E7
:102AA600D9FF04C0DAFFDFA45BEF15F05DEF15F088
:102AB6007BEF15F0010E286F7BEF15F020511F0BF1
:102AC600016E026A0250000AD8B46CEF15F07BEF73
:102AD60015F00150000AD8B401EF15F0010AD8B478
:102AE6000FEF15F0030AD8B413EF15F07BEF15F0CE
:102AF60000016BAF81EF15F083EF15F08AEF15F04B
:102B0600280E686F040E696F6B81020E6C6F1200DF
:102B160004012039E832030B0009D8B495EF15F00B
:102B260097EF15F0E0EF15F019EF16F000016B8F37
:102B3600080E5E6E19EF16F029EC11F019EF16F07B
:102B460022EC18F019EF16F08F0E0001686F000ED8
:102B5600696F6B81010E6C6F6B8F19EF16F0FAECD3
:102B660014F019EF16F0F9EC0BF019EF16F08E0EC3
:102B760024250001686F696B000E6923ACEF15F020
:102B860000016B8F8E0E04012425D96EDA6A000EC1
:102B9600DA2222C4DFFF19EF16F0000E106E020EC5
:102BA6000F6E000E116E000E126E000E146E000EE9
:102BB600136E17EC1AF019EF16F021511E6E1F6AEC
:102BC6001F50000AD8B4EAEF15F019EF16F01E50A0
:102BD600000AD8B4B2EF15F0010AD8B4B6EF15F072
:102BE600020AD8B4B6EF15F0060AD8B499EF15F074
:102BF600030AD8B49FEF15F0010AD8B4D0EF15F048
:102C06000F0AD8B4A7EF15F0010AD8B4A3EF15F050
:102C1600030AD8B4BAEF15F0010AD8B4C3EF15F019
:102C2600070AD8B419EF16F019EF16F01200080EBD
:102C3600016E00016D5107E1080E6C5DD8B026EFFC
:102C460016F028EF16F040EF16F06CC001F08A512E
:102C5600D8A430EF16F032EF16F036EF16F0010E6C
:102C66008A6F40EF16F08A05D8A43CEF16F03EEFC7
:102C760016F040EF16F0020E8A6F01506C5F000EE0
:102C86006D5B20EE01F05650D9265750DA2201C06E
:102C9600DFFF280E7C6F040E7D6F6BB155EF16F0CB
:102CA60057EF16F099EF16F074EF16F068C0F6FFBE
:102CB60069C0F7FFF86A7CC0D9FF7DC0DAFF070E4E
:102CC600F76403D00800F55005D0F6CFE1FFF7CF43
:102CD600E2FFE750DF6E0001684B692B7C4B7D2BD2
:102CE60001060150D8A47AEF16F07CEF16F059EFE2
:102CF60016F0A1EF16F068C0F6FF69C0F7FFF86A94
:102D06007CC0D9FF7DC0DAFF070EF76403D0080048
:102D1600F55005D0F6CFE1FFF7CFE2FFE750DF6EC3
:102D26000001684B692B7C4B7D2B01060150D8A412
:102D36009FEF16F0A1EF16F07EEF16F0120056C0C8
:102D4600D9FF57C0DAFF000EDFBC010E026E040E7B
:102D56005618566E5750576E080E5E18D8A4B6EF22
:102D660016F0B8EF16F0CAEF16F0040122517F0BE9
:102D76006E6E6E50D8B4C2EF16F0C4EF16F0C8EF00
:102D860016F0100E5E6ECAEF16F0040E5E6E0001AF
:102D96008905D8A4D1EF16F0D3EF16F01BEF17F084
:102DA60020EE02F05650D9265750DA22280EDE6E53
:102DB600040EDD6E1AEC16F0020E00018A19D8A474
:102DC600E7EF16F0E9EF16F0F7EF16F056C0D9FF69
:102DD60057C0DAFF040EDF6E56C0D9FF57C0DAFFC0
:102DE600000EDB8E25EF17F00250D8A4FDEF16F08B
:102DF600FFEF16F00DEF17F056C0D9FF57C0DAFFF8
:102E0600480EDF6E56C0D9FF57C0DAFF000EDB8EC4
:102E160025EF17F056C0D9FF57C0DAFF080EDF6E50
:102E260056C0D9FF57C0DAFF000EDB8E25EF17F02C
:102E360063AF20EF17F022EF17F023EF17F0639F31
:102E4600000E896F120049344A34506E5050D8A48F
:102E56002FEF17F031EF17F03BEF17F0000E476E2C
:102E6600000E486E000E496E000E4A6EA8EF17F06F
:102E760047C04BF048C04CF049C04DF04AC04EF038
:102E8600200E4BEF17F0D8904E324D324C324B326B
:102E9600E82E46EF17F04B504F6E498EFF0E471641
:102EA600FF0E4816FF0E4916000E4A16960E505E85
:102EB60050BE62EF17F060EF17F078EF17F0505042
:102EC600800A970FD8B06AEF17F06CEF17F06EEF25
:102ED60017F031EF17F0D8904A324932483247326C
:102EE600503E6EEF17F090EF17F01F0E50647EEF16
:102EF60017F080EF17F088EF17F031EF17F0D89042
:102F06004736483649364A3650065050D8A48EEFD2
:102F160017F090EF17F082EF17F04F50D8B496EFF6
:102F260017F098EF17F0A0EF17F04A1E491E481E3B
:102F3600476C000E482249224A2247C047F048C043
:102F460048F049C049F04AC04AF0120000018251D7
:102F5600D8A4B0EF17F0B2EF17F021EF18F0010E7A
:102F6600826F8151D8A4BAEF17F0BCEF17F021EFAA
:102F760018F0010E816F020E8919D8A4C5EF17F05B
:102F8600C7EF17F0DDEF17F020EE01F05650D92607
:102F96005750DA22000EDF6E56C0D9FF57C0DAFF4F
:102FA600480EDF6E56C0D9FF57C0DAFF000EDB8E23
:102FB60021EF18F08905D8A4E3EF17F0E5EF17F035
:102FC60021EF18F0000E856F20EE01F05C50D92637
:102FD6005D50DA22080EDF6E20EE02F05C50D92634
:102FE6005D50DA22200EDE6E040EDD6E5CC0D9FF67
:102FF6005DC0DAFF040EDF6E5CC0D9FF5DC0DAFF8C
:10300600000EDB8E010E856F20EE01F05A50D92698
:103016005B50DA22080EDF6E20EE02F05A50D926F7
:103026005B50DA22200EDE6E040EDD6E5AC0D9FF2A
:103036005BC0DAFF800EDF6E21EF18F01200000190
:103046006B8F710E016E0F0E026E000E046E000E77
:10305600036E000E066E010E056EB7EC0FF0000E45
:10306600016E040E026E000E046E000E036E000E5C
:10307600066E200E056EB7EC0FF06D8C000E176E07
:103086007A0E1724D96EDA6A000EDA22000EDF6E87
:10309600780E1724D96EDA6A000EDA22000EDF6E79
:1030A600172A010E17645AEF18F05CEF18F043EF79
:1030B60018F08E0E016E000E026E000E046E000EEB
:1030C600036E000E066E010E056EB7EC0FF06D9CDA
:1030D600080E566E040E576E000E5C6E040E5D6E84
:1030E6005CC05AF05DC05BF022C48FF000018F51C6
:1030F600D8A480EF18F082EF18F086EF18F0100EC3
:103106005E6E96EF18F0000E106E010E0F6E8F0EAB
:10311600116E000E126E000E146E010E136E17EC79
:103126001AF0200E5E6E1200036EDFEF18F082AC0E
:103136009FEF18F0A2EF18F0010EA3EF18F0000EA3
:1031460008EF19F082AEAAEF18F0ADEF18F0010EF5
:10315600AEEF18F0000E08EF19F083A8B5EF18F0DF
:10316600B8EF18F0010EB9EF18F0000E08EF19F0DD
:1031760083AAC0EF18F0C3EF18F0010EC4EF18F0E1
:10318600000E08EF19F083ACCBEF18F0CEEF18F075
:10319600010ECFEF18F0000E08EF19F083AED6EF50
:1031A60018F0D9EF18F0010EDAEF18F0000E08EF5C
:1031B60019F0000E08EF19F00350016E026A025072
:1031C600000AD8B4E9EF18F0DCEF18F00150000A55
:1031D600D8B4DCEF18F0170AD8B49AEF18F00F0A33
:1031E600D8B4A5EF18F0010AD8B4B0EF18F0030A66
:1031F600D8B4BBEF18F0010AD8B4C6EF18F0070A26
:10320600D8B4D1EF18F0DCEF18F012002D0E000143
:10321600846F8DC020F0FD0E2016D8A415EF19F08E
:1032260017EF19F059EF19F08DC020F0D890203221
:103236003F0E20162050040D000EF3245C6E040E83
:10324600F4205D6E5CC05AF05DC05BF0040E5A1847
:103256005A6E5B505B6E5CC0D9FF5DC0DAFFDF3033
:10326600E8320F0B0D0AD8A43BEF19F03DEF19F029
:1032760055EF19F0200E016E040E026E20EE02F0DC
:103286005C50D9265D50DA22DECF03F0DDCF04F0A4
:10329600000E066E080E056E30EC1CF0FCEC1AF003
:1032A60065EF19F0C5EC1BF065EF19F08D51FD0BBC
:1032B600040AD8A461EF19F063EF19F065EF19F06D
:1032C600A2EC16F01200000E0001806F000E7F6F58
:1032D600020E8919D8A472EF19F074EF19F094EF61
:1032E60019F020EE01F05A50D9265B50DA22080E6A
:1032F600DF6E20EE02F05A50D9265B50DA22280EF5
:10330600DE6E040EDD6E5AC0D9FF5BC0DAFF480ED2
:10331600DF6E5AC0D9FF5BC0DAFF000EDB8EBEEF50
:1033260019F06C510401265D00016D510401275905
:10333600D8B0A0EF19F0A2EF19F0A6EF19F026C445
:103346006CF027C46DF01AEC16F020EE02F0565021
:10335600D9265750DA22280EDE6E040EDD6E56C0D0
:10336600D9FF57C0DAFF480EDF6E56C0D9FF57C0E7
:10337600DAFF000EDB8E1200086E000E096E040ED8
:103386000A6E0150026E036AD89002360336085060
:10339600046E056AD89004360536D890043605368C
:1033A60002500424066E03500520076ED890063698
:1033B6000736D890063607360650092607500A22E1
:1033C60009C0D9FF0AC0DAFFDF9E0150D8A4EEEF8C
:1033D60019F0F0EF19F0FEEF19F00850020D720E19
:1033E600F324D96E000EF420DA6E09C0DEFF0AC09F
:1033F600DDFF0AEF1AF00850020D560EF324D96EBF
:10340600000EF420DA6E09C0DEFF0AC0DDFF09C037
:10341600D9FF0AC0DAFFDF9C20EE04F00950D92656
:103426000A50DA22DF8C12002BEF1AF0010EB3ECF1
:103436001AF064EF1AF0020EB3EC1AF064EF1AF009
:1034460039EC1DF064EF1AF072EC10F064EF1AF02C
:103456000FC015F010C016F01650000AD8B43AEF97
:103466001AF07F0AD8B45DEF1AF064EF1AF015501F
:10347600010AD8B423EF1AF0030AD8B464EF1AF09D
:10348600010AD8B427EF1AF0060AD8B464EF1AF086
:10349600770AD8B464EF1AF0010AD8B464EF1AF0C8
:1034A600070AD8B41EEF1AF0010AD8B419EF1AF0B9
:1034B60064EF1AF01550FF0AD8B464EF1AF064EFFF
:1034C6001AF01200076E6CEF1AF001680268B2EF8C
:1034D6001AF00750036E046A0450000AD8B476EF57
:1034E6001AF068EF1AF00350000AD8B495EF1AF0F4
:1034F600010AD8B495EF1AF0030AD8B495EF1AF07A
:10350600010AD8B495EF1AF0070AD8B495EF1AF065
:10351600010AD8B495EF1AF0030AD8B495EF1AF059
:1035260068EF1AF007C003F003460346C2500318BB
:10353600C30B0318C26EC282C2B2A4EF1AF0A6EF82
:103546001AF09FEF1AF0C4CF05F0066A0550066E12
:10355600056AC350051205C001F006C002F012004C
:10356600066EE2EF1AF0170E86EC1BF0180E86ECCC
:103576001BF0190E86EC1BF01A0E86EC1BF01B0EC8
:1035860086EC1BF01C0E86EC1BF0000E26EC1DF0E4
:10359600000E44EC1BF0010E44EC1BF0020E44EC52
:1035A6001BF0030E44EC1BF0040E44EC1BF0050E5E
:1035B60044EC1BF0060E44EC1BF0FBEF1AF0065031
:1035C600046E056A0550000AD8B4ECEF1AF0FBEF5A
:1035D6001AF00450000AD8B4B6EF1AF0010AD8B4AB
:1035E600FBEF1AF0030AD8B4FBEF1AF0FBEF1AF060
:1035F6001200000E00018A6F000E836F000E806FAE
:10360600000E7F6F000E856F000E896F56C0D9FFC2
:1036160057C0DAFF7F0EDF16040E5618566E575047
:10362600576E56C0D9FF57C0DAFF7F0EDF16040E5D
:103636005618566E5750576E5AC0D9FF5BC0DAFF00
:103646007F0EDF16000E6B6F000E6D6F000E6C6F37
:10365600000E636F000E656F000E646F8BEC15F045
:10366600000E106E030E0F6E000E116E000E126E1F
:10367600000E146E000E136E17EC1AF07EEC12F0AC
:103686001200036E5CEF1BF0928085EF1BF09282B6
:1036960085EF1BF0928485EF1BF0928685EF1BF079
:1036A600928A85EF1BF0968085EF1BF0968285EF58
:1036B6001BF00350016E026A0250000AD8B466EF8E
:1036C6001BF085EF1BF00150000AD8B447EF1BF042
:1036D600010AD8B44AEF1BF0030AD8B44DEF1BF029
:1036E600010AD8B450EF1BF0070AD8B453EF1BF009
:1036F600010AD8B456EF1BF0030AD8B459EF1BF0F1
:1037060085EF1BF01200036E9BEF1BF0948CC4EF49
:103716001BF0948EC4EF1BF09588C4EF1BF0958ABE
:10372600C4EF1BF0958CC4EF1BF0958EC4EF1BF015
:103736000350016E026A0250000AD8B4A5EF1BF0CE
:10374600C4EF1BF00150000AD8B4C4EF1BF0170AEF
:10375600D8B489EF1BF00F0AD8B48CEF1BF0010A1E
:10376600D8B48FEF1BF0030AD8B492EF1BF0010A0E
:10377600D8B495EF1BF0070AD8B498EF1BF0C4EF46
:103786001BF01200020E00018919D8A4CDEF1BF020
:10379600CFEF1BF0D3EF1BF023EC13F0FFEF1BF082
:1037A600000E896F8551D8A4DBEF1BF0DDEF1BF00F
:1037B600FDEF1BF020EE01F05A50D9265B50DA22BD
:1037C600080EDF6E20EE02F05A50D9265B50DA2240
:1037D600200EDE6E040EDD6E5AC0D9FF5BC0DAFF26
:1037E6000C0EDF6E5AC0D9FF5BC0DAFF000EDB8E0F
:1037F600FFEF1BF0000E856F120070A005EF1CF0A6
:1038060007EF1CF02EEF1CF05CC0D9FF5DC0DAFF9D
:10381600800EDE18D8A412EF1CF014EF1CF02DEF6A
:103826001CF056C0D9FF57C0DAFF840EDE18D8A4A4
:103836001FEF1CF021EF1CF02DEF1CF05CC0D9FF30
:103846005DC0DAFF0C0EDF6E5CC0D9FF5DC0DAFF2B
:10385600000EDB8E7090689A120003C009F004C057
:103866000AF001C007F002C008F04AEF1CF009C0D8
:10387600D9FF0AC0DAFFDF500B6E094A0A2A07C0D1
:10388600D9FF08C0DAFF0BC0DFFF074A082A050682
:10389600D8A00606052806E10628D8A455EF1CF090
:1038A60057EF1CF03AEF1CF012000E6E0BA45EEF01
:1038B6001CF060EF1CF065EF1CF0000E016E0E5060
:1038C600BFEC19F00BA26AEF1CF06CEF1CF071EF65
:1038D6001CF0010E016E0E50BFEC19F0700E0E2496
:1038E6000C6E0D6A0F0E0D220CC0D9FF0DC0DAFF4B
:1038F6000BC0DFFF1200000E431A000E441A000E22
:10390600451A800E461A3FC02FF040C030F041C025
:1039160031F042C032F043C033F044C034F045C009
:1039260035F046C036F084EC07F02FC03FF030C0CB
:1039360040F031C041F032C042F01200000E0001EA
:10394600876F000E106E740E0F6E000E116E000E55
:10395600126E000E146E000E136E17EC1AF06D92B6
:103966006994B7EF1CF0689468B4BCEF1CF0BEEF26
:103976001CF0B6EF1CF0000E00017E6F1200000E68
:10398600B3EC1AF0D9EC11F0AAEC0DF0200E5E6043
:10399600CFEF1CF0D1EF1CF0D3EF1CF0C7EF1CF0FB
:1039A6006DA2D8EF1CF0DAEF1CF0DCEF1CF0C7EFCD
:1039B6001CF053EC04F0C7EF1CF007EF00F0010E0B
:1039C60000016E27000E6F23702371238751D8A440
:1039D600EFEF1CF0F1EF1CF0FBEF1CF07E2B7E519D
:1039E600D8A4F8EF1CF0FAEF1CF0FBEF1CF07E6990
:1039F6001200698468986D82010E0001876F000EBF
:103A06007E6F000E106E750E0F6E000E116E000E9C
:103A1600126E000E146E000E136E17EC1AF01200E2
:103A260000EE60F0300EEE6AE806FDE100EE56F0BC
:103A3600090EEE6AE806FDE15F905F92000EF86EF1
:103A46000001C2EF1CF0016E0150D8A42DEF1DF04D
:103A56002FEF1DF038EF1DF0010EC26EC150F00BB6
:103A66000509C16E3C0EC06EC08E1200000E00012C
:103A7600766F000E776F1A0E0B6E010E58EC1CF067
:083A8600120006005F9211001E
:020000040020DA
:08000000FFFFFFFFFFFFFFFF00
:020000040030CA
:0E000000240E3F1EFF8181FF0FC00FE00F4056
:00000001FF
