:0400000007EF00F016
:0A0008005B8270ED16F059EF16F060
:1008000000A00836087C085A0805010905A1011551
:100810000025017501951C05091901291C81029506
:10082000048101050126FF0046FF000930093175EA
:100830000895028102C02403520075006200620024
:10084000650072002000480065006C0069007800B7
:1008500020004C00610062007300090222000101C7
:1008600000C0320904000001030000000921110149
:100870000001222D000705810340000112034A00F8
:100880006F00790073007400690063006B0012014F
:10089000000200000008D804690201000102000102
:0508A00004030904003F
:1008A600200E346059EF04F05BEF04F05DEF04F0C6
:1008B600ECEF06F06DA262EF04F064EF04F066EF71
:1008C60004F0ECEF06F01B501C10D8B46DEF04F0EA
:1008D6006FEF04F07AEF04F01BC0D9FF1CC0DAFFFB
:1008E600DFBE78EF04F07AEF04F0ECEF06F0020ECC
:1008F6005AEC0EF041044210D8B484EF04F088EFAD
:1009060004F0466A462A89EF04F0466A050100515A
:100916004618FE0B4618006F020E5AEC0EF0020E39
:1009260041184210D8B49AEF04F09EEF04F0466ADC
:10093600462A9FEF04F0466A4646050100514618CE
:10094600FD0B4618006F020E5AEC0EF0030E41180E
:100956004210D8B4B1EF04F0B5EF04F0466A462A67
:10096600B6EF04F0466A464646460501005146186B
:10097600FB0B4618006F020E5AEC0EF0040E4118DF
:100986004210D8B4C9EF04F0CDEF04F0466A462A07
:10099600CEEF04F0466A46464646464605010051F5
:1009A6004618F70B4618006F030E5AEC0EF041047A
:1009B6004210D8B4E1EF04F0E5EF04F0466A462AA7
:1009C600E6EF04F0466A463A050100514618EF0B79
:1009D6004618006F030E5AEC0EF0020E4118421034
:1009E600D8B4F8EF04F0FCEF04F0466A462AFDEFAF
:1009F60004F0466A463A4646050100514618DF0BA2
:100A06004618006F030E5AEC0EF0030E4118421002
:100A1600D8B410EF05F014EF05F0466A462A15EF34
:100A260005F0466A463A46464646050100514618CE
:100A3600BF0B4618006F030E5AEC0EF0040E411859
:100A46004210D8B429EF05F02DEF05F0466A462A84
:100A56002EEF05F0466A4632463205010051461829
:100A66007F0B4618006F030E5AEC0EF0050E411868
:100A76004210D8B441EF05F045EF05F0466A462A24
:100A860046EF05F0466A050101514618FE0B461869
:100A9600016F040E5AEC0EF041044210D8B456EF22
:100AA60005F05AEF05F0466A462A5BEF05F0466AFE
:100AB6004646050101514618FD0B4618016F040E06
:100AC6005AEC0EF0020E41184210D8B46DEF05F044
:100AD60071EF05F0466A462A72EF05F0466A464609
:100AE6004646050101514618FB0B4618016F040ED8
:100AF6005AEC0EF0030E41184210D8B485EF05F0FB
:100B060089EF05F0466A462A8AEF05F0466A4646A8
:100B160046464646050101514618F70B4618016F31
:100B2600040E5AEC0EF0040E41184210D8B49EEF93
:100B360005F0A2EF05F0466A462AA3EF05F0466ADD
:100B4600463A050101514618EF0B4618016F050E8E
:100B56005AEC0EF041044210D8B4B4EF05F0B8EFE9
:100B660005F0466A462AB9EF05F0466A463A464611
:100B7600050101514618DF0B4618016F050E5AECA8
:100B86000EF0020E41184210D8B4CCEF05F0D0EFAB
:100B960005F0466A462AD1EF05F0466A463A4646C9
:100BA6004646050101514618BF0B4618016F050E52
:100BB6005AEC0EF0030E41184210D8B4E5EF05F0DA
:100BC600E9EF05F0466A462AEAEF05F0466A46323C
:100BD60046320501015146187F0B4618016F050E76
:100BE6005AEC0EF0040E41184210D8B4FDEF05F091
:100BF60001EF06F0466A462A02EF06F0466A05014C
:100C060002514618FE0B4618026F060E5AEC0EF0FD
:100C160041044210D8B412EF06F016EF06F0466A09
:100C2600462A17EF06F0466A46460501025146185F
:100C3600FD0B4618026F060E5AEC0EF0020E411816
:100C46004210D8B429EF06F02DEF06F0466A462A80
:100C56002EEF06F0466A46464646050102514618FC
:100C6600FB0B4618026F060E5AEC0EF0030E4118E7
:100C76004210D8B441EF06F045EF06F0466A462A20
:100C860046EF06F0466A4646464646460501025186
:100C96004618F70B4618026F060E5AEC0EF0040EB5
:100CA60041184210D8B45AEF06F05EEF06F0466AD5
:100CB600462A5FEF06F0466A463A05010251461893
:100CC600EF0B4618026F060E5AEC0EF0050E411891
:100CD6004210D8B471EF06F075EF06F0466A462A60
:100CE60076EF06F0466A463A464605010251461830
:100CF600DF0B4618026F170EF7EC11F0466E463AF8
:100D060046464646050102514618BF0B4618026F75
:100D1600180EF7EC11F0466E4632463205010251C6
:100D260046187F0B4618026F190EF7EC11F0466E47
:100D3600050103514618FE0B4618036F1A0EF7EC11
:100D460011F0466E4646050103514618FD0B46183E
:100D5600036F1B0EF7EC11F0466E4646464605013C
:100D660003514618FB0B4618036F1C0EF7EC11F0E7
:100D7600466E464646464646050103514618F70B5B
:100D86004618036F000EC1EC13F0D8903B323A328E
:100D9600D8903B323A323A500501046F010EC1EC4D
:100DA60013F0D8903B323A32D8903B323A323A502E
:100DB6000501056F010E3A6E000E3B6E050E3C6E88
:100DC600060E3D6E010EBBEC0DF03AC01BF03BC0AB
:100DD6001CF0120004012205D8A4F4EF06F0F6EF89
:100DE60006F010EF07F020511F0B0009D8A4FEEF04
:100DF60006F000EF07F010EF07F00C8E030E211936
:100E0600D8A408EF07F00AEF07F00EEF07F0010E7F
:100E1600316E10EF07F0000E316E2251D8A416EF96
:100E260007F018EF07F092EF08F020511F0B020AA7
:100E3600D8A420EF07F022EF07F092EF08F0245134
:100E46000F0B0009D8B42AEF07F02CEF07F092EF4A
:100E560008F024510F0B506E020E506035EF07F06C
:100E660037EF07F092EF08F0200E3418D8A43EEFC3
:100E760007F040EF07F092EF08F00C8E24BF46EF24
:100E860007F048EF07F065EF07F024510F0B506E9F
:100E96005050020D170EF324D96E000EF420DA6EB0
:100EA600DECF55F0DDCF56F024510F0B506E516A50
:100EB6001D0E5024D96E000E5120DA6EDF50546E8E
:100EC60080EF07F024510F0B506E5050020D130E99
:100ED600F324D96E000EF420DA6EDECF55F0DDCFA6
:100EE60056F024510F0B506E516A1F0E5024D96EC6
:100EF600000E5120DA6EDF50546E54B085EF07F0C5
:100F060087EF07F08FEF07F0FB0E5514556EFF0EB7
:100F16005614566E94EF07F0040E5510556E565043
:100F2600566E24BF99EF07F09BEF07F0ACEF07F082
:100F360024510F0B506E5050020D170EF324D96E2C
:100F4600000EF420DA6E55C0DEFF56C0DDFFBBEFA3
:100F560007F024510F0B506E5050020D130EF32460
:100F6600D96E000EF420DA6E55C0DEFF56C0DDFFE6
:100F7600030E2119D8A4C2EF07F0C4EF07F0FCEF67
:100F860007F055C0D9FF56C0DAFFDFAECDEF07F048
:100F9600CFEF07F0EEEF07F024BFD4EF07F0D6EF60
:100FA60007F0E3EF07F024510F0B506E516A1D0E48
:100FB6005024D96E000E5120DA6EDF82EEEF07F074
:100FC60024510F0B506E516A1F0E5024D96E000E1D
:100FD6005120DA6EDF8255C0D9FF56C0DAFF000E07
:100FE600DB8455C0D9FF56C0DAFF000EDB8E92EFC8
:100FF60008F0040E5518556E5650566E55C0D9FF5A
:1010060056C0DAFFDFAE0AEF08F00CEF08F028EF63
:1010160008F055C0D9FF56C0DAFF7F0EDF1655C05F
:10102600D9FF56C0DAFF000EDB8C000E496E050EA6
:10103600486E55C04AF056C04BF0000E4D6E020E7B
:101046004C6E73EC13F02EEF08F055C0D9FF56C066
:10105600DAFF000EDB8C040E5518556E5650566E90
:1010660054B238EF08F03AEF08F045EF08F055C0F3
:10107600D9FF56C0DAFFDFAE43EF08F045EF08F0C0
:101086007BEF08F0040124BF4BEF08F04DEF08F0AA
:101096005AEF08F024510F0B506E516A1D0E502462
:1010A600D96E000E5120DA6EDF9265EF08F02451FA
:1010B6000F0B506E516A1F0E5024D96E000E512030
:1010C600DA6EDF9255C0D9FF56C0DAFF3B0EDF1647
:1010D600000E496E050E486E55C04AF056C04BF0DC
:1010E600000E4D6E020E4C6E73EC13F081EF08F09D
:1010F60055C0D9FF56C0DAFF3B0EDF160401245156
:101106000F0B506E516A700E5024526E0F0E512006
:10111600536E52C0D9FF53C0DAFFFE0EDF1612001F
:101126003450D8A499EF08F09BEF08F0B1EF08F01F
:10113600000E6D6E000E696E160E6F6E9F0E6B6E54
:101146007B0E696EA8EF08F06D866DA6ADEF08F010
:10115600AFEF08F0A7EF08F0010E346E3404D8A400
:10116600B7EF08F0B9EF08F0C8EF08F06DBABEEFB8
:1011760008F0C0EF08F0C8EF08F0000E686E000E29
:10118600696E69806988020E346E68A4CDEF08F036
:10119600CFEF08F0D9EF08F069A4D4EF08F0D6EF46
:1011A60008F0D9EF08F06894F8EC15F06DA2DEEFC0
:1011B60008F0E0EF08F0E3EF08F0A19AC3EF09F0BA
:1011C60068A0E8EF08F0EAEF08F0F6EF08F069A08B
:1011D600EFEF08F0F1EF08F0F6EF08F0D7EC0BF0C0
:1011E600040E346E689068A8FBEF08F0FDEF08F077
:1011F60006EF09F069A802EF09F004EF09F006EF1F
:1012060009F030EC16F068AC0BEF09F00DEF09F0C1
:1012160038EF09F069AC12EF09F014EF09F022EF8C
:1012260009F0000E496E730E486E000E4A6E000EEF
:101236004B6E000E4D6E010E4C6E73EC13F0689CF7
:1012460017EC16F02D50D8B42BEF09F02DEF09F05E
:101256002EEF09F02D062D50D8A434EF09F036EF05
:1012660009F038EF09F00CEC11F068AA3DEF09F02F
:101276003FEF09F048EF09F069AA44EF09F046EF9D
:1012860009F048EF09F05AEC15F068A24DEF09F0A5
:101296004FEF09F065EF09F069A254EF09F056EF38
:1012A60009F065EF09F07F0E496E4868000E4A6E38
:1012B600000E4B6E000E4D6E010E4C6E73EC13F06D
:1012C600000E6A6E040E34606BEF09F06DEF09F0E4
:1012D60070EF09F0A19AC3EF09F069A675EF09F05E
:1012E60077EF09F0C2EF09F0000E5A6E68A67EEF9E
:1012F60009F080EF09F0C2EF09F06CCF37F0373014
:10130600E832E8320F0B2F6E689637B48DEF09F08E
:101316008FEF09F098EF09F01D0E2F24D96EDA6AC7
:10132600000EDA22DF709FEF09F01F0E2F24D96E10
:10133600DA6A000EDA22DF702F50D8A4A5EF09F082
:10134600A7EF09F0ABEF09F069EC12F0B9EF09F07D
:10135600000E496E720E486E370E4A6E000E4B6EC8
:10136600000E4D6E000E4C6E73EC13F05A2A030EEF
:101376005A64C0EF09F0C2EF09F079EF09F0A19ABB
:1013860012003AC044F03BC045F03E503F10D8A48E
:10139600CFEF09F0D1EF09F0D3EF09F07EEF0AF0B5
:1013A60044C0D9FF45C0DAFF3CC0DFFF3E504424AD
:1013B600406E3F504520416EFF0E4024D96EFF0E11
:1013C6004120DA6E3CC0DFFF3F5007E1030E3E5C72
:1013D600D8B0F0EF09F0F2EF09F0F4EF09F07EEF84
:1013E6000AF020EE01F04450D9264550DA223CC0DE
:1013F600DFFF20EE02F04450D9264550DA223CC0E9
:10140600DFFF3E504424406E3F504520416EFE0EA5
:101416004024D96EFF0E4120DA6E3CC0DFFF3E50FD
:101426004424406E3F504520416EFD0E4024D96E47
:10143600FF0E4120DA6E3CC0DFFF3F5007E1070E8A
:101446003E5CD8B029EF0AF02BEF0AF02DEF0AF038
:101456007EEF0AF020EE03F04450D9264550DA22FA
:101466003CC0DFFF3E504424406E3F504520416E55
:10147600FC0E4024D96EFF0E4120DA6E3CC0DFFF21
:101486003F5007E1090E3E5CD8B04CEF0AF04EEF34
:101496000AF050EF0AF07EEF0AF044C040F045C073
:1014A60041F0401E411E404A412A030E4014426E3E
:1014B600436A425044264350452242503E5E4350C2
:1014C6003F5AFC0E3E16FF0E3F1675EF0AF044C05B
:1014D600D9FF45C0DAFF3CC0DFFF3E06D8A03F0675
:1014E600444A452A3E503F10D8A47CEF0AF07EEFCE
:1014F6000AF06AEF0AF01200040120511F0BE806F9
:10150600D8B488EF0AF08AEF0AF08CEF0AF02EEFD3
:101516000BF02451D8B492EF0AF094EF0AF096EF4C
:101526000AF02EEF0BF0060E2119D8A49DEF0AF053
:101536009FEF0AF0D8EF0AF0BFEF0AF03904D8A4FB
:10154600A7EF0AF0A9EF0AF0D8EF0AF06C0E096EC1
:10155600080E0A6E000E0E6E090E0D6EC00E0C6E93
:10156600D8EF0AF0090E096E080E0A6E000E0E6E0E
:101576002D0E0D6EB1EF0AF023513A6E3B6A3B50C9
:10158600000AD8B4C9EF0AF0D8EF0AF03A50210A97
:10159600D8B4A1EF0AF0030AD8B4B5EF0AF0010AED
:1015A600D8B4D8EF0AF0D8EF0AF02039E832030BA6
:1015B600E806D8B4E1EF0AF0E3EF0AF009EF0BF022
:1015C6002EEF0BF0360E096E000E0A6E000E0E6E32
:1015D600010E0D6EC10E0C6E2EEF0BF0800E0C6E12
:1015E60023C436F02EEF0BF0350E096E000E0A6E90
:1015F600000E0E6E010E0D6E810E0C6E2EEF0BF0B0
:10160600800E0C6E22C435F02EEF0BF021513A6E8F
:101616003B6A3B50000AD8B413EF0BF02EEF0BF0E9
:101626003A50010AD8B42EEF0BF0030AD8B4E5EF0E
:101636000AF0010AD8B4F7EF0AF00A0AD8B42EEF76
:101646000BF0030AD8B4F1EF0AF0010AD8B403EF9D
:101656000BF02EEF0BF01200800E04012019D8A417
:1016660037EF0BF039EF0BF0D6EF0BF0C00E0C6E28
:10167600BDEF0BF08E0E096E080E0A6E000E0E6E92
:10168600120E0D6ED6EF0BF02251D8A44DEF0BF0D3
:101696004FEF0BF08DEF0BF02251020D070EF324E6
:1016A600F66E080EF420F76E0900F5CF09F00A0071
:1016B600F5CF0AF0020E09243A6E000E0A203B6EA0
:1016C6003AC0F6FF3BC0F7FFF86A070EF76403D08F
:1016D6000800F55005D0F6CFE1FFF7CFE2FFE7505F
:1016E6000D6E030E09243A6E000E0A203B6E3AC0B8
:1016F600F6FF3BC0F7FFF86A070EF76403D0080051
:10170600F55005D0F6CFE1FFF7CFE2FFE7500E6EBA
:10171600D6EF0BF0000E0C6ED6EF0BF0030E226127
:1017260097EF0BF099EF0BF08DEF0BF02251020DB6
:10173600010EF324F66E080EF420F76E0900F5CFBD
:1017460009F00A00F5CF0AF009C0F6FF0AC0F7FF54
:10175600F86A070EF76403D00800F55005D0F6CFF7
:10176600E1FFF7CFE2FFE7503A6E3A500D6E0E6A90
:10177600D6EF0BF023513A6E3B6A3B50000AD8B4C1
:10178600C7EF0BF08DEF0BF03A50010AD8B43DEFDE
:101796000BF0030AD8B447EF0BF0010AD8B491EF67
:1017A6000BF08DEF0BF01200A09A000E6A6E000E81
:1017B600686E000E706E710E3A6E0F0E3B6E000E66
:1017C6003D6E000E3C6E000E3F6E010E3E6EC4EC8A
:1017D60009F0160E6F6E9F0E6B6E7B0E696E000E15
:1017E600466E4650040D000EF324D96E040EF42006
:1017F600DA6EDE6ADE6ADE6ADD6A462A070E46644D
:1018060007EF0CF009EF0CF0F4EF0BF06D8C000E07
:101816006E6E6D986D9C6896000E0C6E000E046ED2
:10182600000E066E000E056E68B61CEF0CF01EEF7D
:101836000CF00EEF0CF0010E2B6E010E2A6E000E50
:10184600296E000E286E000E306E000E466E465053
:10185600020D130EF324D96E000EF420DA6E000E7C
:10186600DE6E000EDD6E4650020D170EF324D96EA5
:10187600000EF420DA6E000EDE6E000EDD6E1F0E18
:101886004624D96EDA6A000EDA22000EDF6E1D0ECD
:101896004624D96EDA6A000EDA22000EDF6E462A78
:1018A600010E466459EF0CF05BEF0CF02AEF0CF0DA
:1018B600080E136E040E146E160E706E040E0401DE
:1018C600036F200E026F080E016F040E006F008F6B
:1018D600000E396E000E0F6E000E106E000E116EA9
:1018E600000E126E000E276E000E346E120020EEF1
:1018F60001F02550D9262650DA22DF503B6E3B50A8
:10190600055C000E0658D8B08BEF0CF08DEF0CF08E
:101916008FEF0CF005C03BF03B50055E000E065AFB
:10192600000E3A6EA6EF0CF0280E3A24D96EDA6A4B
:10193600040EDA2201C0E1FF02C0E2FFDFCFE7FFBB
:10194600014A022A3A2A3B503A5CD8A0ADEF0CF085
:10195600AFEF0CF097EF0CF005500610D8B4B6EFC9
:101966000CF0B8EF0CF0F1EF0CF020EE01F0235084
:10197600D9262450DA22080EDF6E20EE02F023501C
:10198600D9262450DA22280EDE6E040EDD6E25C01E
:10199600D9FF26C0DAFFDFBCD3EF0CF0D5EF0CF091
:1019A600E3EF0CF023C0D9FF24C0DAFF480EDF6E48
:1019B60023C0D9FF24C0DAFF000EDB8E1AEF0DF02C
:1019C60023C0D9FF24C0DAFF080EDF6E23C0D9FF7B
:1019D60024C0DAFF000EDB8E1AEF0DF020EE01F0C8
:1019E6002350D9262450DA22080EDF6E20EE02F0AC
:1019F6002350D9262450DA22200EDE6E040EDD6E28
:101A060023C0D9FF24C0DAFF040EDF6E23C0D9FF3E
:101A160024C0DAFF000EDB8E049E2C50D8A416EFED
:101A26000DF018EF0DF01AEF0DF00CEC11F012009E
:101A36006D980CBE21EF0DF023EF0DF068EF0DF061
:101A460004AE28EF0DF02AEF0DF03CEF0DF0020E7C
:101A5600326E2850D8A432EF0DF034EF0DF036EF89
:101A66000DF01DEC13F0000E2A6E000E2B6EBAEF71
:101A76000DF020EE01F02350D9262450DA22080E6C
:101A8600DF6E20EE02F02350D9262450DA22200EF3
:101A9600DE6E040EDD6E23C0D9FF24C0DAFF0C0E05
:101AA600DF6E23C0D9FF24C0DAFF000EDB8E13C021
:101AB600D9FF14C0DAFF040EDF6E13C0D9FF14C0BD
:101AC600DAFF000EDB8EBAEF0DF0040120AF6EEFE9
:101AD6000DF070EF0DF08CEF0DF0010E326E295007
:101AE600D8A478EF0DF07AEF0DF07CEF0DF01DEC39
:101AF60013F0000E2A6E000E2B6E2C50D8A486EF23
:101B06000DF088EF0DF0BAEF0DF00CEC11F0BAEF16
:101B16000DF0020E326E20EE01F02350D92624502D
:101B2600DA22080EDF6E20EE02F02350D92624506A
:101B3600DA22200EDE6E040EDD6E23C0D9FF24C02D
:101B4600DAFF040EDF6E23C0D9FF24C0DAFF000ED1
:101B5600DB8E000E2A6E000E2B6E2C50D8A4B6EF2C
:101B66000DF0B8EF0DF0BAEF0DF088EF0DF01200A2
:101B7600426E3A50D8B4C2EF0DF0C4EF0DF0D2EF7A
:101B86000DF04250020D130EF324D96E000EF42010
:101B9600DA6EDECF43F0DDCF44F0DEEF0DF04250DB
:101BA600020D170EF324D96E000EF420DA6EDECF86
:101BB60043F0DDCF44F043504410D8A4E5EF0DF0D8
:101BC600E7EF0DF0EDEF0DF0000E3A6E000E3B6EF6
:101BD60059EF0EF020EE02F04350D9264450DA2297
:101BE6003BC0DEFF3CC0DDFF20EE01F04350D926AE
:101BF6004450DA223DC0DFFF43C0D9FF44C0DAFFBC
:101C0600400EDF1643C0D9FF44C0DAFF000EDB8664
:101C160043C0D9FF44C0DAFF000EDB8E3A50D8B479
:101C260017EF0EF019EF0EF038EF0EF04250020DDE
:101C3600130EF324D96E000EF420DA6EDECF3EF0DA
:101C4600DDCF3FF0040E3E18406E3F50416E4250CD
:101C5600020D130EF324D96E000EF420DA6E40C086
:101C6600DEFF41C0DDFF55EF0EF04250020D170EAC
:101C7600F324D96E000EF420DA6EDECF3EF0DDCF0F
:101C86003FF0040E3E18406E3F50416E4250020D2A
:101C9600170EF324D96E000EF420DA6E40C0DEFF74
:101CA60041C0DDFF43C03AF044C03BF01200436E32
:101CB6004350C1EC13F03AC044F03BC045F0440435
:101CC600040E4558D8B06AEF0EF06CEF0EF07DEFBB
:101CD6000EF0550E445C030E4558D8A075EF0EF075
:101CE60077EF0EF07DEF0EF0000E426E050E416EA0
:101CF600EFEF0EF0550E445C030E4558D8B086EF54
:101D06000EF088EF0EF099EF0EF0AA0E445C020E6C
:101D16004558D8A091EF0EF093EF0EF099EF0EF024
:101D2600000E426E040E416EEFEF0EF0AA0E445CFA
:101D3600020E4558D8B0A2EF0EF0A4EF0EF0B4EFA5
:101D46000EF04428010E4558D8A0ACEF0EF0AEEFC9
:101D56000EF0B4EF0EF0000E426E030E416EEFEF82
:101D66000EF04428010E4558D8B0BCEF0EF0BEEF79
:101D76000EF0CFEF0EF0540E445C010E4558D8A07D
:101D8600C7EF0EF0C9EF0EF0CFEF0EF0000E426E69
:101D9600020E416EEFEF0EF0540E445C010E4558F4
:101DA600D8B0D8EF0EF0DAEF0EF0EBEF0EF04550AC
:101DB60009E1A90E445CD8A0E3EF0EF0E5EF0EF0C2
:101DC600EBEF0EF0000E426E010E416EEFEF0EF0DD
:101DD600000E426E000E416E1200000E0401286FC6
:101DE600000E296F52EF0FF00C8E3104D8A4FEEFCF
:101DF6000EF000EF0FF06CEF0FF028836CEF0FF092
:101E06000C8E6CEF0FF00C8E24510F0B0009D8B41A
:101E16000FEF0FF011EF0FF06CEF0FF024BF16EF7E
:101E26000FF018EF0FF029EF0FF024510F0B3A6E59
:101E36003A50020D170EF324D96E000EF420DA6E16
:101E4600DECF3CF0DDCF3DF038EF0FF024510F0B25
:101E56003A6E3A50020D130EF324D96E000EF4209A
:101E6600DA6EDECF3CF0DDCF3DF03CC0D9FF3DC0A1
:101E7600DAFFDFAE41EF0FF043EF0FF06CEF0FF03C
:101E86003CC0D9FF3DC0DAFFDFA44CEF0FF04EEFA8
:101E96000FF06CEF0FF0010E286F6CEF0FF0205172
:101EA6001F0B3A6E3B6A3B50000AD8B45DEF0FF049
:101EB6006CEF0FF03A50000AD8B4F7EF0EF0010AB3
:101EC600D8B403EF0FF0030AD8B406EF0FF06CEFA7
:101ED6000FF00CAE71EF0FF073EF0FF07AEF0FF01B
:101EE600280E096E040E0A6E0C80020E0D6E12008C
:101EF60004012039E832030B0009D8B485EF0FF04E
:101F060087EF0FF0CBEF0FF004EF10F00C8E080EFA
:101F1600346E04EF10F02FEC0BF004EF10F084ECAD
:101F260011F004EF10F0390E096E000E0A6E0C80E7
:101F3600010E0D6E0C8E04EF10F0F0EC0EF004EFB7
:101F460010F0EDEC06F004EF10F0380E2425096EC3
:101F56000A6A000E0A229AEF0FF00C8E380E24251C
:101F6600D96EDA6A000EDA2222C4DFFF04EF10F01F
:101F7600000E496E020E486E000E4A6E000E4B6E43
:101F8600000E4D6E000E4C6E73EC13F004EF10F065
:101F96002151576E586A5850000AD8B4D5EF0FF041
:101FA60004EF10F05750000AD8B4A0EF0FF0010A62
:101FB600D8B4A4EF0FF0020AD8B4A4EF0FF0060AC3
:101FC600D8B489EF0FF0030AD8B48EEF0FF0010AE8
:101FD600D8B4BBEF0FF00F0AD8B496EF0FF0010A92
:101FE600D8B492EF0FF0030AD8B4A8EF0FF0010AA5
:101FF600D8B4B0EF0FF0070AD8B404EF10F004EF2E
:1020060010F01200080E3A6E0E5007E1080E0D5C35
:10201600D8B010EF10F012EF10F02AEF10F00DC04C
:102026003AF03350D8A41AEF10F01CEF10F020EF5E
:1020360010F0010E336E2AEF10F03304D8A426EF09
:1020460010F028EF10F02AEF10F0020E336E3A501F
:102056000D5E000E0E5A20EE01F01350D9261450D4
:10206600DA223AC0DFFF280E216E040E226E0CB073
:102076003FEF10F041EF10F081EF10F05DEF10F040
:1020860009C0F6FF0AC0F7FFF86A21C0E1FF22C0C7
:10209600E2FF070EF76403D00800F55005D0F6CF2F
:1020A600D9FFF7CFDAFFDF50E76E094A0A2A214A3D
:1020B600222A3A063A50D8A463EF10F065EF10F0E2
:1020C60043EF10F089EF10F009C0F6FF0AC0F7FFE2
:1020D600F86A21C0E1FF22C0E2FF070EF76403D0D1
:1020E6000800F55005D0F6CFD9FFF7CFDAFFDF505D
:1020F600E76E094A0A2A214A222A3A063A50D8A401
:1021060087EF10F089EF10F067EF10F0120013C0A0
:10211600D9FF14C0DAFF000EDFBC010E3B6E040EC1
:102126001318136E1450146E080E3418D8A49EEFAC
:1021360010F0A0EF10F0B2EF10F0040122517F0B67
:102146006E6E6E50D8B4AAEF10F0ACEF10F0B0EF90
:1021560010F0100E346EB2EF10F0040E346E32042E
:10216600D8A4B8EF10F0BAEF10F001EF11F020EE9E
:1021760002F01350D9261450DA22280EDE6E040E11
:10218600DD6E05EC10F0020E3318D8A4CDEF10F07A
:10219600CFEF10F0DDEF10F013C0D9FF14C0DAFF57
:1021A600040EDF6E13C0D9FF14C0DAFF000EDB8EFB
:1021B6000BEF11F03B50D8A4E3EF10F0E5EF10F071
:1021C600F3EF10F013C0D9FF14C0DAFF480EDF6E2C
:1021D60013C0D9FF14C0DAFF000EDB8E0BEF11F02F
:1021E60013C0D9FF14C0DAFF080EDF6E13C0D9FF83
:1021F60014C0DAFF000EDB8E0BEF11F004AE06EF13
:1022060011F008EF11F009EF11F0049E000E326E86
:1022160012002B50D8A412EF11F014EF11F083EF37
:1022260011F0010E2B6E2A50D8A41CEF11F01EEFF0
:1022360011F083EF11F0010E2A6E020E3218D8A4A7
:1022460027EF11F029EF11F03FEF11F020EE01F02A
:102256001350D9261450DA22000EDF6E13C0D9FFB0
:1022660014C0DAFF480EDF6E13C0D9FF14C0DAFFC0
:10227600000EDB8E83EF11F03204D8A445EF11F087
:1022860047EF11F083EF11F0000E2E6E20EE01F0F5
:102296002550D9262650DA22080EDF6E20EE02F0EF
:1022A6002550D9262650DA22200EDE6E040EDD6E6B
:1022B60025C0D9FF26C0DAFF040EDF6E25C0D9FF80
:1022C60026C0DAFF000EDB8E010E2E6E20EE01F028
:1022D6002350D9262450DA22080EDF6E20EE02F0B3
:1022E6002350D9262450DA22200EDE6E040EDD6E2F
:1022F60023C0D9FF24C0DAFF800EDF6E83EF11F012
:1023060012000C8E710E3A6E0F0E3B6E000E3D6E75
:10231600000E3C6E000E3F6E010E3E6EC4EC09F0E0
:10232600000E3A6E040E3B6E000E3D6E000E3C6EC5
:10233600000E3F6E200E3E6EC4EC09F06D8C000E52
:10234600506E1F0E5024D96EDA6A000EDA22000E85
:10235600DF6E1D0E5024D96EDA6A000EDA22000EE8
:10236600DF6E502A010E5064BBEF11F0BDEF11F085
:10237600A4EF11F0380E3A6E000E3B6E000E3D6E65
:10238600000E3C6E000E3F6E010E3E6EC4EC09F070
:102396006D9C080E136E040E146E000E256E040E50
:1023A600266E25C023F026C024F022C439F0395009
:1023B600D8A4E0EF11F0E2EF11F0E6EF11F0100E05
:1023C600346EF6EF11F0000E496E010E486E390EAE
:1023D6004A6E000E4B6E000E4D6E010E4C6E73EC87
:1023E60013F0200E346E12003C6E3FEF12F082ACFA
:1023F600FFEF11F002EF12F0010E03EF12F0000EE4
:1024060068EF12F082AE0AEF12F00DEF12F0010E35
:102416000EEF12F0000E68EF12F083A815EF12F01F
:1024260018EF12F0010E19EF12F0000E68EF12F01D
:1024360083AA20EF12F023EF12F0010E24EF12F020
:10244600000E68EF12F083AC2BEF12F02EEF12F0B5
:10245600010E2FEF12F0000E68EF12F083AE36EF8A
:1024660012F039EF12F0010E3AEF12F0000E68EF9B
:1024760012F0000E68EF12F03C503A6E3B6A3B5089
:10248600000AD8B449EF12F03CEF12F03A50000AB5
:10249600D8B43CEF12F0170AD8B4FAEF11F00F0ACD
:1024A600D8B405EF12F0010AD8B410EF12F0030AFF
:1024B600D8B41BEF12F0010AD8B426EF12F0070ABF
:1024C600D8B431EF12F03CEF12F012002D0E2D6E43
:1024D60037C059F0FD0E5916D8A474EF12F076EFF6
:1024E60012F0B8EF12F037C059F0D89059323F0EBB
:1024F60059165950040D000EF324256E040EF420CF
:10250600266E25C023F026C024F0040E2318236E61
:102516002450246E25C0D9FF26C0DAFFDF30E8320A
:102526000F0B0D0AD8A49AEF12F09CEF12F0B4EF3D
:1025360012F0200E3A6E040E3B6E20EE02F025508D
:10254600D9262650DA22DECF3CF0DDCF3DF0000E54
:102556003F6E080E3E6E8AEC15F058EC14F0C4EF90
:1025660012F020EC15F0C4EF12F03750FD0B040A00
:10257600D8A4C0EF12F0C2EF12F0C4EF12F08AEC4A
:1025860010F01200416E000E426E040E436E3A5079
:102596003B6E3C6AD8903B363C3641503D6E3E6AB7
:1025A600D8903D363E36D8903D363E363B503D249B
:1025B6003F6E3C503E20406ED8903F364036D89015
:1025C6003F3640363F5042264050432242C0D9FF54
:1025D60043C0DAFFDF9E3A50D8A4F4EF12F0F6EFCC
:1025E60012F004EF13F04150020D170EF324D96ECA
:1025F600000EF420DA6E42C0DEFF43C0DDFF10EFAE
:1026060013F04150020D130EF324D96E000EF42080
:10261600DA6E42C0DEFF43C0DDFF42C0D9FF43C0D1
:10262600DAFFDF9C20EE04F04250D9264350DA222E
:10263600DF8C1200000E296E000E286E020E321874
:10264600D8A428EF13F02AEF13F04AEF13F020EE88
:1026560001F02350D9262450DA22080EDF6E20EE30
:1026660002F02350D9262450DA22280EDE6E040EFC
:10267600DD6E23C0D9FF24C0DAFF480EDF6E23C00B
:10268600D9FF24C0DAFF000EDB8E72EF13F00D5077
:102696000401265D0E502759D8B054EF13F056EFBB
:1026A60013F05AEF13F026C40DF027C40EF005EC14
:1026B60010F020EE02F01350D9261450DA22280E1C
:1026C600DE6E040EDD6E13C0D9FF14C0DAFF480EAD
:1026D600DF6E13C0D9FF14C0DAFF000EDB8E1200C6
:1026E60087EF13F0010E0FEC14F0C0EF13F0020E9B
:1026F6000FEC14F0C0EF13F066EC16F0C0EF13F019
:102706007FEC0AF0C0EF13F048C04EF049C04FF01E
:102716004F50000AD8B496EF13F07F0AD8B4B9EF39
:1027260013F0C0EF13F04E50010AD8B47FEF13F048
:10273600030AD8B4C0EF13F0010AD8B483EF13F03C
:10274600060AD8B4C0EF13F0770AD8B4C0EF13F076
:10275600010AD8B4C0EF13F0070AD8B47AEF13F021
:10276600010AD8B475EF13F0C0EF13F04E50FF0A0C
:10277600D8B4C0EF13F0C0EF13F01200406EC8EFEC
:1027860013F03A683B680EEF14F040503C6E3D6A19
:102796003D50000AD8B4D2EF13F0C4EF13F03C500A
:1027A600000AD8B4F1EF13F0010AD8B4F1EF13F030
:1027B600030AD8B4F1EF13F0010AD8B4F1EF13F01D
:1027C600070AD8B4F1EF13F0010AD8B4F1EF13F009
:1027D600030AD8B4F1EF13F0C4EF13F040C03CF095
:1027E6003C463C46C2503C18C30B3C18C26EC282E3
:1027F600C2B200EF14F002EF14F0FBEF13F0C4CFF7
:102806003EF03F6A3E503F6E3E6AC3503E123EC0A7
:102816003AF03FC03BF012003F6E3EEF14F0170E49
:10282600E1EC14F0180EE1EC14F0190EE1EC14F0E2
:102836001A0EE1EC14F01B0EE1EC14F01C0EE1ECA8
:1028460014F0000E46EC16F0000E9FEC14F0010E8C
:102856009FEC14F0020E9FEC14F0030E9FEC14F0A4
:10286600040E9FEC14F0050E9FEC14F0060E9FEC80
:1028760014F057EF14F03F503D6E3E6A3E50000A8A
:10288600D8B448EF14F057EF14F03D50000AD8B40E
:1028960012EF14F0010AD8B457EF14F0030AD8B4B3
:1028A60057EF14F057EF14F01200000E336E000EBF
:1028B6002C6E000E296E000E286E000E2E6E000E77
:1028C600326E13C0D9FF14C0DAFF7F0EDF16040E76
:1028D6001318136E1450146E13C0D9FF14C0DAFF08
:1028E6007F0EDF16040E1318136E1450146E23C0D9
:1028F600D9FF24C0DAFF7F0EDF16000E0C6E000E25
:102906000E6E000E0D6E000E046E000E066E000EAC
:10291600056E7BEC0FF0000E496E030E486E000E3E
:102926004A6E000E4B6E000E4D6E000E4C6E73EC32
:1029360013F01BEC0DF012003C6EB7EF14F0928012
:10294600E0EF14F09282E0EF14F09284E0EF14F0DE
:102956009286E0EF14F0928AE0EF14F09680E0EFB2
:1029660014F09682E0EF14F03C503A6E3B6A3B500E
:10297600000AD8B4C1EF14F0E0EF14F03A50000AA0
:10298600D8B4A2EF14F0010AD8B4A5EF14F0030AE4
:10299600D8B4A8EF14F0010AD8B4ABEF14F0070AC4
:1029A600D8B4AEEF14F0010AD8B4B1EF14F0030AAC
:1029B600D8B4B4EF14F0E0EF14F012003C6EF6EF6A
:1029C60014F0948C1FEF15F0948E1FEF15F0958878
:1029D6001FEF15F0958A1FEF15F0958C1FEF15F078
:1029E600958E1FEF15F03C503A6E3B6A3B50000A3D
:1029F600D8B400EF15F01FEF15F03A50000AD8B41E
:102A06001FEF15F0170AD8B4E4EF14F00F0AD8B484
:102A1600E7EF14F0010AD8B4EAEF14F0030AD8B4C9
:102A2600EDEF14F0010AD8B4F0EF14F0070AD8B4A9
:102A3600F3EF14F01FEF15F01200020E3218D8A4AF
:102A460027EF15F029EF15F02DEF15F07AEC0CF0C5
:102A560059EF15F0000E326E2E50D8A435EF15F052
:102A660037EF15F057EF15F020EE01F02350D92679
:102A76002450DA22080EDF6E20EE02F02350D9260B
:102A86002450DA22200EDE6E040EDD6E23C0D9FF3E
:102A960024C0DAFF0C0EDF6E23C0D9FF24C0DAFF94
:102AA600000EDB8E59EF15F0000E2E6E120070A090
:102AB6005FEF15F061EF15F088EF15F025C0D9FF2F
:102AC60026C0DAFF800EDE18D8A46CEF15F06EEF84
:102AD60015F087EF15F013C0D9FF14C0DAFF840E86
:102AE600DE18D8A479EF15F07BEF15F087EF15F017
:102AF60025C0D9FF26C0DAFF0C0EDF6E25C0D9FF30
:102B060026C0DAFF000EDB8E7090689A12003CC079
:102B160042F03DC043F03AC040F03BC041F0A4EF64
:102B260015F042C0D9FF43C0DAFFDF50446E424A77
:102B3600432A40C0D9FF41C0DAFF44C0DFFF404A04
:102B4600412A3E06D8A03F063E2806E13F28D8A4E3
:102B5600AFEF15F0B1EF15F094EF15F01200476ED8
:102B660044A4B8EF15F0BAEF15F0BFEF15F0000E5C
:102B76003A6E4750C5EC12F044A2C4EF15F0C6EF0A
:102B860015F0CBEF15F0010E3A6E4750C5EC12F07A
:102B9600700E4724456E466A0F0E462245C0D9FF81
:102BA60046C0DAFF44C0DFFF1200000E0FEC14F03F
:102BB600D7EC0BF093EC08F0200E3460E5EF15F03F
:102BC600E7EF15F0E9EF15F0DDEF15F06DA2EEEF8A
:102BD60015F0F0EF15F0F2EF15F0DDEF15F053EC10
:102BE60004F0DDEF15F007EF00F0000E306E000E7A
:102BF600496E740E486E000E4A6E000E4B6E000E45
:102C06004D6E000E4C6E73EC13F06D9269940DEFE1
:102C160016F0689468B412EF16F014EF16F00CEF85
:102C260016F0000E276E1200010E0F26000E10225F
:102C3600112212223050D8A423EF16F025EF16F0F9
:102C46002FEF16F0272A2750D8A42CEF16F02EEFD8
:102C560016F02FEF16F027681200698468986D82C7
:102C6600010E306E000E276E000E496E750E486E10
:102C7600000E4A6E000E4B6E000E4D6E000E4C6E30
:102C860073EC13F012003A6E3A50D8A44DEF16F0DA
:102C96004FEF16F058EF16F0010EC26EC150F00B52
:102CA6000509C16E3C0EC06EC08E120000EE01F02A
:102CB600390EEE6AE806FDE15B905B92000EF86E57
:102CC6000001D8EF15F0000E1B6E000E1C6E1A0EDA
:102CD600446E010EB2EC15F0120006005B92110074
:020000040020DA
:08000000FFFFFFFFFFFFFFFF00
:020000040030CA
:0E000000240E3F1EFF8181FF0FC00FE00F4056
:00000001FF
