:0400000007EF00F016
:0A0008005B82EEED12F0D7EF12F06C
:1008000000A2083108090855082803520075006441
:100810000064006500720020005000650064006103
:10082000006C002000530079007300740065006DB7
:10083000002403520075006200620065007200200F
:1008400000480065006C006900780020004C0061E1
:10085000006200730009022200010100C032090495
:10086000000001030000000921110100012219000C
:100870000705810340000105010905A10126FF00CC
:1008800046FF00093209330935750895038102C016
:100890001201000200000008D804670101000102F3
:0708A000000104030904003C
:1008A80004012205D8A45BEF04F05DEF04F077EFB4
:1008B80004F020511F0B0009D8A465EF04F067EF7E
:1008C80004F077EF04F00C8E030E2119D8A46FEF13
:1008D80004F071EF04F075EF04F0010E316E77EF5C
:1008E80004F0000E316E2251D8A47DEF04F07FEFA2
:1008F80004F0F9EF05F020511F0B020AD8A487EF86
:1009080004F089EF04F0F9EF05F024510F0B00090A
:10091800D8B491EF04F093EF04F0F9EF05F0245107
:100928000F0B506E020E50609CEF04F09EEF04F027
:10093800F9EF05F0200E3418D8A4A5EF04F0A7EFBE
:1009480004F0F9EF05F00C8E24BFADEF04F0AFEF23
:1009580004F0CCEF04F024510F0B506E5050020DF0
:10096800170EF324D96E000EF420DA6EDECF55F0A0
:10097800DDCF56F024510F0B506E516A1D0E5024D6
:10098800D96E000E5120DA6EDF50546EE7EF04F096
:1009980024510F0B506E5050020D130EF324D96ED4
:1009A800000EF420DA6EDECF55F0DDCF56F024517C
:1009B8000F0B506E516A1F0E5024D96E000E512035
:1009C800DA6EDF50546E54B0ECEF04F0EEEF04F042
:1009D800F6EF04F0FB0E5514556EFF0E5614566EC6
:1009E800FBEF04F0040E5510556E5650566E24BF9A
:1009F80000EF05F002EF05F013EF05F024510F0B9F
:100A0800506E5050020D170EF324D96E000EF420CC
:100A1800DA6E55C0DEFF56C0DDFF22EF05F0245127
:100A28000F0B506E5050020D130EF324D96E000EAA
:100A3800F420DA6E55C0DEFF56C0DDFF030E211923
:100A4800D8A429EF05F02BEF05F063EF05F055C0AA
:100A5800D9FF56C0DAFFDFAE34EF05F036EF05F008
:100A680055EF05F024BF3BEF05F03DEF05F04AEFE9
:100A780005F024510F0B506E516A1D0E5024D96E8B
:100A8800000E5120DA6EDF8255EF05F024510F0B6E
:100A9800506E516A1F0E5024D96E000E5120DA6E26
:100AA800DF8255C0D9FF56C0DAFF000EDB8455C07F
:100AB800D9FF56C0DAFF000EDB8EF9EF05F0040E01
:100AC8005518556E5650566E55C0D9FF56C0DAFFA8
:100AD800DFAE71EF05F073EF05F08FEF05F055C04D
:100AE800D9FF56C0DAFF7F0EDF1655C0D9FF56C0B2
:100AF800DAFF000EDB8C000E496E050E486E55C0FD
:100B08004AF056C04BF0000E4D6E020E4C6EDEECF5
:100B180010F095EF05F055C0D9FF56C0DAFF000E6A
:100B2800DB8C040E5518556E5650566E54B29FEF16
:100B380005F0A1EF05F0ACEF05F055C0D9FF56C0A0
:100B4800DAFFDFAEAAEF05F0ACEF05F0E2EF05F053
:100B5800040124BFB2EF05F0B4EF05F0C1EF05F0D2
:100B680024510F0B506E516A1D0E5024D96E000E81
:100B78005120DA6EDF92CCEF05F024510F0B506E46
:100B8800516A1F0E5024D96E000E5120DA6EDF9282
:100B980055C0D9FF56C0DAFF3B0EDF16000E496E6E
:100BA800050E486E55C04AF056C04BF0000E4D6E0B
:100BB800020E4C6EDEEC10F0E8EF05F055C0D9FFE0
:100BC80056C0DAFF3B0EDF16040124510F0B506E9E
:100BD800516A700E5024526E0F0E5120536E52C03F
:100BE800D9FF53C0DAFFFE0EDF1612003450D8A426
:100BF80000EF06F002EF06F018EF06F0000E6D6E3B
:100C0800000E696E160E6F6E9F0E6B6E7B0E696E10
:100C18000FEF06F06D866DA614EF06F016EF06F0DE
:100C28000EEF06F0010E346E3404D8A41EEF06F061
:100C380020EF06F02FEF06F06DBA25EF06F027EF4C
:100C480006F02FEF06F0000E686E000E696E6980E0
:100C58006988020E346E68A434EF06F036EF06F0A9
:100C680040EF06F069A43BEF06F03DEF06F040EFD9
:100C780006F0689476EC12F06DA245EF06F047EFA7
:100C880006F04AEF06F0A19A2AEF07F068A04FEFA6
:100C980006F051EF06F05DEF06F069A056EF06F09A
:100CA80058EF06F05DEF06F03EEC09F0040E346EE6
:100CB800689068A862EF06F064EF06F06DEF06F042
:100CC80069A869EF06F06BEF06F06DEF06F0AEEC81
:100CD80012F068AC72EF06F074EF06F09FEF06F0C2
:100CE80069AC79EF06F07BEF06F089EF06F0000EAD
:100CF800496E730E486E000E4A6E000E4B6E000E63
:100D08004D6E010E4C6EDEEC10F0689C95EC12F006
:100D18002D50D8B492EF06F094EF06F095EF06F058
:100D28002D062D50D8A49BEF06F09DEF06F09FEFFF
:100D380006F0DDEC0DF068AAA4EF06F0A6EF06F0C9
:100D4800AFEF06F069AAABEF06F0ADEF06F0AFEF34
:100D580006F0ADEC11F068A2B4EF06F0B6EF06F0BD
:100D6800CCEF06F069A2BBEF06F0BDEF06F0CCEFC2
:100D780006F07F0E496E4868000E4A6E000E4B6EF4
:100D8800000E4D6E010E4C6EDEEC10F0000E6A6E19
:100D9800040E3460D2EF06F0D4EF06F0D7EF06F079
:100DA800A19A2AEF07F069A6DCEF06F0DEEF06F05D
:100DB80029EF07F0000E5A6E68A6E5EF06F0E7EF98
:100DC80006F029EF07F06CCF37F03730E832E83219
:100DD8000F0B2F6E689637B4F4EF06F0F6EF06F0B7
:100DE800FFEF06F01D0E2F24D96EDA6A000EDA2204
:100DF800DF7006EF07F01F0E2F24D96EDA6A000E97
:100E0800DA22DF702F50D8A40CEF07F00EEF07F0AE
:100E180012EF07F0C8EC0EF020EF07F0000E496E55
:100E2800720E486E370E4A6E000E4B6E000E4D6EF7
:100E3800000E4C6EDEEC10F05A2A030E5A6427EFAF
:100E480007F029EF07F0E0EF06F0A19A12003AC088
:100E580044F03BC045F03E503F10D8A436EF07F0B1
:100E680038EF07F03AEF07F0E5EF07F044C0D9FF95
:100E780045C0DAFF3CC0DFFF3E504424406E3F507F
:100E88004520416EFF0E4024D96EFF0E4120DA6ED8
:100E98003CC0DFFF3F5007E1030E3E5CD8B057EF80
:100EA80007F059EF07F05BEF07F0E5EF07F020EEEA
:100EB80001F04450D9264550DA223CC0DFFF20EE2D
:100EC80002F04450D9264550DA223CC0DFFF3E509C
:100ED8004424406E3F504520416EFE0E4024D96E9A
:100EE800FF0E4120DA6E3CC0DFFF3E504424406EC6
:100EF8003F504520416EFD0E4024D96EFF0E412023
:100F0800DA6E3CC0DFFF3F5007E1070E3E5CD8B009
:100F180090EF07F092EF07F094EF07F0E5EF07F096
:100F280020EE03F04450D9264550DA223CC0DFFFBA
:100F38003E504424406E3F504520416EFC0E4024F4
:100F4800D96EFF0E4120DA6E3CC0DFFF3F5007E14B
:100F5800090E3E5CD8B0B3EF07F0B5EF07F0B7EF76
:100F680007F0E5EF07F044C040F045C041F0401EEF
:100F7800411E404A412A030E4014426E436A4250C1
:100F880044264350452242503E5E43503F5AFC0E91
:100F98003E16FF0E3F16DCEF07F044C0D9FF45C0F0
:100FA800DAFF3CC0DFFF3E06D8A03F06444A452A88
:100FB8003E503F10D8A4E3EF07F0E5EF07F0D1EF7C
:100FC80007F01200040120511F0BE806D8B4EFEF18
:100FD80007F0F1EF07F0F3EF07F095EF08F0245171
:100FE800D8B4F9EF07F0FBEF07F0FDEF07F095EF46
:100FF80008F0060E2119D8A404EF08F006EF08F04F
:101008003FEF08F026EF08F03904D8A40EEF08F0F7
:1010180010EF08F03FEF08F0670E096E080E0A6E31
:10102800000E0E6E090E0D6EC00E0C6E3FEF08F02E
:10103800770E096E080E0A6E000E0E6E190E0D6EF2
:1010480018EF08F023513A6E3B6A3B50000AD8B4B7
:1010580030EF08F03FEF08F03A50210AD8B408EF13
:1010680008F0030AD8B41CEF08F0010AD8B43FEF1F
:1010780008F03FEF08F02039E832030BE806D8B44F
:1010880048EF08F04AEF08F070EF08F095EF08F025
:10109800360E096E000E0A6E000E0E6E010E0D6EF3
:1010A800C10E0C6E95EF08F0800E0C6E23C436F05E
:1010B80095EF08F0350E096E000E0A6E000E0E6EE2
:1010C800010E0D6E810E0C6E95EF08F0800E0C6E01
:1010D80022C435F095EF08F021513A6E3B6A3B5037
:1010E800000AD8B47AEF08F095EF08F03A50010AF0
:1010F800D8B495EF08F0030AD8B44CEF08F0010A09
:10110800D8B45EEF08F00A0AD8B495EF08F0030ADD
:10111800D8B458EF08F0010AD8B46AEF08F095EF90
:1011280008F01200800E04012019D8A49EEF08F0E0
:10113800A0EF08F03DEF09F0C00E0C6E24EF09F0A7
:10114800900E096E080E0A6E000E0E6E120E0D6ECF
:101158003DEF09F02251D8A4B4EF08F0B6EF08F03B
:10116800F4EF08F02251020D070EF324F66E080E74
:10117800F420F76E0900F5CF09F00A00F5CF0AF060
:10118800020E09243A6E000E0A203B6E3AC0F6FFA2
:101198003BC0F7FFF86A070EF76403D00800F55064
:1011A80005D0F6CFE1FFF7CFE2FFE7500D6E030E53
:1011B80009243A6E000E0A203B6E3AC0F6FF3BC087
:1011C800F7FFF86A070EF76403D00800F55005D05A
:1011D800F6CFE1FFF7CFE2FFE7500E6E3DEF09F0E3
:1011E800000E0C6E3DEF09F0030E2261FEEF08F0D1
:1011F80000EF09F0F4EF08F02251020D010EF3247C
:10120800F66E080EF420F76E0900F5CF09F00A0013
:10121800F5CF0AF009C0F6FF0AC0F7FFF86A070E13
:10122800F76403D00800F55005D0F6CFE1FFF7CFFB
:10123800E2FFE7503A6E3A500D6E0E6A3DEF09F044
:1012480023513A6E3B6A3B50000AD8B42EEF09F09E
:10125800F4EF08F03A50010AD8B4A4EF08F0030AF2
:10126800D8B4AEEF08F0010AD8B4F8EF08F0F4EFFC
:1012780008F01200A09A000E6A6E000E686E000E4A
:10128800706E710E3A6E0F0E3B6E000E3D6E000EC4
:101298003C6E000E3F6E010E3E6E2BEC07F0160EF4
:1012A8006F6E9F0E6B6E7B0E696E000E466E46501B
:1012B800040D000EF324D96E040EF420DA6EDE6AF3
:1012C800DE6ADE6ADD6A462A070E46646EEF09F0BA
:1012D80070EF09F05BEF09F06D8C000E6E6E6D9883
:1012E8006D9C6896000E0C6E000E046E000E066E65
:1012F800000E056E68B683EF09F085EF09F075EF0B
:1013080009F0010E2B6E010E2A6E000E296E000EDA
:10131800286E000E306E000E466E4650020D130EFB
:10132800F324D96E000EF420DA6E000EDE6E000E85
:10133800DD6E4650020D170EF324D96E000EF42010
:10134800DA6E000EDE6E000EDD6E1F0E4624D96EBC
:10135800DA6A000EDA22000EDF6E1D0E4624D96E00
:10136800DA6A000EDA22000EDF6E462A010E4664A3
:10137800C0EF09F0C2EF09F091EF09F0080E136E03
:10138800040E146E160E706E040E0401036F200E08
:10139800026F080E016F040E006F008F000E396E89
:1013A800000E0F6E000E106E000E116E000E126E03
:1013B800000E276E000E346E120020EE01F025504C
:1013C800D9262650DA22DF503B6E3B50055C000ED2
:1013D8000658D8B0F2EF09F0F4EF09F0F6EF09F08B
:1013E80005C03BF03B50055E000E065A000E3A6EF3
:1013F8000DEF0AF0280E3A24D96EDA6A040EDA22C2
:1014080001C0E1FF02C0E2FFDFCFE7FF014A022A85
:101418003A2A3B503A5CD8A014EF0AF016EF0AF0CB
:10142800FEEF09F005500610D8B41DEF0AF01FEFC3
:101438000AF058EF0AF020EE01F02350D926245084
:10144800DA22080EDF6E20EE02F02350D92624504F
:10145800DA22280EDE6E040EDD6E25C0D9FF26C006
:10146800DAFFDFBC3AEF0AF03CEF0AF04AEF0AF085
:1014780023C0D9FF24C0DAFF480EDF6E23C0D9FF8E
:1014880024C0DAFF000EDB8E81EF0AF023C0D9FFFB
:1014980024C0DAFF080EDF6E23C0D9FF24C0DAFFAC
:1014A800000EDB8E81EF0AF020EE01F02350D926E2
:1014B8002450DA22080EDF6E20EE02F02350D926DF
:1014C8002450DA22200EDE6E040EDD6E23C0D9FF12
:1014D80024C0DAFF040EDF6E23C0D9FF24C0DAFF70
:1014E800000EDB8E049E2C50D8A47DEF0AF07FEF0F
:1014F8000AF081EF0AF0DDEC0DF012006D980CBED9
:1015080088EF0AF08AEF0AF0CFEF0AF004AE8FEF07
:101518000AF091EF0AF0A3EF0AF0020E326E28509B
:10152800D8A499EF0AF09BEF0AF09DEF0AF088EC37
:1015380010F0000E2A6E000E2B6E21EF0BF020EE3D
:1015480001F02350D9262450DA22080EDF6E20EE4F
:1015580002F02350D9262450DA22200EDE6E040E23
:10156800DD6E23C0D9FF24C0DAFF0C0EDF6E23C066
:10157800D9FF24C0DAFF000EDB8E13C0D9FF14C0D8
:10158800DAFF040EDF6E13C0D9FF14C0DAFF000EB5
:10159800DB8E21EF0BF0040120AFD5EF0AF0D7EF77
:1015A8000AF0F3EF0AF0010E326E2950D8A4DFEFEB
:1015B8000AF0E1EF0AF0E3EF0AF088EC10F0000E11
:1015C8002A6E000E2B6E2C50D8A4EDEF0AF0EFEF28
:1015D8000AF021EF0BF0DDEC0DF021EF0BF0020E1D
:1015E800326E20EE01F02350D9262450DA22080E5C
:1015F800DF6E20EE02F02350D9262450DA22200E86
:10160800DE6E040EDD6E23C0D9FF24C0DAFF040E9F
:10161800DF6E23C0D9FF24C0DAFF000EDB8E000E78
:101628002A6E000E2B6E2C50D8A41DEF0BF01FEF66
:101638000BF021EF0BF0EFEF0AF01200426E3A5078
:10164800D8B429EF0BF02BEF0BF039EF0BF0425029
:10165800020D130EF324D96E000EF420DA6EDECFDD
:1016680043F0DDCF44F045EF0BF04250020D170E6A
:10167800F324D96E000EF420DA6EDECF43F0DDCF0E
:1016880044F043504410D8A44CEF0BF04EEF0BF04D
:1016980054EF0BF0000E3A6E000E3B6EC0EF0BF0ED
:1016A80020EE02F04350D9264450DA223BC0DEFF38
:1016B8003CC0DDFF20EE01F04350D9264450DA2229
:1016C8003DC0DFFF43C0D9FF44C0DAFF400EDF163C
:1016D80043C0D9FF44C0DAFF000EDB8643C0D9FF00
:1016E80044C0DAFF000EDB8E3A50D8B47EEF0BF020
:1016F80080EF0BF09FEF0BF04250020D130EF32416
:10170800D96E000EF420DA6EDECF3EF0DDCF3FF06A
:10171800040E3E18406E3F50416E4250020D130EAB
:10172800F324D96E000EF420DA6E40C0DEFF41C00B
:10173800DDFFBCEF0BF04250020D170EF324D96EFB
:10174800000EF420DA6EDECF3EF0DDCF3FF0040E5F
:101758003E18406E3F50416E4250020D170EF32462
:10176800D96E000EF420DA6E40C0DEFF41C0DDFF06
:1017780043C03AF044C03BF01200000E0401286F49
:10178800000E296F23EF0CF00C8E3104D8A4CFEF94
:101798000BF0D1EF0BF03DEF0CF028833DEF0CF090
:1017A8000C8E3DEF0CF00C8E24510F0B0009D8B4B1
:1017B800E0EF0BF0E2EF0BF03DEF0CF024BFE7EFAA
:1017C8000BF0E9EF0BF0FAEF0BF024510F0B3A6E28
:1017D8003A50020D170EF324D96E000EF420DA6E7B
:1017E800DECF3CF0DDCF3DF009EF0CF024510F0BBC
:1017F8003A6E3A50020D130EF324D96E000EF420FF
:10180800DA6EDECF3CF0DDCF3DF03CC0D9FF3DC005
:10181800DAFFDFAE12EF0CF014EF0CF03DEF0CF036
:101828003CC0D9FF3DC0DAFFDFA41DEF0CF01FEF6D
:101838000CF03DEF0CF0010E286F3DEF0CF020513D
:101848001F0B3A6E3B6A3B50000AD8B42EEF0CF0DF
:101858003DEF0CF03A50000AD8B4C8EF0BF0010A7B
:10186800D8B4D4EF0BF0030AD8B4D7EF0BF03DEFA0
:101878000CF00CAE42EF0CF044EF0CF04BEF0CF018
:10188800280E096E040E0A6E0C80020E0D6E1200F0
:1018980004012039E832030B0009D8B456EF0CF0E4
:1018A80058EF0CF09CEF0CF0D5EF0CF00C8E080EF6
:1018B800346ED5EF0CF096EC08F0D5EF0CF055EC43
:1018C8000EF0D5EF0CF0390E096E000E0A6E0C8082
:1018D800010E0D6E0C8ED5EF0CF0C1EC0BF0D5EFB0
:1018E8000CF054EC04F0D5EF0CF0380E2425096EFA
:1018F8000A6A000E0A226BEF0CF00C8E380E2425B3
:10190800D96EDA6A000EDA2222C4DFFFD5EF0CF0B6
:10191800000E496E020E486E000E4A6E000E4B6EA7
:10192800000E4D6E000E4C6EDEEC10F0D5EF0CF094
:101938002151576E586A5850000AD8B4A6EF0CF0D7
:10194800D5EF0CF05750000AD8B471EF0CF0010A2B
:10195800D8B475EF0CF0020AD8B475EF0CF0060A8B
:10196800D8B45AEF0CF0030AD8B45FEF0CF0010AB0
:10197800D8B48CEF0CF00F0AD8B467EF0CF0010A5A
:10198800D8B463EF0CF0030AD8B479EF0CF0010A6D
:10199800D8B481EF0CF0070AD8B4D5EF0CF0D5EF26
:1019A8000CF01200080E3A6E0E5007E1080E0D5C9E
:1019B800D8B0E1EF0CF0E3EF0CF0FBEF0CF00DC04A
:1019C8003AF03350D8A4EBEF0CF0EDEF0CF0F1EF58
:1019D8000CF0010E336EFBEF0CF03304D8A4F7EFD4
:1019E8000CF0F9EF0CF0FBEF0CF0020E336E3A50EE
:1019F8000D5E000E0E5A20EE01F01350D926145039
:101A0800DA223AC0DFFF280E216E040E226E0CB0D7
:101A180010EF0DF012EF0DF052EF0DF02EEF0DF06C
:101A280009C0F6FF0AC0F7FFF86A21C0E1FF22C02B
:101A3800E2FF070EF76403D00800F55005D0F6CF93
:101A4800D9FFF7CFDAFFDF50E76E094A0A2A214AA1
:101A5800222A3A063A50D8A434EF0DF036EF0DF0AA
:101A680014EF0DF05AEF0DF009C0F6FF0AC0F7FFAA
:101A7800F86A21C0E1FF22C0E2FF070EF76403D035
:101A88000800F55005D0F6CFD9FFF7CFDAFFDF50C1
:101A9800E76E094A0A2A214A222A3A063A50D8A465
:101AA80058EF0DF05AEF0DF038EF0DF0120013C09B
:101AB800D9FF14C0DAFF000EDFBC010E3B6E040E26
:101AC8001318136E1450146E080E3418D8A46FEF40
:101AD8000DF071EF0DF083EF0DF0040122517F0B33
:101AE8006E6E6E50D8B47BEF0DF07DEF0DF081EF88
:101AF8000DF0100E346E83EF0DF0040E346E3204C8
:101B0800D8A489EF0DF08BEF0DF0D2EF0DF020EE99
:101B180002F01350D9261450DA22280EDE6E040E75
:101B2800DD6ED6EC0CF0020E3318D8A49EEF0DF043
:101B3800A0EF0DF0AEEF0DF013C0D9FF14C0DAFF1F
:101B4800040EDF6E13C0D9FF14C0DAFF000EDB8E5F
:101B5800DCEF0DF03B50D8A4B4EF0DF0B6EF0DF06C
:101B6800C4EF0DF013C0D9FF14C0DAFF480EDF6EC2
:101B780013C0D9FF14C0DAFF000EDB8EDCEF0DF0C6
:101B880013C0D9FF14C0DAFF080EDF6E13C0D9FFE7
:101B980014C0DAFF000EDB8EDCEF0DF004AED7EFD9
:101BA8000DF0D9EF0DF0DAEF0DF0049E000E326E55
:101BB80012002B50D8A4E3EF0DF0E5EF0DF054EF31
:101BC8000EF0010E2B6E2A50D8A4EDEF0DF0EFEFBA
:101BD8000DF054EF0EF0010E2A6E020E3218D8A442
:101BE800F8EF0DF0FAEF0DF010EF0EF020EE01F027
:101BF8001350D9261450DA22000EDF6E13C0D9FF15
:101C080014C0DAFF480EDF6E13C0D9FF14C0DAFF24
:101C1800000EDB8E54EF0EF03204D8A416EF0EF04F
:101C280018EF0EF054EF0EF0000E2E6E20EE01F0BD
:101C38002550D9262650DA22080EDF6E20EE02F053
:101C48002550D9262650DA22200EDE6E040EDD6ECF
:101C580025C0D9FF26C0DAFF040EDF6E25C0D9FFE4
:101C680026C0DAFF000EDB8E010E2E6E20EE01F08C
:101C78002350D9262450DA22080EDF6E20EE02F017
:101C88002350D9262450DA22200EDE6E040EDD6E93
:101C980023C0D9FF24C0DAFF800EDF6E54EF0EF0A8
:101CA80012000C8E710E3A6E0F0E3B6E000E3D6EDA
:101CB800000E3C6E000E3F6E010E3E6E2BEC07F0E0
:101CC800000E3A6E040E3B6E000E3D6E000E3C6E2A
:101CD800000E3F6E200E3E6E2BEC07F06D8C000E52
:101CE800506E1F0E5024D96EDA6A000EDA22000EEA
:101CF800DF6E1D0E5024D96EDA6A000EDA22000E4D
:101D0800DF6E502A010E50648CEF0EF08EEF0EF04D
:101D180075EF0EF0380E3A6E000E3B6E000E3D6EFB
:101D2800000E3C6E000E3F6E010E3E6E2BEC07F06F
:101D38006D9C080E136E040E146E000E256E040EB4
:101D4800266E25C023F026C024F022C439F039506D
:101D5800D8A4B1EF0EF0B3EF0EF0B7EF0EF0100EFF
:101D6800346EC7EF0EF0000E496E010E486E390E44
:101D78004A6E000E4B6E000E4D6E010E4C6EDEEC80
:101D880010F0200E346E12002D0E2D6E37C059F053
:101D9800FD0E5916D8A4D3EF0EF0D5EF0EF017EFBD
:101DA8000FF037C059F0D89059323F0E5916595094
:101DB800040D000EF324256E040EF420266E25C0B3
:101DC80023F026C024F0040E2318236E2450246E1A
:101DD80025C0D9FF26C0DAFFDF30E8320F0B0D0A25
:101DE800D8A4F9EF0EF0FBEF0EF013EF0FF0200E72
:101DF8003A6E040E3B6E20EE02F02550D92626508E
:101E0800DA22DECF3CF0DDCF3DF0000E3F6E080E4B
:101E18003E6E08EC12F02CEC11F023EF0FF073EC8F
:101E280011F023EF0FF03750FD0B040AD8A41FEF71
:101E38000FF021EF0FF023EF0FF05BEC0DF0120025
:101E4800200E34602AEF0FF02CEF0FF02EEF0FF07A
:101E58007EEF0FF06DA233EF0FF035EF0FF037EF95
:101E68000FF07EEF0FF01B501C10D8B43EEF0FF0B0
:101E780040EF0FF04BEF0FF01BC0D9FF1CC0DAFF8B
:101E8800DFBE49EF0FF04BEF0FF07EEF0FF0000EC3
:101E98007FEC0FF0D8903B323A32D8903B323A324E
:101EA8003A500501006F010E7FEC0FF0D8903B32DD
:101EB8003A32D8903B323A323A500501016F020E5D
:101EC8007FEC0FF0D8903B323A32D8903B323A321E
:101ED8003A500501026F010E3A6E000E3B6E050E78
:101EE8003C6E030E3D6E010E22EC0BF03AC01BF067
:101EF8003BC01CF01200406E86EF0FF03A683B685A
:101F0800D8EF0FF040503C6E3D6A3D50000AD8B4FF
:101F180090EF0FF082EF0FF03C50000AD8B4BBEFFF
:101F28000FF0010AD8B4BBEF0FF0030AD8B4BBEF27
:101F38000FF0010AD8B4BBEF0FF0070AD8B4BBEF13
:101F48000FF0010AD8B4BBEF0FF0030AD8B4BBEF07
:101F58000FF0010AD8B4BBEF0FF00F0AD8B4BBEFEB
:101F68000FF0010AD8B4BBEF0FF082EF0FF040C0BA
:101F78003CF03C463C46C2503C18C30B3C18C26E71
:101F8800C282C2B2CAEF0FF0CCEF0FF0C5EF0FF06C
:101F9800C4CF3EF03F6A3E503F6E3E6AC3503E1289
:101FA8003EC03AF03FC03BF01200416E000E426E58
:101FB800040E436E3A503B6E3C6AD8903B363C3632
:101FC80041503D6E3E6AD8903D363E36D8903D36FB
:101FD8003E363B503D243F6E3C503E20406ED890EC
:101FE8003F364036D8903F3640363F504226405024
:101FF800432242C0D9FF43C0DAFFDF9E3A50D8A43B
:1020080008EF10F00AEF10F018EF10F04150020D31
:10201800170EF324D96E000EF420DA6E42C0DEFFEC
:1020280043C0DDFF24EF10F04150020D130EF324DE
:10203800D96E000EF420DA6E42C0DEFF43C0DDFF29
:1020480042C0D9FF43C0DAFFDF9C20EE04F04250C3
:10205800D9264350DA22DF8C12003C6E52EF10F082
:10206800928087EF10F0928287EF10F0928487EFCA
:1020780010F0928687EF10F0928A87EF10F0968022
:1020880087EF10F0968287EF10F0968487EF10F0B4
:10209800938487EF10F0938687EF10F03C503A6EE8
:1020A8003B6A3B50000AD8B45CEF10F087EF10F0A1
:1020B8003A50000AD8B434EF10F0010AD8B437EF18
:1020C80010F0030AD8B43AEF10F0010AD8B43DEF83
:1020D80010F0070AD8B440EF10F0010AD8B443EF63
:1020E80010F0030AD8B446EF10F0010AD8B449EF4B
:1020F80010F00F0AD8B44CEF10F0010AD8B44FEF23
:1021080010F087EF10F01200000E296E000E286EF6
:10211800020E3218D8A493EF10F095EF10F0B5EF37
:1021280010F020EE01F02350D9262450DA22080EB0
:10213800DF6E20EE02F02350D9262450DA22280E32
:10214800DE6E040EDD6E23C0D9FF24C0DAFF480E10
:10215800DF6E23C0D9FF24C0DAFF000EDB8EDDEF6F
:1021680010F00D500401265D0E502759D8B0BFEF6E
:1021780010F0C1EF10F0C5EF10F026C40DF027C421
:102188000EF0D6EC0CF020EE02F01350D9261450C5
:10219800DA22280EDE6E040EDD6E13C0D9FF14C0DD
:1021A800DAFF480EDF6E13C0D9FF14C0DAFF000E45
:1021B800DB8E1200F2EF10F0010EDDEC11F02BEFC8
:1021C80011F0020EDDEC11F02BEF11F0E4EC12F03F
:1021D8002BEF11F0E6EC07F02BEF11F048C04EF0B2
:1021E80049C04FF04F50000AD8B401EF11F07F0AF0
:1021F800D8B424EF11F02BEF11F04E50010AD8B4E7
:10220800EAEF10F0030AD8B42BEF11F0010AD8B4A2
:10221800EEEF10F0060AD8B42BEF11F0770AD8B415
:102228002BEF11F0010AD8B42BEF11F0070AD8B43C
:10223800E5EF10F0010AD8B4E0EF10F02BEF11F041
:102248004E50FF0AD8B42BEF11F02BEF11F012000B
:10225800000E336E000E2C6E000E296E000E286ED6
:10226800000E2E6E000E326E13C0D9FF14C0DAFFB6
:102278007F0EDF16040E1318136E1450146E13C05D
:10228800D9FF14C0DAFF7F0EDF16040E1318136E81
:102298001450146E23C0D9FF24C0DAFF7F0EDF1656
:1022A800000E0C6E000E0E6E000E0D6E000E046E0B
:1022B800000E066E000E056E4CEC0CF0000E496E1A
:1022C800030E486E000E4A6E000E4B6E000E4D6EE9
:1022D800000E4C6EDEEC10F082EC0AF01200020EDA
:1022E8003218D8A47AEF11F07CEF11F080EF11F0DA
:1022F800E1EC09F0ACEF11F0000E326E2E50D8A4CC
:1023080088EF11F08AEF11F0AAEF11F020EE01F03A
:102318002350D9262450DA22080EDF6E20EE02F070
:102328002350D9262450DA22200EDE6E040EDD6EEC
:1023380023C0D9FF24C0DAFF0C0EDF6E23C0D9FFFB
:1023480024C0DAFF000EDB8EACEF11F0000E2E6E0B
:10235800120070A0B2EF11F0B4EF11F0DBEF11F042
:1023680025C0D9FF26C0DAFF800EDE18D8A4BFEF3B
:1023780011F0C1EF11F0DAEF11F013C0D9FF14C05A
:10238800DAFF840EDE18D8A4CCEF11F0CEEF11F0EE
:10239800DAEF11F025C0D9FF26C0DAFF0C0EDF6E88
:1023A80025C0D9FF26C0DAFF000EDB8E7090689A30
:1023B80012003F6EEEEF11F0000EC4EC12F0000EAA
:1023C80031EC10F0010E31EC10F0020E31EC10F08F
:1023D80007EF12F03F503D6E3E6A3E50000AD8B4F7
:1023E800F8EF11F007EF12F03D50000AD8B4E0EF13
:1023F80011F0010AD8B407EF12F0030AD8B407EFB6
:1024080012F007EF12F012003CC042F03DC043F05A
:102418003AC040F03BC041F022EF12F042C0D9FF71
:1024280043C0DAFFDF50446E424A432A40C0D9FF16
:1024380041C0DAFF44C0DFFF404A412A3E06D8A027
:102448003F063E2806E13F28D8A42DEF12F02FEFD3
:1024580012F012EF12F01200476E44A436EF12F099
:1024680038EF12F03DEF12F0000E3A6E4750D9ECFB
:102478000FF044A242EF12F044EF12F049EF12F0CD
:10248800010E3A6E4750D9EC0FF0700E4724456E96
:10249800466A0F0E462245C0D9FF46C0DAFF44C03F
:1024A800DFFF1200000EDDEC11F03EEC09F0FAEC53
:1024B80005F0200E346063EF12F065EF12F067EF5D
:1024C80012F05BEF12F06DA26CEF12F06EEF12F0EB
:1024D80070EF12F05BEF12F024EC0FF05BEF12F0EC
:1024E80007EF00F0000E306E000E496E740E486E55
:1024F800000E4A6E000E4B6E000E4D6E000E4C6EB6
:10250800DEEC10F06D9269948BEF12F0689468B469
:1025180090EF12F092EF12F08AEF12F0000E276E91
:102528001200010E0F26000E102211221222305026
:10253800D8A4A1EF12F0A3EF12F0ADEF12F0272A02
:102548002750D8A4AAEF12F0ACEF12F0ADEF12F0BA
:1025580027681200698468986D82010E306E000E3B
:10256800276E000E496E750E486E000E4A6E000EFC
:102578004B6E000E4D6E000E4C6EDEEC10F012002D
:102588003A6E3A50D8A4CBEF12F0CDEF12F0D6EF56
:1025980012F0010EC26EC150F00B0509C16E3C0E5F
:1025A800C06EC08E120000EE01F0390EEE6AE80629
:1025B800FDE15B905B92000EF86E000156EF12F0A1
:1025C800000E1B6E000E1C6E1A0E446E010E30ECCF
:0A25D80012F0120006005B921100E1
:020000040020DA
:08000000FFFFFFFFFFFFFFFF00
:020000040030CA
:0E000000240E3F1EFF8181FF0FC00FE00F4056
:00000001FF
