:0400000007EF00F016
:0A0008005F8266ED1BF035EF1BF080
:1008000000A2083108090855082803520075006441
:100810000064006500720020005000650064006103
:10082000006C002000530079007300740065006DB7
:10083000002403520075006200620065007200200F
:1008400000480065006C006900780020004C0061E1
:10085000006200730009022200010100C032090495
:10086000000001030000000921110100012219000C
:100870000705810340000105010905A10126FF00CC
:1008800046FF00093309340935750895038102C014
:100890001201000200000008D804680101000102F2
:0708A000000104030904003C
:1008A8003250800B3B6E325032243D6E31AE5FEFDA
:1008B80004F061EF04F062EF04F03D803D50D8B4DD
:1008C80068EF04F06AEF04F07FEF04F03D28D8A445
:1008D80070EF04F072EF04F07AEF04F0000E2F6E60
:1008E800000E306E000E316E000E326E318E000E2C
:1008F800326E87EF04F0000E2F6E000E306E000E81
:10090800316E000E326E3650800B3C6E3B503C18F8
:10091800D8B491EF04F093EF04F094EF04F03B8C1B
:10092800365036243C6E35AE9CEF04F09EEF04F052
:100938009FEF04F03C803C50D8B4A5EF04F0A7EF3B
:1009480004F0BCEF04F03C28D8A4ADEF04F0AFEFFE
:1009580004F0B7EF04F0000E336E000E346E000E94
:10096800356E000E366E358E000E366EC4EF04F00E
:10097800000E336E000E346E000E356E000E366EAD
:100988003D503C5CD8B0CBEF04F0CDEF04F0F4EF71
:1009980004F03BACD2EF04F0D4EF04F0D6EF04F04F
:1009A800800E3B1A3DC03EF03CC03DF03EC03CF0DE
:1009B8002FC03EF033C02FF03EC033F030C03EF0C1
:1009C80034C030F03EC034F031C03EF035C031F0B4
:1009D8003EC035F032C03EF036C032F03EC036F090
:1009E800000E3E6E3D503CC037F0386A375E000E50
:1009F800385A38BE09EF05F0385009E11A0E375C4D
:100A0800D8A009EF05F00BEF05F042EF05F02F50E5
:100A1800301031103210D8A414EF05F017EF05F09C
:100A2800010E18EF05F0000E3E6E000E2F6E000E40
:100A3800306E000E316E000E326E3CC03DF04BEF52
:100A480005F03EA02AEF05F02CEF05F032EF05F097
:100A5800D8903E3001093E6E34EF05F0D8903E3212
:100A68002FA039EF05F03BEF05F03CEF05F03E8E87
:100A780032343232313230322F323D2A3C503D5CF2
:100A8800D8A049EF05F04BEF05F025EF05F03BBC8A
:100A980050EF05F052EF05F092EF05F03D50D8A465
:100AA80058EF05F05AEF05F064EF05F0000E2F6ED1
:100AB800000E306E000E316E000E326EB3EF06F08F
:100AC80033502F26345030223550312236503222BE
:100AD80032A071EF05F073EF05F01FEF06F03EA0AE
:100AE80078EF05F07AEF05F080EF05F0D8903E300A
:100AF80001093E6E82EF05F0D8903E322FA087EFB5
:100B080005F089EF05F08AEF05F03E8E3234323277
:100B1800313230322F323D2A1FEF06F033502F5C2E
:100B280034503058355031583250800A376E36506C
:100B3800800A3758D8B0A3EF05F0A5EF05F0D0EF3D
:100B480005F02F50335C376E30503458386E3150C2
:100B58003558396E325036583A6EFF0E37242F6E9C
:100B6800FF0E3820306EFF0E3920316EFF0E3A200E
:100B7800326E800E3B1A3E6C3E50D8A4C6EF05F08C
:100B8800C8EF05F0D8EF05F0010E2F26000E302231
:100B980031223222D8EF05F033502F5E3450305ACC
:100BA8003550315A3650325A2F50301031103210D9
:100BB800D8A4E1EF05F0E3EF05F018EF06F03E509A
:100BC800D8A4E9EF05F0EBEF05F018EF06F0000EFA
:100BD8002F6E000E306E000E316E000E326EB3EFC7
:100BE80006F0D8902F363036313632363EAEFFEF2B
:100BF80005F001EF06F002EF06F02F803EA007EFA8
:100C080006F009EF06F00DEF06F0D8803E360FEF3C
:100C180006F0D8903E363D50D8B415EF06F017EFE1
:100C280006F018EF06F03D0631AE1DEF06F01FEF97
:100C380006F0F5EF05F0000E3C6E3EAE26EF06F02E
:100C480028EF06F040EF06F03EC037F07F0E37166B
:100C5800D8B431EF06F033EF06F037EF06F0010EA7
:100C68003C6E40EF06F02FA03CEF06F03EEF06F09A
:100C780040EF06F033EF06F03C50D8B446EF06F0EC
:100C880048EF06F073EF06F0010E2F26000E302213
:100C98003122322232A053EF06F055EF06F073EFFF
:100CA80006F02FC037F030C038F031C039F032C00C
:100CB8003AF03A343A3239323832373237C02FF0D4
:100CC80038C030F039C031F03AC032F03D28D8B4DD
:100CD80070EF06F072EF06F073EF06F03D2A3D283C
:100CE800D8B479EF06F07BEF06F083EF06F03D50BD
:100CF800D8A481EF06F083EF06F095EF06F0000E1A
:100D08002F6E000E306E000E316E000E326E3D50AA
:100D1800D8A491EF06F093EF06F095EF06F0000ED9
:100D28003B6E3DA09AEF06F09CEF06F09FEF06F0B1
:100D3800318EA0EF06F0319ED8903D30326E3BAE3A
:100D4800A8EF06F0AAEF06F0ABEF06F0328E2FC040
:100D58002FF030C030F031C031F032C032F0120024
:100D6800200E00018B61BBEF06F0BDEF06F0BFEF70
:100D780006F00CEF09F06DA2C4EF06F0C6EF06F01E
:100D8800C8EF06F00CEF09F076517711D8B4CFEF21
:100D980006F0D1EF06F0DCEF06F076C0D9FF77C099
:100DA800DAFFDFBEDAEF06F0DCEF06F00CEF09F051
:100DB800000E336EC00E346E190E356EC40E366ECC
:100DC800660E1A6E660E1B6E860E1C6E3F0E1D6E2C
:100DD800000E57EC19F001C008F002C009F00A6AC9
:100DE8000B6A000E0AEC0EF008C016F009C017F0E6
:100DF8000AC018F00BC019F00DEC09F016C02FF05E
:100E080017C030F018C031F019C032F054EC04F0BB
:100E18002FC047F030C048F031C049F032C04AF026
:100E2800BFEC15F047500501006F000E336E000E41
:100E3800346E700E356EC30E366E9A0E1A6E990E9B
:100E48001B6ED90E1C6E3F0E1D6E010E57EC19F06D
:100E580001C008F002C009F00A6A0B6A000E0AEC29
:100E68000EF008C016F009C017F00AC018F00BC041
:100E780019F00DEC09F016C02FF017C030F018C0AB
:100E880031F019C032F054EC04F02FC047F030C0F4
:100E980048F031C049F032C04AF0000E4B6E000EE7
:100EA8004C6E480E4D6E420E4E6E42EC16F0D8B0A7
:100EB80060EF07F062EF07F067EF07F0000E05013B
:100EC800016FF1EF07F0000E476E000E486E480EF6
:100ED800496E430E4A6E000E336E000E346E700E6D
:100EE800356EC30E366E9A0E1A6E990E1B6ED90E9B
:100EF8001C6E3F0E1D6E010E57EC19F001C008F074
:100F080002C009F00A6A0B6A000E0AEC0EF008C06B
:100F180016F009C017F00AC018F00BC019F00DEC54
:100F280009F016C02FF017C030F018C031F019C002
:100F380032F054EC04F02FC04BF030C04CF031C00C
:100F48004DF032C04EF042EC16F0D8B0AEEF07F0DC
:100F5800B0EF07F0B4EF07F005010169F1EF07F012
:100F6800000E336E000E346E700E356EC30E366E84
:100F78009A0E1A6E990E1B6ED90E1C6E3F0E1D6EC0
:100F8800010E57EC19F001C008F002C009F00A6A16
:100F98000B6A000E0AEC0EF008C016F009C017F034
:100FA8000AC018F00BC019F00DEC09F016C02FF0AC
:100FB80017C030F018C031F019C032F054EC04F00A
:100FC8002FC047F030C048F031C049F032C04AF075
:100FD800BFEC15F047500501016F000E336E800E0F
:100FE800346E980E356EC40E366E9A0E1A6E990EC1
:100FF8001B6ED90E1C6E3F0E1D6E020E57EC19F0BB
:1010080001C008F002C009F00A6A0B6A000E0AEC77
:101018000EF008C016F009C017F00AC018F00BC08F
:1010280019F00DEC09F016C02FF017C030F018C0F9
:1010380031F019C032F054EC04F02FC053F030C036
:1010480054F031C055F032C056F053C043F054C08C
:1010580044F055C045F056C046F0000E3F6E000EF5
:10106800406E7F0E416E430E426E9FEC1AF03FC0F9
:1010780047F040C048F041C049F042C04AF0000E75
:101088004B6E000E4C6E480E4D6E420E4E6E42EC8C
:1010980016F0D8B052EF08F054EF08F059EF08F006
:1010A800000E0501026FFDEF08F0000E476E000EFE
:1010B800486E480E496E430E4A6E000E336E800E1F
:1010C800346E980E356EC40E366E9A0E1A6E990EE0
:1010D8001B6ED90E1C6E3F0E1D6E020E57EC19F0DA
:1010E80001C008F002C009F00A6A0B6A000E0AEC97
:1010F8000EF008C016F009C017F00AC018F00BC0AF
:1011080019F00DEC09F016C02FF017C030F018C018
:1011180031F019C032F054EC04F02FC04BF030C05D
:101128004CF031C04DF032C04EF042EC16F0D8B061
:10113800A0EF08F0A2EF08F0A6EF08F00501026999
:10114800FDEF08F0000E336E800E346E980E356E8B
:10115800C40E366E9A0E1A6E990E1B6ED90E1C6E40
:101168003F0E1D6E020E57EC19F001C008F002C0C8
:1011780009F00A6A0B6A000E0AEC0EF008C016F0B5
:1011880009C017F00AC018F00BC019F00DEC09F0EF
:1011980016C02FF017C030F018C031F019C032F067
:1011A80054EC04F02FC053F030C054F031C055F067
:1011B80032C056F053C043F054C044F055C045F017
:1011C80056C046F0000E3F6E000E406E7F0E416E18
:1011D800430E426E9FEC1AF03FC047F040C048F003
:1011E80041C049F042C04AF0BFEC15F04750050134
:1011F800026F010E016E000E026E050E036E030EE5
:10120800046E010EF2EC12F001C076F002C077F025
:1012180012001950800B226E19501924286E18AE2E
:1012280018EF09F01AEF09F01BEF09F02880285091
:10123800D8B421EF09F023EF09F036EF09F0282898
:10124800D8A429EF09F02BEF09F033EF09F0000ECD
:10125800166E000E176E000E186E000E196E188EA0
:101268003EEF09F0000E166E000E176E000E186E97
:10127800000E196E1D50800B221A1D501D24276E5A
:101288001CAE49EF09F04BEF09F04CEF09F027804D
:101298002750D8B452EF09F054EF09F067EF09F07E
:1012A8002728D8A45AEF09F05CEF09F064EF09F099
:1012B800000E1A6E000E1B6E000E1C6E000E1D6EC8
:1012C8001C8E6FEF09F0000E1A6E000E1B6E000EDA
:1012D8001C6E000E1D6E2750D8B475EF09F077EF1D
:1012E80009F07FEF09F02850D8A47DEF09F07FEFCF
:1012F80009F089EF09F0000E166E000E176E000E49
:10130800186E000E196E21EF0BF01C501602F3CF69
:101318002DF0F4CF2EF02D50236E246A256A266A0C
:101328002E50296E2A6A2B6A2C6A1B501702F3CF9B
:101338002DF0F4CF2EF02D502326000E2422252246
:1013480026222E502926000E2A222B222C221A5021
:101358001802F3CF2DF0F4CF2EF02D502326000ED7
:101368002422252226222E502926000E2A222B222C
:101378002C2225C026F024C025F023C024F0236A9F
:101388001A501702F3CF2DF0F4CF2EF02D5023264C
:101398002E502422000E2522000E26221B50160253
:1013A800F3CF2DF0F4CF2EF02D5023262E502422EB
:1013B800000E2522000E262225C026F024C025F086
:1013C80023C024F0236A1A501602F3CF2DF0F4CF6D
:1013D8002EF02D5023262E502422000E2522000EFA
:1013E80026221C501702F3CF2DF0F4CF2EF02D50EB
:1013F80029262E502A22000E2B22000E2C221B50AA
:101408001802F3CF2DF0F4CF2EF02D5029262E50B0
:101418002A22000E2B22000E2C221C501802F3CF79
:101428002DF0F4CF2EF02D501E6E2E501F6E206A18
:10143800216A20C021F01FC020F01EC01FF01E6AC4
:101448001E5029261F502A2220502B2221502C22A0
:1014580023C01EF024C01FF025C020F026C021F0B4
:10146800190E3CEF0AF0D890213220321F321E327A
:10147800E82E37EF0AF01E5029261F502A22205046
:101488002B2221502C2225C026F024C025F023C071
:1014980024F0236A275028C01EF01F6A1E26000E5B
:1014A8001F22820E1E242D6EFF0E1F202E6E72EF3D
:1014B8000AF0D89029362A362B362C3626AE67EF16
:1014C8000AF069EF0AF06AEF0AF02980D89023360B
:1014D8002436253626362D06D8A02E062BAE77EFD5
:1014E8000AF079EF0AF05DEF0AF0000E276E26AEDB
:1014F80080EF0AF082EF0AF0A6EF0AF0FF0E23143D
:101508001E6EFF0E24141F6EFF0E2514206E7F0E14
:101518002614216E1E501F1020102110D8B497EFEA
:101528000AF099EF0AF09DEF0AF0010E276EA6EF78
:101538000AF029A0A2EF0AF0A4EF0AF0A6EF0AF039
:1015480099EF0AF02750D8B4ACEF0AF0AEEF0AF0E2
:10155800D2EF0AF0010E2926000E2A222B222C2275
:101568002CA0B9EF0AF0BBEF0AF0D2EF0AF029C0BD
:101578001EF02AC01FF02BC020F02CC021F021340F
:10158800213220321F321E321EC029F01FC02AF01D
:1015980020C02BF021C02CF02D4A2E2A2EBEDDEFC4
:1015A8000AF02E5008E12D28D8A0DDEF0AF0DFEF71
:1015B8000AF0E9EF0AF0000E296E000E2A6E800E7E
:1015C8002B6E7F0E2C6E17EF0BF02EBEF6EF0AF087
:1015D8002E5006E12D04D8B0F4EF0AF0F6EF0AF029
:1015E80002EF0BF0000E296E000E2A6E000E2B6E15
:1015F800000E2C6E000E226E17EF0BF02DC028F097
:10160800FF0E2916FF0E2A167F0E2B16000E2C161B
:1016180028A011EF0BF013EF0BF014EF0BF02B8E4B
:10162800D89028302C6E22502C1229C016F02AC0CF
:1016380017F02BC018F02CC019F012000401220575
:10164800D8A429EF0BF02BEF0BF049EF0BF020514A
:101658001F0B0009D8A433EF0BF035EF0BF049EF5F
:101668000BF000016B8F030E04012119D8A43FEF82
:101678000BF041EF0BF046EF0BF0010E0001886F05
:1016880049EF0BF0000E0001886F04012251D8A425
:1016980050EF0BF052EF0BF0D2EF0CF020511F0B74
:1016A800020AD8A45AEF0BF05CEF0BF0D2EF0CF063
:1016B80024510F0B0009D8B464EF0BF066EF0BF060
:1016C800D2EF0CF024510F0B176E020E17606FEF5C
:1016D8000BF071EF0BF0D2EF0CF0200E00018B191C
:1016E800D8A479EF0BF07BEF0BF0D2EF0CF06B8FF7
:1016F800040124BF82EF0BF084EF0BF0A1EF0BF095
:1017080024510F0B176E1750020D720EF324D96E69
:10171800000EF420DA6EDECF1CF0DDCF1DF0245170
:101728000F0B176E186A780E1724D96E000E182042
:10173800DA6EDF501B6EBCEF0BF024510F0B176EE7
:101748001750020D570EF324D96E000EF420DA6EEE
:10175800DECF1CF0DDCF1DF024510F0B176E186A79
:101768007A0E1724D96E000E1820DA6EDF501B6E21
:101778001BB0C1EF0BF0C3EF0BF0CBEF0BF0FB0E80
:101788001C141C6EFF0E1D141D6ED0EF0BF0040E02
:101798001C101C6E1D501D6E24BFD5EF0BF0D7EF2B
:1017A8000BF0E8EF0BF024510F0B176E1750020DDA
:1017B800720EF324D96E000EF420DA6E1CC0DEFF20
:1017C8001DC0DDFFF7EF0BF024510F0B176E1750FC
:1017D800020D570EF324D96E000EF420DA6E1CC0E9
:1017E800DEFF1DC0DDFF030E2119D8A4FEEF0BF0AC
:1017F80000EF0CF03AEF0CF01CC0D9FF1DC0DAFF67
:10180800DFAE09EF0CF00BEF0CF02CEF0CF024BF5F
:1018180010EF0CF012EF0CF020EF0CF024510F0B2E
:10182800176E186A780E1724D96E000E1820DA6E13
:101838000001DF822CEF0CF024510F0B176E186A91
:101848007A0E1724D96E000E1820DA6E0001DF8296
:101858001CC0D9FF1DC0DAFF000EDB841CC0D9FFF5
:101868001DC0DAFF000EDB8ED2EF0CF0040E1C1840
:101878001C6E1D501D6E1CC0D9FF1DC0DAFFDFAEE7
:1018880048EF0CF04AEF0CF066EF0CF01CC0D9FFE3
:101898001DC0DAFF7F0EDF161CC0D9FF1DC0DAFF9E
:1018A800000EDB8C000E106E050E0F6E1CC011F0C2
:1018B8001DC012F0000E146E020E136EC1EC18F06B
:1018C8006CEF0CF01CC0D9FF1DC0DAFF000EDB8CDA
:1018D800040E1C181C6E1D501D6E1BB276EF0CF00A
:1018E80078EF0CF083EF0CF01CC0D9FF1DC0DAFFB5
:1018F800DFAE81EF0CF083EF0CF0BBEF0CF00401CE
:1019080024BF89EF0CF08BEF0CF099EF0CF0245109
:101918000F0B176E186A780E1724D96E000E182050
:10192800DA6E0001DF92A5EF0CF024510F0B176E51
:10193800186A7A0E1724D96E000E1820DA6E000184
:10194800DF921CC0D9FF1DC0DAFF3B0EDF16000E68
:10195800106E050E0F6E1CC011F01DC012F0000EA7
:10196800146E020E136EC1EC18F0C1EF0CF01CC01F
:10197800D9FF1DC0DAFF3B0EDF16040124510F0BFF
:10198800176E186A700E1724196E0F0E18201A6E2B
:1019980019C0D9FF1AC0DAFFFE0EDF1612000001C7
:1019A8008B51D8A4DAEF0CF0DCEF0CF0F3EF0CF06D
:1019B800000E6D6E000E696E160E6F6E9F0E6B6ECA
:1019C8007B0E696EE9EF0CF06D866DA6EEEF0CF0FC
:1019D800F0EF0CF0E8EF0CF0010E00018B6F8B05B7
:1019E800D8A4F9EF0CF0FBEF0CF00AEF0DF06DBA8C
:1019F80000EF0DF002EF0DF00AEF0DF0000E686E2B
:101A0800000E696E69806988020E8B6F68A40FEFFB
:101A18000DF011EF0DF01BEF0DF069A416EF0DF0AE
:101A280018EF0DF01BEF0DF06894E3EC1AF06DA2BF
:101A380020EF0DF022EF0DF025EF0DF0A19A09EF40
:101A48000EF068A02AEF0DF02CEF0DF039EF0DF035
:101A580069A031EF0DF033EF0DF039EF0DF006EC22
:101A680011F0040E00018B6F689068A83EEF0DF02E
:101A780040EF0DF049EF0DF069A845EF0DF047EF85
:101A88000DF049EF0DF01EEC1BF068AC4EEF0DF0B9
:101A980050EF0DF07CEF0DF069AC55EF0DF057EFFE
:101AA8000DF065EF0DF0000E106E730E0F6E000E48
:101AB800116E000E126E000E146E010E136EC1EC44
:101AC80018F0689C04EC1BF000018451D8B46FEF47
:101AD8000DF071EF0DF072EF0DF084078451D8A46A
:101AE80078EF0DF07AEF0DF07CEF0DF0C4EC16F006
:101AF80068AA81EF0DF083EF0DF08CEF0DF069AA65
:101B080088EF0DF08AEF0DF08CEF0DF0D0EC19F0A6
:101B180068A291EF0DF093EF0DF0A9EF0DF069A217
:101B280098EF0DF09AEF0DF0A9EF0DF07F0E106E03
:101B38000F68000E116E000E126E000E146E010E6C
:101B4800136EC1EC18F0000E6A6E040E00018B6172
:101B5800B0EF0DF0B2EF0DF0B5EF0DF0A19A09EF6F
:101B68000EF069A6BAEF0DF0BCEF0DF008EF0EF01D
:101B7800000E216E68A6C3EF0DF0C5EF0DF008EF5B
:101B88000EF06CCF8EF000018E31E832E8320F0B88
:101B9800866F68968EB5D3EF0DF0D5EF0DF0DEEFBA
:101BA8000DF0780E8625D96EDA6A000EDA22DF701B
:101BB800E5EF0DF07A0E8625D96EDA6A000EDA2284
:101BC800DF708651D8A4EBEF0DF0EDEF0DF0F1EFDB
:101BD8000DF0B3EC17F0FFEF0DF0000E106E720E63
:101BE8000F6E8E0E116E000E126E000E146E000E29
:101BF800136EC1EC18F0212A030E216406EF0EF0D3
:101C080008EF0EF0BEEF0DF0A19A1200106E105002
:101C1800D8B411EF0EF013EF0EF035EF0EF00BBE47
:101C28001AEF0EF018EF0EF035EF0EF008C00CF0BA
:101C380009C00DF00AC00EF00BC00FF00C1E0D1EEF
:101C48000E1E0F1E0C2A000E0D220E220F220CC093
:101C580012F00DC013F00EC014F00FC015F03DEFD8
:101C68000EF008C012F009C013F00AC014F00BC03F
:101C780015F0085009100A100B10D8A446EF0EF002
:101C880048EF0EF052EF0EF0000E086E000E096ECF
:101C9800000E0A6E000E0B6EE3EF0EF0960E116E3C
:101CA8005CEF0EF0112AD89015321432133212322A
:101CB800000E12140C6E000E13140D6E000E141488
:101CC8000E6EFE0E15140F6E0C500D100E100F1028
:101CD800D8A471EF0EF073EF0EF056EF0EF081EF0F
:101CE8000EF0112A010E1226000E132214221522BC
:101CF800D8901532143213321232000E12140C6EB0
:101D0800000E13140D6E000E14140E6EFF0E151433
:101D18000F6E0C500D100E100F10D8A496EF0EF089
:101D280098EF0EF075EF0EF0A0EF0EF01106D890B8
:101D3800123613361436153614BEA5EF0EF0A7EF7B
:101D48000EF0AFEF0EF0020E1160ADEF0EF0AFEF38
:101D58000EF09AEF0EF011B0B4EF0EF0B6EF0EF0F1
:101D6800B7EF0EF0149ED890113211C00CF00D6A26
:101D78000E6A0F6A0CC00FF00E6A0D6A0C6A0C50DE
:101D880012120D5013120E5014120F50151210503B
:101D9800D8B4D1EF0EF0D3EF0EF0DBEF0EF00BBEA0
:101DA800DAEF0EF0D8EF0EF0DBEF0EF0158E12C062
:101DB80008F013C009F014C00AF015C00BF01200A7
:101DC80001C00BF002C00CF005500610D8A4EFEFCC
:101DD8000EF0F1EF0EF0F3EF0EF09EEF0FF00BC0E8
:101DE800D9FF0CC0DAFF03C0DFFF05500B24076ED4
:101DF80006500C20086EFF0E0724D96EFF0E08202F
:101E0800DA6E03C0DFFF065007E1030E055CD8B0A9
:101E180010EF0FF012EF0FF014EF0FF09EEF0FF02E
:101E280020EE01F00B50D9260C50DA2203C0DFFF58
:101E380020EE02F00B50D9260C50DA2203C0DFFF47
:101E480005500B24076E06500C20086EFE0E072462
:101E5800D96EFF0E0820DA6E03C0DFFF05500B2491
:101E6800076E06500C20086EFD0E0724D96EFF0E73
:101E78000820DA6E03C0DFFF065007E1070E055C95
:101E8800D8B049EF0FF04BEF0FF04DEF0FF09EEF8A
:101E98000FF020EE03F00B50D9260C50DA2203C0C5
:101EA800DFFF05500B24076E06500C20086EFC0E51
:101EB8000724D96EFF0E0820DA6E03C0DFFF065034
:101EC80007E1090E055CD8B06CEF0FF06EEF0FF06C
:101ED80070EF0FF09EEF0FF00BC007F00CC008F08A
:101EE800071E081E074A082A030E0714096E0A6A05
:101EF80009500B260A500C220950055E0A50065A52
:101F0800FC0E0516FF0E061695EF0FF00BC0D9FF55
:101F18000CC0DAFF03C0DFFF0506D8A006060B4A8F
:101F28000C2A05500610D8A49CEF0FF09EEF0FF076
:101F38008AEF0FF01200040120511F0BE806D8B4F5
:101F4800A8EF0FF0AAEF0FF0ACEF0FF055EF10F07D
:101F58002451D8B4B2EF0FF0B4EF0FF0B6EF0FF092
:101F680055EF10F0060E2119D8A4BDEF0FF0BFEF02
:101F78000FF0FAEF0FF0E1EF0FF000019005D8A491
:101F8800C8EF0FF0CAEF0FF0FAEF0FF0670E686FA7
:101F9800080E696F000E6D6F090E6C6FC00E6B6FC7
:101FA800FAEF0FF0770E0001686F080E696F000EE8
:101FB8006D6F190E6C6FD2EF0FF02351016E026A2C
:101FC8000250000AD8B4EBEF0FF0FAEF0FF001500F
:101FD800210AD8B4C1EF0FF0030AD8B4D6EF0FF036
:101FE800010AD8B4FAEF0FF0FAEF0FF00401203924
:101FF800E832030BE806D8B404EF10F006EF10F04F
:1020080030EF10F055EF10F08D0E0001686F000EE4
:10201800696F000E6D6F010E6C6FC10E6B6F55EF1F
:1020280010F0800E00016B6F23C48DF055EF10F097
:102038008C0E0001686F000E696F000E6D6F010E47
:102048006C6F810E6B6F55EF10F0800E00016B6F97
:1020580022C48CF055EF10F02151016E026A025033
:10206800000AD8B43AEF10F055EF10F00150010A09
:10207800D8B455EF10F0030AD8B408EF10F0010AED
:10208800D8B41CEF10F00A0AD8B455EF10F0030AC0
:10209800D8B415EF10F0010AD8B429EF10F055EFB5
:1020A80010F01200800E04012019D8A45EEF10F081
:1020B80060EF10F005EF11F0C00E00016B6FEBEF51
:1020C80010F0900E0001686F080E696F000E6D6FBA
:1020D800120E6C6F05EF11F02251D8A476EF10F0B4
:1020E80078EF10F0B9EF10F02251020D070EF3242B
:1020F800F66E080EF420F76E0900F5CF68F00A00B6
:10210800F5CF69F0020E00016825016E000E692105
:10211800026E01C0F6FF02C0F7FFF86A070EF76407
:1021280003D00800F55005D0F6CFE1FFF7CFE2FF66
:10213800E75000016C6F030E6825016E000E6921DF
:10214800026E01C0F6FF02C0F7FFF86A070EF764D7
:1021580003D00800F55005D0F6CFE1FFF7CFE2FF36
:10216800E75000016D6F05EF11F0000E00016B6F75
:1021780005EF11F0030E2261C4EF10F0C6EF10F066
:10218800B9EF10F02251020D010EF324F66E080E7D
:10219800F420F76E0900F5CF68F00A00F5CF69F072
:1021A80068C0F6FF69C0F7FFF86A070EF76403D046
:1021B8000800F55005D0F6CFE1FFF7CFE2FFE75072
:1021C800016E015000016C6F6D6B05EF11F0040199
:1021D8002351016E026A0250000AD8B4F6EF10F0DB
:1021E800B9EF10F00150010AD8B465EF10F0030AF6
:1021F800D8B470EF10F0010AD8B4BEEF10F0B9EF00
:1022080010F01200A09A000E6A6E000E686E000EA2
:10221800706E710E016E0F0E026E000E046E000ECF
:10222800036E000E066E010E056EE4EC0EF0160E3F
:102238006F6E9F0E6B6E7B0E696E000E0D6E0D50ED
:10224800040D000EF324D96E040EF420DA6EDE6A53
:10225800DE6ADE6ADD6A0D2A070E0D6436EF11F0BC
:1022680038EF11F023EF11F06D8C000E6E6E6D9843
:102278006D9C6896000E00016B6F000E636F000E78
:10228800656F000E646F68B64CEF11F04EEF11F0F9
:102298003DEF11F0010E826F010E816F000E806F0D
:1022A800000E7F6F000E876F000E0D6E0D50020D31
:1022B800570EF324D96E000EF420DA6E000EDE6E8F
:1022C800000EDD6E0D50020D720EF324D96E000E55
:1022D800F420DA6E000EDE6E000EDD6E7A0E0D242E
:1022E800D96EDA6A000EDA22000EDF6E780E0D243F
:1022F800D96EDA6A000EDA22000EDF6E0D2A010EA0
:102308000D6489EF11F08BEF11F05AEF11F0080E00
:10231800576E040E586E160E706E040E0401036F8D
:10232800200E026F080E016F040E006F008F000E62
:102338000001906F000E6E6F000E6F6F000E706FD1
:10234800000E716F000E7E6F000E8B6F12006D987D
:1023580000016BBFB2EF11F0B4EF11F0FAEF11F01A
:1023680063AFB9EF11F0BBEF11F0CEEF11F0020E31
:10237800896F7F51D8A4C3EF11F0C5EF11F0C7EFF3
:1023880011F010EC18F0000E0001816F000E826F42
:102398004FEF12F020EE01F05B50D9265C50DA22A4
:1023A800080EDF6E20EE02F05B50D9265C50DA2270
:1023B800200EDE6E040EDD6E5BC0D9FF5CC0DAFF56
:1023C8000C0EDF6E5BC0D9FF5CC0DAFF000EDB8E3F
:1023D80057C0D9FF58C0DAFF040EDF6E57C0D9FFC7
:1023E80058C0DAFF000EDB8E4FEF12F0040120AF69
:1023F80000EF12F002EF12F020EF12F0010E0001D0
:10240800896F8051D8A40BEF12F00DEF12F00FEF87
:1024180012F010EC18F0000E0001816F000E826FB0
:102428008351D8A41AEF12F01CEF12F04FEF12F0FC
:10243800C4EC16F04FEF12F0020E0001896F20EE87
:1024480001F05B50D9265C50DA22080EDF6E20EED0
:1024580002F05B50D9265C50DA22200EDE6E040EA4
:10246800DD6E5BC0D9FF5CC0DAFF040EDF6E5BC0B7
:10247800D9FF5CC0DAFF000EDB8E000E816F000E04
:10248800826F8351D8A44BEF12F04DEF12F04FEF4B
:1024980012F01CEF12F0120020EE01F05D50D92668
:1024A8005E50DA22DF50026E02500001645D000EB9
:1024B8006559D8B062EF12F064EF12F066EF12F0CF
:1024C80064C002F00250645F000E655B000E016E8E
:1024D8007DEF12F0280E0124D96EDA6A040EDA2292
:1024E80060C0E1FF61C0E2FFDFCFE7FF604B612B17
:1024F800012A0250015CD8A084EF12F086EF12F096
:102508006EEF12F064516511D8B48DEF12F08FEFB1
:1025180012F0C8EF12F020EE01F05B50D9265C50A3
:10252800DA22080EDF6E20EE02F05B50D9265C50EE
:10253800DA22280EDE6E040EDD6E5DC0D9FF5EC0A5
:10254800DAFFDFBCAAEF12F0ACEF12F0BAEF12F02C
:102558005BC0D9FF5CC0DAFF480EDF6E5BC0D9FFF5
:102568005CC0DAFF000EDB8EF1EF12F05BC0D9FF22
:102578005CC0DAFF080EDF6E5BC0D9FF5CC0DAFF13
:10258800000EDB8EF1EF12F020EE01F05B50D92641
:102598005C50DA22080EDF6E20EE02F05B50D9267E
:1025A8005C50DA22200EDE6E040EDD6E5BC0D9FFB1
:1025B8005CC0DAFF040EDF6E5BC0D9FF5CC0DAFFD7
:1025C800000EDB8E639F8351D8A4EDEF12F0EFEF7E
:1025D80012F0F1EF12F0C4EC16F01200096E01507F
:1025E800D8B4F9EF12F0FBEF12F009EF13F009502D
:1025F800020D570EF324D96E000EF420DA6EDECFEA
:102608000AF0DDCF0BF015EF13F00950020D720E32
:10261800F324D96E000EF420DA6EDECF0AF0DDCF97
:102628000BF00A500B10D8A41CEF13F01EEF13F098
:1026380024EF13F0000E016E000E026E90EF13F0FF
:1026480020EE02F00A50D9260B50DA2202C0DEFF33
:1026580003C0DDFF20EE01F00A50D9260B50DA2224
:1026680004C0DFFF0AC0D9FF0BC0DAFF400EDF1637
:102678000AC0D9FF0BC0DAFF000EDB860AC0D9FFFB
:102688000BC0DAFF000EDB8E0150D8B44EEF13F00A
:1026980050EF13F06FEF13F00950020D570EF324AB
:1026A800D96E000EF420DA6EDECF05F0DDCF06F02D
:1026B800040E0518076E0650086E0950020D570ED5
:1026C800F324D96E000EF420DA6E07C0DEFF08C0CE
:1026D800DDFF8CEF13F00950020D720EF324D96E52
:1026E800000EF420DA6EDECF05F0DDCF06F0040E22
:1026F8000518076E0650086E0950020D720EF32475
:10270800D96E000EF420DA6E07C0DEFF08C0DDFFC8
:102718000AC001F00BC002F01200000E0401286F7D
:10272800000E296FF8EF13F000016B8F8805D8A40D
:10273800A0EF13F0A2EF13F012EF14F004012883B6
:1027480012EF14F000016B8F12EF14F000016B8F81
:10275800040124510F0B0009D8B4B5EF13F0B7EFFB
:1027680013F012EF14F024BFBCEF13F0BEEF13F018
:10277800CFEF13F024510F0B016E0150020D720EB2
:10278800F324D96E000EF420DA6EDECF03F0DDCF2D
:1027980004F0DEEF13F024510F0B016E0150020D0F
:1027A800570EF324D96E000EF420DA6EDECF03F054
:1027B800DDCF04F003C0D9FF04C0DAFFDFAEE7EFD6
:1027C80013F0E9EF13F012EF14F003C0D9FF04C0BF
:1027D800DAFFDFA4F2EF13F0F4EF13F012EF14F0C6
:1027E800010E286F12EF14F020511F0B016E026AC0
:1027F8000250000AD8B403EF14F012EF14F001509D
:10280800000AD8B498EF13F0010AD8B4A6EF13F071
:10281800030AD8B4AAEF13F012EF14F000016BAF5B
:1028280018EF14F01AEF14F021EF14F0280E686F67
:10283800040E696F6B81020E6C6F1200040120395F
:10284800E832030B0009D8B42CEF14F02EEF14F083
:1028580077EF14F0B0EF14F000016B8F080E8B6F58
:10286800B0EF14F056EC10F0B0EF14F03DEC17F0A8
:10287800B0EF14F0900E0001686F000E696F6B8165
:10288800010E6C6F6B8FB0EF14F091EC13F0B0EF9A
:1028980014F022EC0BF0B0EF14F08F0E2425000199
:1028A800686F696B000E692343EF14F000016B8FAA
:1028B8008F0E04012425D96EDA6A000EDA2222C4AA
:1028C800DFFFB0EF14F0000E106E020E0F6E000E58
:1028D800116E000E126E000E146E000E136EC1EC17
:1028E80018F0B0EF14F021511E6E1F6A1F50000A35
:1028F800D8B481EF14F0B0EF14F01E50000AD8B429
:1029080049EF14F0010AD8B44DEF14F0020AD8B414
:102918004DEF14F0060AD8B430EF14F0030AD8B417
:1029280036EF14F0010AD8B467EF14F00F0AD8B4E0
:102938003EEF14F0010AD8B43AEF14F0030AD8B401
:1029480051EF14F0010AD8B45AEF14F0070AD8B4BA
:10295800B0EF14F0B0EF14F01200080E016E000191
:102968006D5107E1080E6C5DD8B0BDEF14F0BFEFF4
:1029780014F0D7EF14F06CC001F08A51D8A4C7EF57
:1029880014F0C9EF14F0CDEF14F0010E8A6FD7EFF1
:1029980014F08A05D8A4D3EF14F0D5EF14F0D7EFCC
:1029A80014F0020E8A6F01506C5F000E6D5B20EE12
:1029B80001F05750D9265850DA2201C0DFFF280EFF
:1029C8007C6F040E7D6F6BB1ECEF14F0EEEF14F03A
:1029D80030EF15F00BEF15F068C0F6FF69C0F7FF90
:1029E800F86A7CC0D9FF7DC0DAFF070EF76403D010
:1029F8000800F55005D0F6CFE1FFF7CFE2FFE7502A
:102A0800DF6E0001684B692B7C4B7D2B0106015062
:102A1800D8A411EF15F013EF15F0F0EF14F038EF1C
:102A280015F068C0F6FF69C0F7FFF86A7CC0D9FFE7
:102A38007DC0DAFF070EF76403D00800F55005D013
:102A4800F6CFE1FFF7CFE2FFE750DF6E0001684BFA
:102A5800692B7C4B7D2B01060150D8A436EF15F06D
:102A680038EF15F015EF15F0120057C0D9FF58C010
:102A7800DAFF000EDFBC010E026E040E5718576E07
:102A88005850586E080E00018B19D8A44EEF15F057
:102A980050EF15F064EF15F0040122517F0B6E6EB4
:102AA8006E50D8B45AEF15F05CEF15F061EF15F0E1
:102AB800100E00018B6F64EF15F0040E00018B6F90
:102AC8008905D8A46AEF15F06CEF15F0B4EF15F08E
:102AD80020EE02F05750D9265850DA22280EDE6E22
:102AE800040EDD6EB1EC14F0020E00018A19D8A4B0
:102AF80080EF15F082EF15F090EF15F057C0D9FF71
:102B080058C0DAFF040EDF6E57C0D9FF58C0DAFF8D
:102B1800000EDB8EBEEF15F00250D8A496EF15F02C
:102B280098EF15F0A6EF15F057C0D9FF58C0DAFF97
:102B3800480EDF6E57C0D9FF58C0DAFF000EDB8E93
:102B4800BEEF15F057C0D9FF58C0DAFF080EDF6E88
:102B580057C0D9FF58C0DAFF000EDB8EBEEF15F064
:102B680063AFB9EF15F0BBEF15F0BCEF15F0639F3D
:102B7800000E896F120049344A34506E5050D8A460
:102B8800C8EF15F0CAEF15F0D4EF15F0000E476E38
:102B9800000E486E000E496E000E4A6E41EF16F0A8
:102BA80047C04BF048C04CF049C04DF04AC04EF009
:102BB800200EE4EF15F0D8904E324D324C324B32A5
:102BC800E82EDFEF15F04B504F6E498EFF0E47167B
:102BD800FF0E4816FF0E4916000E4A16960E505E56
:102BE80050BEFBEF15F0F9EF15F011EF16F050504D
:102BF800800A970FD8B003EF16F005EF16F007EF2D
:102C080016F0CAEF15F0D8904A32493248324732A6
:102C1800503E07EF16F029EF16F01F0E506417EF1D
:102C280016F019EF16F021EF16F0CAEF15F0D8904C
:102C38004736483649364A3650065050D8A427EF0A
:102C480016F029EF16F01BEF16F04F50D8B42FEFFF
:102C580016F031EF16F039EF16F04A1E491E481EDD
:102C6800476C000E482249224A2247C047F048C014
:102C780048F049C049F04AC04AF01200000E471413
:102C88004F6E000E4814506E800E4914516E7F0E20
:102C98004A14526E4F50501051105210D8A457EF8A
:102CA80016F059EF16F061EF16F0000E476E000EA1
:102CB800486E000E496E000E4A6E000E4B144F6EA1
:102CC800000E4C14506E800E4D14516E7F0E4E1433
:102CD800526E4F50501051105210D8A476EF16F083
:102CE80078EF16F080EF16F0000E4B6E000E4C6E6B
:102CF800000E4D6E000E4E6E4AAE85EF16F087EF51
:102D080016F090EF16F0476C481ED8B0482A491EB6
:102D1800D8B0492A800E4A564EAE95EF16F097EF76
:102D280016F0A0EF16F04B6C4C1ED8B04C2A4D1E76
:102D3800D8B04D2A800E4E56000E471A000E481A7B
:102D4800000E491A800E4A1A000E4B1A000E4C1A31
:102D5800000E4D1A800E4E1A4B50475C4C50485886
:102D68004D5049584E504A58D8B0BDEF16F0BFEFF5
:102D780016F0C2EF16F0D890C3EF16F0D880120004
:102D880000018251D8A4CBEF16F0CDEF16F03CEF3E
:102D980017F0010E826F8151D8A4D5EF16F0D7EF46
:102DA80016F03CEF17F0010E816F020E8919D8A4B6
:102DB800E0EF16F0E2EF16F0F8EF16F020EE01F073
:102DC8005750D9265850DA22000EDF6E57C0D9FF67
:102DD80058C0DAFF480EDF6E57C0D9FF58C0DAFF77
:102DE800000EDB8E3CEF17F08905D8A4FEEF16F035
:102DF80000EF17F03CEF17F0000E856F20EE01F0A2
:102E08005D50D9265E50DA22080EDF6E20EE02F001
:102E18005D50D9265E50DA22200EDE6E040EDD6E7D
:102E28005DC0D9FF5EC0DAFF040EDF6E5DC0D9FF5A
:102E38005EC0DAFF000EDB8E010E856F20EE01F01A
:102E48005B50D9265C50DA22080EDF6E20EE02F0C5
:102E58005B50D9265C50DA22200EDE6E040EDD6E41
:102E68005BC0D9FF5CC0DAFF800EDF6E3CEF17F065
:102E7800120000016B8F710E016E0F0E026E000EB4
:102E8800046E000E036E000E066E010E056EE4EC75
:102E98000EF0000E016E040E026E000E046E000E9F
:102EA800036E000E066E200E056EE4EC0EF06D8CBF
:102EB800000E176E7A0E1724D96EDA6A000EDA221F
:102EC800000EDF6E780E1724D96EDA6A000EDA2249
:102ED800000EDF6E172A010E176475EF17F077EFF3
:102EE80017F05EEF17F08F0E016E000E026E000EE7
:102EF800046E000E036E000E066E010E056EE4EC05
:102F08000EF06D9C080E576E040E586E000E5D6E26
:102F1800040E5E6E5DC05BF05EC05CF022C490F093
:102F280000019051D8A49BEF17F09DEF17F0A1EF87
:102F380017F0100E8B6FB2EF17F0000E106E010E27
:102F48000F6E900E116E000E126E000E146E010EB2
:102F5800136EC1EC18F0200E00018B6F12002D0EBD
:102F68000001846F8EC020F0FD0E2016D8A4BFEF9C
:102F780017F0C1EF17F003EF18F08EC020F0D890CB
:102F880020323F0E20162050040D000EF3245D6EF3
:102F9800040EF4205E6E5DC05BF05EC05CF0040E53
:102FA8005B185B6E5C505C6E5DC0D9FF5EC0DAFF7B
:102FB800DF30E8320F0B0D0AD8A4E5EF17F0E7EF82
:102FC80017F0FFEF17F0200E016E040E026E20EED0
:102FD80002F05D50D9265E50DA22DECF03F0DDCF55
:102FE80004F0000E066E080E056E2BEC1AF00FECBE
:102FF80019F00FEF18F095EC19F00FEF18F08E514B
:10300800FD0B040AD8A40BEF18F00DEF18F00FEF22
:1030180018F039EC15F01200000E0001806F000E58
:103028007F6F020E8919D8A41CEF18F01EEF18F054
:103038003EEF18F020EE01F05B50D9265C50DA2202
:10304800080EDF6E20EE02F05B50D9265C50DA22C3
:10305800280EDE6E040EDD6E5BC0D9FF5CC0DAFFA1
:10306800480EDF6E5BC0D9FF5CC0DAFF000EDB8E56
:1030780068EF18F06C510401265D00016D510401E0
:103088002759D8B04AEF18F04CEF18F050EF18F065
:1030980026C46CF027C46DF0B1EC14F020EE02F0F9
:1030A8005750D9265850DA22280EDE6E040EDD6EEF
:1030B80057C0D9FF58C0DAFF480EDF6E57C0D9FF96
:1030C80058C0DAFF000EDB8E1200086E000E096E83
:1030D800040E0A6E0150026E036AD8900236033657
:1030E8000850046E056AD89004360536D890043620
:1030F800053602500424066E03500520076ED8904A
:1031080006360736D8900636073606500926075081
:103118000A2209C0D9FF0AC0DAFFDF9E0150D8A4ED
:1031280098EF18F09AEF18F0A8EF18F00850020D71
:10313800720EF324D96E000EF420DA6E09C0DEFF99
:103148000AC0DDFFB4EF18F00850020D570EF32443
:10315800D96E000EF420DA6E09C0DEFF0AC0DDFF6A
:1031680009C0D9FF0AC0DAFFDF9C20EE04F009503D
:10317800D9260A50DA22DF8C1200D5EF18F0010E9A
:1031880000EC1AF00EEF19F0020E00EC1AF00EEF38
:1031980019F05BEC1BF00EEF19F09FEC0FF00EEF3F
:1031A80019F00FC015F010C016F01650000AD8B468
:1031B800E4EF18F07F0AD8B407EF19F00EEF19F012
:1031C8001550010AD8B4CDEF18F0030AD8B40EEFA1
:1031D80019F0010AD8B4D1EF18F0060AD8B40EEFE6
:1031E80019F0770AD8B40EEF19F0010AD8B40EEF27
:1031F80019F0070AD8B4C8EF18F0010AD8B4C3EF19
:1032080018F00EEF19F01550FF0AD8B40EEF19F0A8
:103218000EEF19F01200000E00018A6F000E836F86
:10322800000E806F000E7F6F000E856F000E896F95
:1032380057C0D9FF58C0DAFF7F0EDF16040E5718A3
:10324800576E5850586E57C0D9FF58C0DAFF7F0ED6
:10325800DF16040E5718576E5850586E5BC0D9FFCA
:103268005CC0DAFF7F0EDF16000E6B6F000E6D6F0D
:10327800000E6C6F000E636F000E656F000E646FBA
:1032880022EC14F0000E106E030E0F6E000E116E7D
:10329800000E126E000E146E000E136EC1EC18F0C4
:1032A800ABEC11F01200076E5EEF19F001680268CE
:1032B80094EF19F00750036E046A0450000AD8B45A
:1032C80068EF19F05AEF19F00350000AD8B477EFF5
:1032D80019F0010AD8B477EF19F0030AD8B477EFD8
:1032E80019F05AEF19F007C003F003460346C2501D
:1032F8000318C30B0318C26EC282C2B286EF19F05C
:1033080088EF19F081EF19F0C4CF05F0066A05506F
:10331800066E056AC350051205C001F006C002F02A
:103328001200020E00018919D8A49DEF19F09FEF31
:1033380019F0A3EF19F050EC12F0CFEF19F0000ECE
:10334800896F8551D8A4ABEF19F0ADEF19F0CDEF27
:1033580019F020EE01F05B50D9265C50DA22080EF5
:10336800DF6E20EE02F05B50D9265C50DA22200E88
:10337800DE6E040EDD6E5BC0D9FF5CC0DAFF0C0E9A
:10338800DF6E5BC0D9FF5CC0DAFF000EDB8ECFEFCB
:1033980019F0000E856F120070A0D5EF19F0D7EF65
:1033A80019F0FEEF19F05DC0D9FF5EC0DAFF800E9C
:1033B800DE18D8A4E2EF19F0E4EF19F0FDEF19F0E8
:1033C80057C0D9FF58C0DAFF840EDE18D8A4EFEF33
:1033D80019F0F1EF19F0FDEF19F05DC0D9FF5EC0EB
:1033E800DAFF0C0EDF6E5DC0D9FF5EC0DAFF000E9B
:1033F800DB8E7090689A1200066E11EF1AF0000EBC
:1034080048EC1BF0000E53EC1AF0010E53EC1AF0C6
:10341800020E53EC1AF02AEF1AF00650046E056AF1
:103428000550000AD8B41BEF1AF02AEF1AF004501E
:10343800000AD8B403EF1AF0010AD8B42AEF1AF038
:10344800030AD8B42AEF1AF02AEF1AF0120003C0C0
:1034580009F004C00AF001C007F002C008F045EF07
:103468001AF009C0D9FF0AC0DAFFDF500B6E094A0B
:103478000A2A07C0D9FF08C0DAFF0BC0DFFF074AD6
:10348800082A0506D8A00606052806E10628D8A4B5
:1034980050EF1AF052EF1AF035EF1AF01200036EDF
:1034A8005FEF1AF0928078EF1AF0928278EF1AF0B4
:1034B800928478EF1AF00350016E026A0250000AF3
:1034C800D8B469EF1AF078EF1AF00150000AD8B4AE
:1034D80056EF1AF0010AD8B459EF1AF0030AD8B413
:1034E8005CEF1AF078EF1AF012000E6E0BA47FEF63
:1034F8001AF081EF1AF086EF1AF0000E016E0E50E6
:1035080069EC18F00BA28BEF1AF08DEF1AF092EF1E
:103518001AF0010E016E0E5069EC18F0700E0E24B0
:103528000C6E0D6A0F0E0D220CC0D9FF0DC0DAFF0C
:103538000BC0DFFF1200000E431A000E441A000EE3
:10354800451A800E461A3FC02FF040C030F041C0E7
:1035580031F042C032F043C033F044C034F045C0CB
:1035680035F046C036F054EC04F02FC03FF030C0C0
:1035780040F031C041F032C042F01200000E00ECC1
:103588001AF006EC11F0D3EC0CF0200E00018B6160
:10359800D0EF1AF0D2EF1AF0D4EF1AF0C7EF1AF002
:1035A8006DA2D9EF1AF0DBEF1AF0DDEF1AF0C7EFD2
:1035B8001AF0B4EC06F0C7EF1AF007EF00F0000EAF
:1035C8000001876F000E106E740E0F6E000E116EE4
:1035D800000E126E000E146E000E136EC1EC18F081
:1035E8006D926994F9EF1AF0689468B4FEEF1AF0D6
:1035F80000EF1BF0F8EF1AF0000E00017E6F1200CA
:10360800010E00016E27000E6F237023712387516E
:10361800D8A411EF1BF013EF1BF01DEF1BF07E2B4E
:103628007E51D8A41AEF1BF01CEF1BF01DEF1BF006
:103638007E691200698468986D82010E0001876FA7
:10364800000E7E6F000E106E750E0F6E000E116E5E
:10365800000E126E000E146E000E136EC1EC18F000
:10366800120000EE60F0310EEE6AE806FDE100EEB1
:1036780057F0080EEE6AE806FDE15F905F92000ED3
:10368800F86E0001C2EF1AF0016E0150D8A44FEF96
:103698001BF051EF1BF05AEF1BF0010EC26EC15028
:1036A800F00B0509C16E3C0EC06EC08E1200000EF4
:1036B8000001766F000E776F1A0E0B6E010E79EC13
:0A36C8001AF0120006005F921100D4
:020000040020DA
:08000000FFFFFFFFFFFFFFFF00
:020000040030CA
:0E000000240E3F1EFF8181FF0FC00FE00F4056
:00000001FF
